{
  "_format": "hh-sol-artifact-1",
  "contractName": "DAO",
  "sourceName": "contracts/DAO.sol",
  "abi": [
    {
      "inputs": [
        {
          "internalType": "address",
          "name": "tokenAddress",
          "type": "address"
        },
        {
          "internalType": "uint256",
          "name": "_tokenPrice",
          "type": "uint256"
        },
        {
          "internalType": "uint256",
          "name": "_tokensPerVP",
          "type": "uint256"
        },
        {
          "internalType": "uint256",
          "name": "_minStakeToVote",
          "type": "uint256"
        },
        {
          "internalType": "uint256",
          "name": "_minStakeToPropose",
          "type": "uint256"
        },
        {
          "internalType": "uint256",
          "name": "_stakingLockTime",
          "type": "uint256"
        },
        {
          "internalType": "uint256",
          "name": "_proposalDuration",
          "type": "uint256"
        }
      ],
      "stateMutability": "nonpayable",
      "type": "constructor"
    },
    {
      "inputs": [],
      "name": "AlreadyVoted",
      "type": "error"
    },
    {
      "inputs": [],
      "name": "DAOPaused",
      "type": "error"
    },
    {
      "inputs": [],
      "name": "InsufficientPayment",
      "type": "error"
    },
    {
      "inputs": [],
      "name": "InsufficientStake",
      "type": "error"
    },
    {
      "inputs": [],
      "name": "InvalidAmount",
      "type": "error"
    },
    {
      "inputs": [],
      "name": "InvalidProposal",
      "type": "error"
    },
    {
      "inputs": [],
      "name": "NoPanicWalletSet",
      "type": "error"
    },
    {
      "inputs": [],
      "name": "NotPanicWallet",
      "type": "error"
    },
    {
      "inputs": [],
      "name": "NotPaused",
      "type": "error"
    },
    {
      "inputs": [
        {
          "internalType": "address",
          "name": "owner",
          "type": "address"
        }
      ],
      "name": "OwnableInvalidOwner",
      "type": "error"
    },
    {
      "inputs": [
        {
          "internalType": "address",
          "name": "account",
          "type": "address"
        }
      ],
      "name": "OwnableUnauthorizedAccount",
      "type": "error"
    },
    {
      "inputs": [],
      "name": "ProposalNotActive",
      "type": "error"
    },
    {
      "inputs": [],
      "name": "ProposalStillActive",
      "type": "error"
    },
    {
      "inputs": [],
      "name": "ReentrancyGuardReentrantCall",
      "type": "error"
    },
    {
      "inputs": [],
      "name": "StakeLocked",
      "type": "error"
    },
    {
      "anonymous": false,
      "inputs": [
        {
          "indexed": true,
          "internalType": "address",
          "name": "previousOwner",
          "type": "address"
        },
        {
          "indexed": true,
          "internalType": "address",
          "name": "newOwner",
          "type": "address"
        }
      ],
      "name": "OwnershipTransferred",
      "type": "event"
    },
    {
      "anonymous": false,
      "inputs": [
        {
          "indexed": true,
          "internalType": "address",
          "name": "by",
          "type": "address"
        }
      ],
      "name": "PanicActivated",
      "type": "event"
    },
    {
      "anonymous": false,
      "inputs": [
        {
          "indexed": true,
          "internalType": "address",
          "name": "panicWallet",
          "type": "address"
        }
      ],
      "name": "PanicWalletSet",
      "type": "event"
    },
    {
      "anonymous": false,
      "inputs": [
        {
          "indexed": false,
          "internalType": "string",
          "name": "paramName",
          "type": "string"
        },
        {
          "indexed": false,
          "internalType": "uint256",
          "name": "newValue",
          "type": "uint256"
        }
      ],
      "name": "ParametersUpdated",
      "type": "event"
    },
    {
      "anonymous": false,
      "inputs": [
        {
          "indexed": true,
          "internalType": "uint256",
          "name": "proposalId",
          "type": "uint256"
        },
        {
          "indexed": true,
          "internalType": "address",
          "name": "proposer",
          "type": "address"
        },
        {
          "indexed": false,
          "internalType": "string",
          "name": "title",
          "type": "string"
        }
      ],
      "name": "ProposalCreated",
      "type": "event"
    },
    {
      "anonymous": false,
      "inputs": [
        {
          "indexed": true,
          "internalType": "uint256",
          "name": "proposalId",
          "type": "uint256"
        },
        {
          "indexed": false,
          "internalType": "enum DAO.ProposalStatus",
          "name": "status",
          "type": "uint8"
        }
      ],
      "name": "ProposalExecuted",
      "type": "event"
    },
    {
      "anonymous": false,
      "inputs": [
        {
          "indexed": true,
          "internalType": "address",
          "name": "user",
          "type": "address"
        },
        {
          "indexed": false,
          "internalType": "uint256",
          "name": "amount",
          "type": "uint256"
        },
        {
          "indexed": false,
          "internalType": "bool",
          "name": "forVoting",
          "type": "bool"
        }
      ],
      "name": "Staked",
      "type": "event"
    },
    {
      "anonymous": false,
      "inputs": [
        {
          "indexed": true,
          "internalType": "address",
          "name": "buyer",
          "type": "address"
        },
        {
          "indexed": false,
          "internalType": "uint256",
          "name": "amount",
          "type": "uint256"
        },
        {
          "indexed": false,
          "internalType": "uint256",
          "name": "cost",
          "type": "uint256"
        }
      ],
      "name": "TokensPurchased",
      "type": "event"
    },
    {
      "anonymous": false,
      "inputs": [
        {
          "indexed": true,
          "internalType": "address",
          "name": "by",
          "type": "address"
        }
      ],
      "name": "TranquilityRestored",
      "type": "event"
    },
    {
      "anonymous": false,
      "inputs": [
        {
          "indexed": true,
          "internalType": "uint256",
          "name": "proposalId",
          "type": "uint256"
        },
        {
          "indexed": true,
          "internalType": "address",
          "name": "target",
          "type": "address"
        },
        {
          "indexed": false,
          "internalType": "uint256",
          "name": "amount",
          "type": "uint256"
        }
      ],
      "name": "TreasuryTransferExecuted",
      "type": "event"
    },
    {
      "anonymous": false,
      "inputs": [
        {
          "indexed": true,
          "internalType": "address",
          "name": "user",
          "type": "address"
        },
        {
          "indexed": false,
          "internalType": "uint256",
          "name": "amount",
          "type": "uint256"
        },
        {
          "indexed": false,
          "internalType": "bool",
          "name": "fromVoting",
          "type": "bool"
        }
      ],
      "name": "Unstaked",
      "type": "event"
    },
    {
      "anonymous": false,
      "inputs": [
        {
          "indexed": true,
          "internalType": "uint256",
          "name": "proposalId",
          "type": "uint256"
        },
        {
          "indexed": true,
          "internalType": "address",
          "name": "voter",
          "type": "address"
        },
        {
          "indexed": false,
          "internalType": "bool",
          "name": "inFavor",
          "type": "bool"
        },
        {
          "indexed": false,
          "internalType": "uint256",
          "name": "votingPower",
          "type": "uint256"
        }
      ],
      "name": "Voted",
      "type": "event"
    },
    {
      "inputs": [],
      "name": "buyTokens",
      "outputs": [],
      "stateMutability": "payable",
      "type": "function"
    },
    {
      "inputs": [
        {
          "internalType": "address",
          "name": "user",
          "type": "address"
        }
      ],
      "name": "calculateVotingPower",
      "outputs": [
        {
          "internalType": "uint256",
          "name": "",
          "type": "uint256"
        }
      ],
      "stateMutability": "view",
      "type": "function"
    },
    {
      "inputs": [
        {
          "internalType": "string",
          "name": "title",
          "type": "string"
        },
        {
          "internalType": "string",
          "name": "description",
          "type": "string"
        }
      ],
      "name": "createProposal",
      "outputs": [
        {
          "internalType": "uint256",
          "name": "",
          "type": "uint256"
        }
      ],
      "stateMutability": "nonpayable",
      "type": "function"
    },
    {
      "inputs": [
        {
          "internalType": "string",
          "name": "title",
          "type": "string"
        },
        {
          "internalType": "string",
          "name": "description",
          "type": "string"
        },
        {
          "internalType": "address",
          "name": "target",
          "type": "address"
        },
        {
          "internalType": "uint256",
          "name": "amount",
          "type": "uint256"
        }
      ],
      "name": "createTreasuryProposal",
      "outputs": [
        {
          "internalType": "uint256",
          "name": "",
          "type": "uint256"
        }
      ],
      "stateMutability": "nonpayable",
      "type": "function"
    },
    {
      "inputs": [
        {
          "internalType": "uint256",
          "name": "proposalId",
          "type": "uint256"
        }
      ],
      "name": "finalizeProposal",
      "outputs": [],
      "stateMutability": "nonpayable",
      "type": "function"
    },
    {
      "inputs": [],
      "name": "getActiveProposals",
      "outputs": [
        {
          "internalType": "uint256[]",
          "name": "",
          "type": "uint256[]"
        }
      ],
      "stateMutability": "view",
      "type": "function"
    },
    {
      "inputs": [
        {
          "internalType": "uint256",
          "name": "proposalId",
          "type": "uint256"
        }
      ],
      "name": "getProposal",
      "outputs": [
        {
          "internalType": "string",
          "name": "title",
          "type": "string"
        },
        {
          "internalType": "string",
          "name": "description",
          "type": "string"
        },
        {
          "internalType": "address",
          "name": "proposer",
          "type": "address"
        },
        {
          "internalType": "uint256",
          "name": "createdAt",
          "type": "uint256"
        },
        {
          "internalType": "uint256",
          "name": "deadline",
          "type": "uint256"
        },
        {
          "internalType": "uint256",
          "name": "votesFor",
          "type": "uint256"
        },
        {
          "internalType": "uint256",
          "name": "votesAgainst",
          "type": "uint256"
        },
        {
          "internalType": "enum DAO.ProposalStatus",
          "name": "status",
          "type": "uint8"
        },
        {
          "internalType": "enum DAO.ProposalType",
          "name": "proposalType",
          "type": "uint8"
        },
        {
          "internalType": "address",
          "name": "treasuryTarget",
          "type": "address"
        },
        {
          "internalType": "uint256",
          "name": "treasuryAmount",
          "type": "uint256"
        }
      ],
      "stateMutability": "view",
      "type": "function"
    },
    {
      "inputs": [
        {
          "internalType": "uint256",
          "name": "proposalId",
          "type": "uint256"
        }
      ],
      "name": "getProposalVoters",
      "outputs": [
        {
          "internalType": "address[]",
          "name": "",
          "type": "address[]"
        }
      ],
      "stateMutability": "view",
      "type": "function"
    },
    {
      "inputs": [
        {
          "internalType": "address",
          "name": "user",
          "type": "address"
        }
      ],
      "name": "getStakeInfo",
      "outputs": [
        {
          "components": [
            {
              "internalType": "uint256",
              "name": "amountForVoting",
              "type": "uint256"
            },
            {
              "internalType": "uint256",
              "name": "amountForProposing",
              "type": "uint256"
            },
            {
              "internalType": "uint256",
              "name": "lockedUntilVoting",
              "type": "uint256"
            },
            {
              "internalType": "uint256",
              "name": "lockedUntilProposing",
              "type": "uint256"
            }
          ],
          "internalType": "struct DAO.StakeInfo",
          "name": "",
          "type": "tuple"
        }
      ],
      "stateMutability": "view",
      "type": "function"
    },
    {
      "inputs": [],
      "name": "getTreasuryBalance",
      "outputs": [
        {
          "internalType": "uint256",
          "name": "",
          "type": "uint256"
        }
      ],
      "stateMutability": "view",
      "type": "function"
    },
    {
      "inputs": [
        {
          "internalType": "uint256",
          "name": "proposalId",
          "type": "uint256"
        },
        {
          "internalType": "address",
          "name": "voter",
          "type": "address"
        }
      ],
      "name": "getVoterChoice",
      "outputs": [
        {
          "internalType": "bool",
          "name": "",
          "type": "bool"
        }
      ],
      "stateMutability": "view",
      "type": "function"
    },
    {
      "inputs": [
        {
          "internalType": "uint256",
          "name": "",
          "type": "uint256"
        },
        {
          "internalType": "address",
          "name": "",
          "type": "address"
        }
      ],
      "name": "hasVoted",
      "outputs": [
        {
          "internalType": "bool",
          "name": "",
          "type": "bool"
        }
      ],
      "stateMutability": "view",
      "type": "function"
    },
    {
      "inputs": [],
      "name": "isPaused",
      "outputs": [
        {
          "internalType": "bool",
          "name": "",
          "type": "bool"
        }
      ],
      "stateMutability": "view",
      "type": "function"
    },
    {
      "inputs": [],
      "name": "minStakeToPropose",
      "outputs": [
        {
          "internalType": "uint256",
          "name": "",
          "type": "uint256"
        }
      ],
      "stateMutability": "view",
      "type": "function"
    },
    {
      "inputs": [],
      "name": "minStakeToVote",
      "outputs": [
        {
          "internalType": "uint256",
          "name": "",
          "type": "uint256"
        }
      ],
      "stateMutability": "view",
      "type": "function"
    },
    {
      "inputs": [
        {
          "internalType": "address",
          "name": "to",
          "type": "address"
        },
        {
          "internalType": "uint256",
          "name": "amount",
          "type": "uint256"
        }
      ],
      "name": "mintTokens",
      "outputs": [],
      "stateMutability": "nonpayable",
      "type": "function"
    },
    {
      "inputs": [],
      "name": "owner",
      "outputs": [
        {
          "internalType": "address",
          "name": "",
          "type": "address"
        }
      ],
      "stateMutability": "view",
      "type": "function"
    },
    {
      "inputs": [],
      "name": "panic",
      "outputs": [],
      "stateMutability": "nonpayable",
      "type": "function"
    },
    {
      "inputs": [],
      "name": "panicWallet",
      "outputs": [
        {
          "internalType": "address",
          "name": "",
          "type": "address"
        }
      ],
      "stateMutability": "view",
      "type": "function"
    },
    {
      "inputs": [],
      "name": "proposalCount",
      "outputs": [
        {
          "internalType": "uint256",
          "name": "",
          "type": "uint256"
        }
      ],
      "stateMutability": "view",
      "type": "function"
    },
    {
      "inputs": [],
      "name": "proposalDuration",
      "outputs": [
        {
          "internalType": "uint256",
          "name": "",
          "type": "uint256"
        }
      ],
      "stateMutability": "view",
      "type": "function"
    },
    {
      "inputs": [
        {
          "internalType": "uint256",
          "name": "",
          "type": "uint256"
        }
      ],
      "name": "proposals",
      "outputs": [
        {
          "internalType": "string",
          "name": "title",
          "type": "string"
        },
        {
          "internalType": "string",
          "name": "description",
          "type": "string"
        },
        {
          "internalType": "address",
          "name": "proposer",
          "type": "address"
        },
        {
          "internalType": "uint256",
          "name": "createdAt",
          "type": "uint256"
        },
        {
          "internalType": "uint256",
          "name": "deadline",
          "type": "uint256"
        },
        {
          "internalType": "uint256",
          "name": "votesFor",
          "type": "uint256"
        },
        {
          "internalType": "uint256",
          "name": "votesAgainst",
          "type": "uint256"
        },
        {
          "internalType": "enum DAO.ProposalStatus",
          "name": "status",
          "type": "uint8"
        },
        {
          "internalType": "enum DAO.ProposalType",
          "name": "proposalType",
          "type": "uint8"
        },
        {
          "internalType": "address",
          "name": "treasuryTarget",
          "type": "address"
        },
        {
          "internalType": "uint256",
          "name": "treasuryAmount",
          "type": "uint256"
        }
      ],
      "stateMutability": "view",
      "type": "function"
    },
    {
      "inputs": [],
      "name": "renounceOwnership",
      "outputs": [],
      "stateMutability": "nonpayable",
      "type": "function"
    },
    {
      "inputs": [
        {
          "internalType": "address",
          "name": "_panicWallet",
          "type": "address"
        }
      ],
      "name": "setPanicWallet",
      "outputs": [],
      "stateMutability": "nonpayable",
      "type": "function"
    },
    {
      "inputs": [
        {
          "internalType": "uint256",
          "name": "amount",
          "type": "uint256"
        }
      ],
      "name": "stakeForProposing",
      "outputs": [],
      "stateMutability": "nonpayable",
      "type": "function"
    },
    {
      "inputs": [
        {
          "internalType": "uint256",
          "name": "amount",
          "type": "uint256"
        }
      ],
      "name": "stakeForVoting",
      "outputs": [],
      "stateMutability": "nonpayable",
      "type": "function"
    },
    {
      "inputs": [
        {
          "internalType": "address",
          "name": "",
          "type": "address"
        }
      ],
      "name": "stakes",
      "outputs": [
        {
          "internalType": "uint256",
          "name": "amountForVoting",
          "type": "uint256"
        },
        {
          "internalType": "uint256",
          "name": "amountForProposing",
          "type": "uint256"
        },
        {
          "internalType": "uint256",
          "name": "lockedUntilVoting",
          "type": "uint256"
        },
        {
          "internalType": "uint256",
          "name": "lockedUntilProposing",
          "type": "uint256"
        }
      ],
      "stateMutability": "view",
      "type": "function"
    },
    {
      "inputs": [],
      "name": "stakingLockTime",
      "outputs": [
        {
          "internalType": "uint256",
          "name": "",
          "type": "uint256"
        }
      ],
      "stateMutability": "view",
      "type": "function"
    },
    {
      "inputs": [],
      "name": "token",
      "outputs": [
        {
          "internalType": "contract DAOToken",
          "name": "",
          "type": "address"
        }
      ],
      "stateMutability": "view",
      "type": "function"
    },
    {
      "inputs": [],
      "name": "tokenPrice",
      "outputs": [
        {
          "internalType": "uint256",
          "name": "",
          "type": "uint256"
        }
      ],
      "stateMutability": "view",
      "type": "function"
    },
    {
      "inputs": [],
      "name": "tokensPerVotingPower",
      "outputs": [
        {
          "internalType": "uint256",
          "name": "",
          "type": "uint256"
        }
      ],
      "stateMutability": "view",
      "type": "function"
    },
    {
      "inputs": [],
      "name": "tranquilidad",
      "outputs": [],
      "stateMutability": "nonpayable",
      "type": "function"
    },
    {
      "inputs": [
        {
          "internalType": "address",
          "name": "newOwner",
          "type": "address"
        }
      ],
      "name": "transferOwnership",
      "outputs": [],
      "stateMutability": "nonpayable",
      "type": "function"
    },
    {
      "inputs": [
        {
          "internalType": "uint256",
          "name": "amount",
          "type": "uint256"
        }
      ],
      "name": "unstakeFromProposing",
      "outputs": [],
      "stateMutability": "nonpayable",
      "type": "function"
    },
    {
      "inputs": [
        {
          "internalType": "uint256",
          "name": "amount",
          "type": "uint256"
        }
      ],
      "name": "unstakeFromVoting",
      "outputs": [],
      "stateMutability": "nonpayable",
      "type": "function"
    },
    {
      "inputs": [
        {
          "internalType": "uint256",
          "name": "newMin",
          "type": "uint256"
        }
      ],
      "name": "updateMinStakeToPropose",
      "outputs": [],
      "stateMutability": "nonpayable",
      "type": "function"
    },
    {
      "inputs": [
        {
          "internalType": "uint256",
          "name": "newMin",
          "type": "uint256"
        }
      ],
      "name": "updateMinStakeToVote",
      "outputs": [],
      "stateMutability": "nonpayable",
      "type": "function"
    },
    {
      "inputs": [
        {
          "internalType": "uint256",
          "name": "newDuration",
          "type": "uint256"
        }
      ],
      "name": "updateProposalDuration",
      "outputs": [],
      "stateMutability": "nonpayable",
      "type": "function"
    },
    {
      "inputs": [
        {
          "internalType": "uint256",
          "name": "newLockTime",
          "type": "uint256"
        }
      ],
      "name": "updateStakingLockTime",
      "outputs": [],
      "stateMutability": "nonpayable",
      "type": "function"
    },
    {
      "inputs": [
        {
          "internalType": "uint256",
          "name": "newPrice",
          "type": "uint256"
        }
      ],
      "name": "updateTokenPrice",
      "outputs": [],
      "stateMutability": "nonpayable",
      "type": "function"
    },
    {
      "inputs": [
        {
          "internalType": "uint256",
          "name": "newTokensPerVP",
          "type": "uint256"
        }
      ],
      "name": "updateTokensPerVotingPower",
      "outputs": [],
      "stateMutability": "nonpayable",
      "type": "function"
    },
    {
      "inputs": [
        {
          "internalType": "uint256",
          "name": "proposalId",
          "type": "uint256"
        },
        {
          "internalType": "address",
          "name": "user",
          "type": "address"
        }
      ],
      "name": "userHasVoted",
      "outputs": [
        {
          "internalType": "bool",
          "name": "",
          "type": "bool"
        }
      ],
      "stateMutability": "view",
      "type": "function"
    },
    {
      "inputs": [
        {
          "internalType": "uint256",
          "name": "proposalId",
          "type": "uint256"
        },
        {
          "internalType": "bool",
          "name": "inFavor",
          "type": "bool"
        }
      ],
      "name": "vote",
      "outputs": [],
      "stateMutability": "nonpayable",
      "type": "function"
    },
    {
      "inputs": [
        {
          "internalType": "uint256",
          "name": "",
          "type": "uint256"
        },
        {
          "internalType": "address",
          "name": "",
          "type": "address"
        }
      ],
      "name": "voteChoice",
      "outputs": [
        {
          "internalType": "bool",
          "name": "",
          "type": "bool"
        }
      ],
      "stateMutability": "view",
      "type": "function"
    },
    {
      "stateMutability": "payable",
      "type": "receive"
    }
  ],
  "bytecode": "0x60806040523480156200001157600080fd5b5060405162002c9438038062002c9483398101604081905262000034916200010e565b33806200005b57604051631e4fbdf760e01b81526000600482015260240160405180910390fd5b6200006681620000be565b5060018055600280546001600160a01b039098166001600160a01b0319909816979097179096556004949094556005929092556006556007556008556009556003805460ff60a01b1916600160a01b17905562000179565b600080546001600160a01b038381166001600160a01b0319831681178455604051919092169283917f8be0079c531659141344cd1fd0a4f28419497f9722a3daafe3b4186f6b6457e09190a35050565b600080600080600080600060e0888a0312156200012a57600080fd5b87516001600160a01b03811681146200014257600080fd5b602089015160408a015160608b015160808c015160a08d015160c0909d0151949e939d50919b909a50909850965090945092505050565b612b0b80620001896000396000f3fe60806040526004361061026b5760003560e01c80638da5cb5b11610144578063c9d27afe116100b6578063dc53a7091161007a578063dc53a709146107cd578063dc7822bd146107e3578063f0dda65c14610803578063f2fde38b14610823578063fb46885514610843578063fc0c546a1461087e57600080fd5b8063c9d27afe1461074f578063cbd38f421461076f578063d0febe4c1461078f578063d1b85b4914610797578063da35c664146107b757600080fd5b8063a68f34f711610108578063a68f34f71461064e578063a73079ac1461067b578063ad3bcade1461069b578063b187bd26146106bb578063c3453153146106dc578063c7f758a81461072f57600080fd5b80638da5cb5b146105b457806392bfcb3a146105e657806397761382146106065780639b5655dc1461061b578063a028699e1461062e57600080fd5b8063542ffa7b116101dd57806365e481e2116101a157806365e481e21461051d578063676c0d771461053d5780636ee7ee551461055d578063715018a61461057357806373c0b5cb146105885780637ff9b5961461059e57600080fd5b8063542ffa7b146104555780635584c4f9146104755780635652077c1461049757806359d177e6146104b75780635fc48d7e146104d757600080fd5b80631d408d1e1161022f5780631d408d1e1461038b57806321598230146103af57806330109962146103cf5780634091e8f0146103e557806343859632146104055780634700d3051461044057600080fd5b8063013cf08b14610277578063030035c4146102b75780630627d425146102d95780630eac27f4146102f957806316934fc41461032957600080fd5b3661027257005b600080fd5b34801561028357600080fd5b50610297610292366004612453565b61089e565b6040516102ae9b9a999897969594939291906124dc565b60405180910390f35b3480156102c357600080fd5b506102d76102d2366004612453565b610a1a565b005b3480156102e557600080fd5b506102d76102f4366004612453565b610a7a565b34801561030557600080fd5b5061031961031436600461258f565b610be0565b60405190151581526020016102ae565b34801561033557600080fd5b5061036b6103443660046125bb565b600a6020526000908152604090208054600182015460028301546003909301549192909184565b6040805194855260208501939093529183015260608201526080016102ae565b34801561039757600080fd5b506103a160065481565b6040519081526020016102ae565b3480156103bb57600080fd5b506102d76103ca366004612453565b610c0d565b3480156103db57600080fd5b506103a160095481565b3480156103f157600080fd5b506102d76104003660046125bb565b610c61565b34801561041157600080fd5b5061031961042036600461258f565b600c60209081526000928352604080842090915290825290205460ff1681565b34801561044c57600080fd5b506102d7610d00565b34801561046157600080fd5b506102d7610470366004612453565b610d6b565b34801561048157600080fd5b5061048a610eb4565b6040516102ae91906125d6565b3480156104a357600080fd5b506102d76104b2366004612453565b610fff565b3480156104c357600080fd5b506103a16104d23660046125bb565b61128f565b3480156104e357600080fd5b506103196104f236600461258f565b6000918252600c602090815260408084206001600160a01b0393909316845291905290205460ff1690565b34801561052957600080fd5b506103a16105383660046126bd565b6112bc565b34801561054957600080fd5b506102d7610558366004612453565b6113f7565b34801561056957600080fd5b506103a160085481565b34801561057f57600080fd5b506102d7611446565b34801561059457600080fd5b506103a160075481565b3480156105aa57600080fd5b506103a160045481565b3480156105c057600080fd5b506000546001600160a01b03165b6040516001600160a01b0390911681526020016102ae565b3480156105f257600080fd5b506102d7610601366004612453565b61145a565b34801561061257600080fd5b506102d76114ad565b34801561062757600080fd5b50476103a1565b34801561063a57600080fd5b506102d7610649366004612453565b61153c565b34801561065a57600080fd5b5061066e610669366004612453565b6116bb565b6040516102ae9190612721565b34801561068757600080fd5b506103a1610696366004612762565b611727565b3480156106a757600080fd5b506003546105ce906001600160a01b031681565b3480156106c757600080fd5b5060035461031990600160a01b900460ff1681565b3480156106e857600080fd5b506106fc6106f73660046125bb565b611919565b6040516102ae91908151815260208083015190820152604080830151908201526060918201519181019190915260800190565b34801561073b57600080fd5b5061029761074a366004612453565b611992565b34801561075b57600080fd5b506102d761076a3660046127ec565b611b4d565b34801561077b57600080fd5b506102d761078a366004612453565b611dbd565b6102d7611e13565b3480156107a357600080fd5b506102d76107b2366004612453565b612046565b3480156107c357600080fd5b506103a1600f5481565b3480156107d957600080fd5b506103a160055481565b3480156107ef57600080fd5b506102d76107fe366004612453565b6121c4565b34801561080f57600080fd5b506102d761081e36600461281c565b612219565b34801561082f57600080fd5b506102d761083e3660046125bb565b612371565b34801561084f57600080fd5b5061031961085e36600461258f565b600d60209081526000928352604080842090915290825290205460ff1681565b34801561088a57600080fd5b506002546105ce906001600160a01b031681565b600b602052600090815260409020805481906108b990612846565b80601f01602080910402602001604051908101604052809291908181526020018280546108e590612846565b80156109325780601f1061090757610100808354040283529160200191610932565b820191906000526020600020905b81548152906001019060200180831161091557829003601f168201915b50505050509080600101805461094790612846565b80601f016020809104026020016040519081016040528092919081815260200182805461097390612846565b80156109c05780601f10610995576101008083540402835291602001916109c0565b820191906000526020600020905b8154815290600101906020018083116109a357829003601f168201915b50505060028401546003850154600486015460058701546006880154600789015460089099015497986001600160a01b03958616989497509295509093909260ff808416936101008104909116926201000090910416908b565b610a226123ac565b600581905560408051818152601491810191909152733a37b5b2b739a832b92b37ba34b733a837bbb2b960611b606082015260208101829052600080516020612ab6833981519152906080015b60405180910390a150565b610a826123d9565b336000908152600a60205260409020811580610aa15750806001015482115b15610abf5760405163162908e360e11b815260040160405180910390fd5b8060030154421015610ae457604051630a68850160e11b815260040160405180910390fd5b81816001016000828254610af89190612896565b909155505060025460405163a9059cbb60e01b8152336004820152602481018490526001600160a01b039091169063a9059cbb906044016020604051808303816000875af1158015610b4e573d6000803e3d6000fd5b505050506040513d601f19601f82011682018060405250810190610b7291906128a9565b610b975760405162461bcd60e51b8152600401610b8e906128c6565b60405180910390fd5b604080518381526000602082015233917f4416ca74b4c9dd8d6070d91c267a6cf53734c0f343ced0ad02471ccb5417037e91015b60405180910390a250610bdd60018055565b50565b6000828152600d602090815260408083206001600160a01b038516845290915290205460ff165b92915050565b610c156123ac565b600881905560408051818152600f918101919091526e7374616b696e674c6f636b54696d6560881b606082015260208101829052600080516020612ab683398151915290608001610a6f565b610c696123ac565b6001600160a01b038116610cb65760405162461bcd60e51b8152602060048201526014602482015273125b9d985b1a59081c185b9a58c81dd85b1b195d60621b6044820152606401610b8e565b600380546001600160a81b0319166001600160a01b0383169081179091556040517fa02db7c9680f52f923cc3a7d1cf764d4dac0a32c7439c70b46ecdc5daa6e2ebe90600090a250565b6003546001600160a01b03163314610d2b5760405163b9e5ac5f60e01b815260040160405180910390fd5b6003805460ff60a01b1916600160a01b17905560405133907f0b907d122e4db865e49bc04c7f1e84a1ae29e024ee225bc08c69104520c5f3f990600090a2565b610d736123d9565b336000908152600a60205260409020811580610d8f5750805482115b15610dad5760405163162908e360e11b815260040160405180910390fd5b8060020154421015610dd257604051630a68850160e11b815260040160405180910390fd5b81816000016000828254610de69190612896565b909155505060025460405163a9059cbb60e01b8152336004820152602481018490526001600160a01b039091169063a9059cbb906044016020604051808303816000875af1158015610e3c573d6000803e3d6000fd5b505050506040513d601f19601f82011682018060405250810190610e6091906128a9565b610e7c5760405162461bcd60e51b8152600401610b8e906128c6565b604080518381526001602082015233917f4416ca74b4c9dd8d6070d91c267a6cf53734c0f343ced0ad02471ccb5417037e9101610bcb565b60606000805b600f54811015610f23576000818152600b602052604081206007015460ff166002811115610eea57610eea6124b2565b148015610f0857506000818152600b60205260409020600401544211155b15610f1b5781610f17816128ef565b9250505b600101610eba565b5060008167ffffffffffffffff811115610f3f57610f3f61261a565b604051908082528060200260200182016040528015610f68578160200160208202803683370190505b5090506000805b600f54811015610ff6576000818152600b602052604081206007015460ff166002811115610f9f57610f9f6124b2565b148015610fbd57506000818152600b60205260409020600401544211155b15610fee5780838381518110610fd557610fd5612908565b602090810291909101015281610fea816128ef565b9250505b600101610f6f565b50909392505050565b6000818152600b60205260408120600381015490910361103257604051631dc0650160e31b815260040160405180910390fd5b6000600782015460ff16600281111561104d5761104d6124b2565b1461106b57604051637becc13f60e01b815260040160405180910390fd5b8060040154421161108f57604051630e6c500560e31b815260040160405180910390fd5b80600601548160050154111561123a5760078101805460ff19166001908117918290559060ff61010090910416818111156110cc576110cc6124b2565b036112355780600801544710156111255760405162461bcd60e51b815260206004820152601d60248201527f496e73756666696369656e742074726561737572792062616c616e63650000006044820152606401610b8e565b600781015460088201546040516000926201000090046001600160a01b031691908381818185875af1925050503d806000811461117e576040519150601f19603f3d011682016040523d82523d6000602084013e611183565b606091505b50509050806111d45760405162461bcd60e51b815260206004820152601860248201527f5472656173757279207472616e73666572206661696c656400000000000000006044820152606401610b8e565b8160070160029054906101000a90046001600160a01b03166001600160a01b0316837fccf51f70e4018e2f274165b7d79ee3487cf27f890b55fb8d57e3b4cb5c6ffc79846008015460405161122b91815260200190565b60405180910390a3505b61124a565b60078101805460ff191660021790555b600781015460405183917f5b9614f21773d68c0b149bda804ff3d491c8bc8795f7ed236cc97804cd005389916112839160ff169061291e565b60405180910390a25050565b6001600160a01b0381166000908152600a60205260408120546005546112b5908261292c565b9392505050565b600354600090600160a01b900460ff16156112ea5760405163b5784fa560e01b815260040160405180910390fd5b600754336000908152600a6020526040902060010154101561131f576040516378de4a6960e11b815260040160405180910390fd5b600f80549081906000611331836128ef565b90915550506000818152600b602052604090208061134f868261299f565b506001810161135e858261299f565b506002810180546001600160a01b03191633179055426003820181905560095461138791612a5f565b6004820155600060058201819055600682018190556007820180546001600160b01b03191690556008820155604051339083907f7585f467599d0f008985f231af99293be388626ac16ca59505c2f8f88969cd63906113e7908990612a72565b60405180910390a3509392505050565b6113ff6123ac565b600481905560408051818152600a9181019190915269746f6b656e507269636560b01b606082015260208101829052600080516020612ab683398151915290608001610a6f565b61144e6123ac565b6114586000612403565b565b6114626123ac565b600681905560408051818152600e918101919091526d6d696e5374616b65546f566f746560901b606082015260208101829052600080516020612ab683398151915290608001610a6f565b6003546001600160a01b031633146114d85760405163b9e5ac5f60e01b815260040160405180910390fd5b600354600160a01b900460ff1661150257604051636cd6020160e01b815260040160405180910390fd5b6003805460ff60a01b1916905560405133907fa2e764bd6010df61a2c087e90137317fdd752e4f6e3804ca8df0d6ed16f3014990600090a2565b600354600160a01b900460ff16156115675760405163b5784fa560e01b815260040160405180910390fd5b6003546001600160a01b03166115905760405163033895ab60e61b815260040160405180910390fd5b806000036115b15760405163162908e360e11b815260040160405180910390fd5b6002546040516323b872dd60e01b8152336004820152306024820152604481018390526001600160a01b03909116906323b872dd906064016020604051808303816000875af1158015611608573d6000803e3d6000fd5b505050506040513d601f19601f8201168201806040525081019061162c91906128a9565b6116485760405162461bcd60e51b8152600401610b8e906128c6565b336000908152600a602052604081206001810180549192849261166c908490612a5f565b909155505060085461167e9042612a5f565b6003820155604080518381526000602082015233917f37d4053e34fde482e96f6bcd424dfa31342cbd5fe184d497fb3c8bb4b4b975809101611283565b6000818152600e602090815260409182902080548351818402810184019094528084526060939283018282801561171b57602002820191906000526020600020905b81546001600160a01b031681526001909101906020018083116116fd575b50505050509050919050565b600354600090600160a01b900460ff16156117555760405163b5784fa560e01b815260040160405180910390fd5b600754336000908152600a6020526040902060010154101561178a576040516378de4a6960e11b815260040160405180910390fd5b6001600160a01b0383166117d95760405162461bcd60e51b8152602060048201526016602482015275496e76616c696420746172676574206164647265737360501b6044820152606401610b8e565b600082116118295760405162461bcd60e51b815260206004820152601d60248201527f416d6f756e74206d7573742062652067726561746572207468616e20300000006044820152606401610b8e565b600f8054908190600061183b836128ef565b90915550506000818152600b6020526040902080611859888261299f565b5060018101611868878261299f565b506002810180546001600160a01b03191633179055426003820181905560095461189191612a5f565b600482015560006005820181905560068201556007810180546001600160a01b03871662010000026001600160b01b03199091161761010017905560088101849055604051339083907f7585f467599d0f008985f231af99293be388626ac16ca59505c2f8f88969cd6390611907908b90612a72565b60405180910390a35095945050505050565b6119446040518060800160405280600081526020016000815260200160008152602001600081525090565b506001600160a01b03166000908152600a6020908152604091829020825160808101845281548152600182015492810192909252600281015492820192909252600390910154606082015290565b6000818152600b60205260408120600281015460038201546004830154600584015460068501546007860154600887015487546060998a9990988998899889988998899889988998899897889760018901976001600160a01b0392831697919690959194909360ff808416946101008504909116936201000090041691908b90611a1b90612846565b80601f0160208091040260200160405190810160405280929190818152602001828054611a4790612846565b8015611a945780601f10611a6957610100808354040283529160200191611a94565b820191906000526020600020905b815481529060010190602001808311611a7757829003601f168201915b50505050509a50898054611aa790612846565b80601f0160208091040260200160405190810160405280929190818152602001828054611ad390612846565b8015611b205780601f10611af557610100808354040283529160200191611b20565b820191906000526020600020905b815481529060010190602001808311611b0357829003601f168201915b505050505099509b509b509b509b509b509b509b509b509b509b509b505091939597999b90929496989a50565b600354600160a01b900460ff1615611b785760405163b5784fa560e01b815260040160405180910390fd5b6000828152600b602052604081206003810154909103611bab57604051631dc0650160e31b815260040160405180910390fd5b6000600782015460ff166002811115611bc657611bc66124b2565b14611be457604051637becc13f60e01b815260040160405180910390fd5b8060040154421115611c0957604051637becc13f60e01b815260040160405180910390fd5b600654336000908152600a60205260409020541015611c3b576040516378de4a6960e11b815260040160405180910390fd5b6000838152600c6020908152604080832033845290915290205460ff1615611c7657604051637c9a1cf960e01b815260040160405180910390fd5b6000611c813361128f565b905060008111611cc55760405162461bcd60e51b815260206004820152600f60248201526e2737903b37ba34b733903837bbb2b960891b6044820152606401610b8e565b6000848152600c6020908152604080832033808552908352818420805460ff199081166001908117909255898652600d8552838620838752855283862080548a15801591909316179055898652600e85529285208054918201815585529290932090910180546001600160a01b031916909217909155611d5e5780826005016000828254611d539190612a5f565b90915550611d789050565b80826006016000828254611d729190612a5f565b90915550505b60408051841515815260208101839052339186917f7c2de587c00d75474a0c6c6fa96fd3b45dc974cd4e8a75f712bb84c950dce1b5910160405180910390a350505050565b611dc56123ac565b600781905560408051818152601191810191909152706d696e5374616b65546f50726f706f736560781b606082015260208101829052600080516020612ab683398151915290608001610a6f565b600354600160a01b900460ff1615611e3e5760405163b5784fa560e01b815260040160405180910390fd5b6003546001600160a01b0316611e675760405163033895ab60e61b815260040160405180910390fd5b611e6f6123d9565b34600003611e905760405163162908e360e11b815260040160405180910390fd5b600454600090611ea834670de0b6b3a7640000612a85565b611eb2919061292c565b6002546040516370a0823160e01b815230600482015291925082916001600160a01b03909116906370a0823190602401602060405180830381865afa158015611eff573d6000803e3d6000fd5b505050506040513d601f19601f82011682018060405250810190611f239190612a9c565b1015611f715760405162461bcd60e51b815260206004820152601a60248201527f496e73756666696369656e7420746f6b656e7320696e2044414f0000000000006044820152606401610b8e565b60025460405163a9059cbb60e01b8152336004820152602481018390526001600160a01b039091169063a9059cbb906044016020604051808303816000875af1158015611fc2573d6000803e3d6000fd5b505050506040513d601f19601f82011682018060405250810190611fe691906128a9565b6120025760405162461bcd60e51b8152600401610b8e906128c6565b6040805182815234602082015233917f8fafebcaf9d154343dad25669bfa277f4fbacd7ac6b0c4fed522580e040a0f33910160405180910390a25061145860018055565b600354600160a01b900460ff16156120715760405163b5784fa560e01b815260040160405180910390fd5b6003546001600160a01b031661209a5760405163033895ab60e61b815260040160405180910390fd5b806000036120bb5760405163162908e360e11b815260040160405180910390fd5b6002546040516323b872dd60e01b8152336004820152306024820152604481018390526001600160a01b03909116906323b872dd906064016020604051808303816000875af1158015612112573d6000803e3d6000fd5b505050506040513d601f19601f8201168201806040525081019061213691906128a9565b6121525760405162461bcd60e51b8152600401610b8e906128c6565b336000908152600a60205260408120805490918391839190612175908490612a5f565b90915550506008546121879042612a5f565b6002820155604080518381526001602082015233917f37d4053e34fde482e96f6bcd424dfa31342cbd5fe184d497fb3c8bb4b4b975809101611283565b6121cc6123ac565b6009819055604080518181526010918101919091526f383937b837b9b0b6223ab930ba34b7b760811b606082015260208101829052600080516020612ab683398151915290608001610a6f565b6122216123ac565b6001600160a01b0382166122695760405162461bcd60e51b815260206004820152600f60248201526e496e76616c6964206164647265737360881b6044820152606401610b8e565b600081116122b95760405162461bcd60e51b815260206004820152601d60248201527f416d6f756e74206d7573742062652067726561746572207468616e20300000006044820152606401610b8e565b6002546040516340c10f1960e01b81526001600160a01b03848116600483015260248201849052909116906340c10f1990604401600060405180830381600087803b15801561230757600080fd5b505af115801561231b573d6000803e3d6000fd5b50505050600080516020612ab68339815191528160405161236591906040808252600c908201526b1d1bdad95b9cd35a5b9d195960a21b6060820152602081019190915260800190565b60405180910390a15050565b6123796123ac565b6001600160a01b0381166123a357604051631e4fbdf760e01b815260006004820152602401610b8e565b610bdd81612403565b6000546001600160a01b031633146114585760405163118cdaa760e01b8152336004820152602401610b8e565b6002600154036123fc57604051633ee5aeb560e01b815260040160405180910390fd5b6002600155565b600080546001600160a01b038381166001600160a01b0319831681178455604051919092169283917f8be0079c531659141344cd1fd0a4f28419497f9722a3daafe3b4186f6b6457e09190a35050565b60006020828403121561246557600080fd5b5035919050565b6000815180845260005b8181101561249257602081850181015186830182015201612476565b506000602082860101526020601f19601f83011685010191505092915050565b634e487b7160e01b600052602160045260246000fd5b600381106124d8576124d86124b2565b9052565b60006101608083526124f08184018f61246c565b90508281036020840152612504818e61246c565b91505060018060a01b03808c1660408401528a60608401528960808401528860a08401528760c084015261253b60e08401886124c8565b6002861061254b5761254b6124b2565b8561010084015280851661012084015250826101408301529c9b505050505050505050505050565b80356001600160a01b038116811461258a57600080fd5b919050565b600080604083850312156125a257600080fd5b823591506125b260208401612573565b90509250929050565b6000602082840312156125cd57600080fd5b6112b582612573565b6020808252825182820181905260009190848201906040850190845b8181101561260e578351835292840192918401916001016125f2565b50909695505050505050565b634e487b7160e01b600052604160045260246000fd5b600082601f83011261264157600080fd5b813567ffffffffffffffff8082111561265c5761265c61261a565b604051601f8301601f19908116603f011681019082821181831017156126845761268461261a565b8160405283815286602085880101111561269d57600080fd5b836020870160208301376000602085830101528094505050505092915050565b600080604083850312156126d057600080fd5b823567ffffffffffffffff808211156126e857600080fd5b6126f486838701612630565b9350602085013591508082111561270a57600080fd5b5061271785828601612630565b9150509250929050565b6020808252825182820181905260009190848201906040850190845b8181101561260e5783516001600160a01b03168352928401929184019160010161273d565b6000806000806080858703121561277857600080fd5b843567ffffffffffffffff8082111561279057600080fd5b61279c88838901612630565b955060208701359150808211156127b257600080fd5b506127bf87828801612630565b9350506127ce60408601612573565b9396929550929360600135925050565b8015158114610bdd57600080fd5b600080604083850312156127ff57600080fd5b823591506020830135612811816127de565b809150509250929050565b6000806040838503121561282f57600080fd5b61283883612573565b946020939093013593505050565b600181811c9082168061285a57607f821691505b60208210810361287a57634e487b7160e01b600052602260045260246000fd5b50919050565b634e487b7160e01b600052601160045260246000fd5b81810381811115610c0757610c07612880565b6000602082840312156128bb57600080fd5b81516112b5816127de565b6020808252600f908201526e151c985b9cd9995c8819985a5b1959608a1b604082015260600190565b60006001820161290157612901612880565b5060010190565b634e487b7160e01b600052603260045260246000fd5b60208101610c0782846124c8565b60008261294957634e487b7160e01b600052601260045260246000fd5b500490565b601f82111561299a576000816000526020600020601f850160051c810160208610156129775750805b601f850160051c820191505b8181101561299657828155600101612983565b5050505b505050565b815167ffffffffffffffff8111156129b9576129b961261a565b6129cd816129c78454612846565b8461294e565b602080601f831160018114612a0257600084156129ea5750858301515b600019600386901b1c1916600185901b178555612996565b600085815260208120601f198616915b82811015612a3157888601518255948401946001909101908401612a12565b5085821015612a4f5787850151600019600388901b60f8161c191681555b5050505050600190811b01905550565b80820180821115610c0757610c07612880565b6020815260006112b5602083018461246c565b8082028115828204841417610c0757610c07612880565b600060208284031215612aae57600080fd5b505191905056fe952177133a28eea5034c93c6c70c1a8d223da94faaa45da8412c3c791111137fa264697066735822122022dde7ce569a5a2be48e8aedf9347e8176f474b0dafd4607528695fc091629a064736f6c63430008180033",
  "linkReferences": {},
  "deployedLinkReferences": {}
}