{
  "_format": "hh-sol-artifact-1",
  "contractName": "DAO",
  "sourceName": "contracts/DAO.sol",
  "abi": [
    {
      "inputs": [
        {
          "internalType": "address",
          "name": "tokenAddress",
          "type": "address"
        },
        {
          "internalType": "uint256",
          "name": "_tokenPrice",
          "type": "uint256"
        },
        {
          "internalType": "uint256",
          "name": "_tokensPerVP",
          "type": "uint256"
        },
        {
          "internalType": "uint256",
          "name": "_minStakeToVote",
          "type": "uint256"
        },
        {
          "internalType": "uint256",
          "name": "_minStakeToPropose",
          "type": "uint256"
        },
        {
          "internalType": "uint256",
          "name": "_stakingLockTime",
          "type": "uint256"
        },
        {
          "internalType": "uint256",
          "name": "_proposalDuration",
          "type": "uint256"
        }
      ],
      "stateMutability": "nonpayable",
      "type": "constructor"
    },
    {
      "inputs": [],
      "name": "AlreadyVoted",
      "type": "error"
    },
    {
      "inputs": [],
      "name": "DAOPaused",
      "type": "error"
    },
    {
      "inputs": [],
      "name": "InsufficientPayment",
      "type": "error"
    },
    {
      "inputs": [],
      "name": "InsufficientStake",
      "type": "error"
    },
    {
      "inputs": [],
      "name": "InvalidAmount",
      "type": "error"
    },
    {
      "inputs": [],
      "name": "InvalidProposal",
      "type": "error"
    },
    {
      "inputs": [],
      "name": "NoPanicWalletSet",
      "type": "error"
    },
    {
      "inputs": [],
      "name": "NotPanicWallet",
      "type": "error"
    },
    {
      "inputs": [],
      "name": "NotPaused",
      "type": "error"
    },
    {
      "inputs": [
        {
          "internalType": "address",
          "name": "owner",
          "type": "address"
        }
      ],
      "name": "OwnableInvalidOwner",
      "type": "error"
    },
    {
      "inputs": [
        {
          "internalType": "address",
          "name": "account",
          "type": "address"
        }
      ],
      "name": "OwnableUnauthorizedAccount",
      "type": "error"
    },
    {
      "inputs": [],
      "name": "ProposalNotActive",
      "type": "error"
    },
    {
      "inputs": [],
      "name": "ProposalStillActive",
      "type": "error"
    },
    {
      "inputs": [],
      "name": "ReentrancyGuardReentrantCall",
      "type": "error"
    },
    {
      "inputs": [],
      "name": "StakeLocked",
      "type": "error"
    },
    {
      "anonymous": false,
      "inputs": [
        {
          "indexed": true,
          "internalType": "address",
          "name": "previousOwner",
          "type": "address"
        },
        {
          "indexed": true,
          "internalType": "address",
          "name": "newOwner",
          "type": "address"
        }
      ],
      "name": "OwnershipTransferred",
      "type": "event"
    },
    {
      "anonymous": false,
      "inputs": [
        {
          "indexed": true,
          "internalType": "address",
          "name": "by",
          "type": "address"
        }
      ],
      "name": "PanicActivated",
      "type": "event"
    },
    {
      "anonymous": false,
      "inputs": [
        {
          "indexed": true,
          "internalType": "address",
          "name": "panicWallet",
          "type": "address"
        }
      ],
      "name": "PanicWalletSet",
      "type": "event"
    },
    {
      "anonymous": false,
      "inputs": [
        {
          "indexed": false,
          "internalType": "string",
          "name": "paramName",
          "type": "string"
        },
        {
          "indexed": false,
          "internalType": "uint256",
          "name": "newValue",
          "type": "uint256"
        }
      ],
      "name": "ParametersUpdated",
      "type": "event"
    },
    {
      "anonymous": false,
      "inputs": [
        {
          "indexed": true,
          "internalType": "uint256",
          "name": "proposalId",
          "type": "uint256"
        },
        {
          "indexed": true,
          "internalType": "address",
          "name": "proposer",
          "type": "address"
        },
        {
          "indexed": false,
          "internalType": "string",
          "name": "title",
          "type": "string"
        }
      ],
      "name": "ProposalCreated",
      "type": "event"
    },
    {
      "anonymous": false,
      "inputs": [
        {
          "indexed": true,
          "internalType": "uint256",
          "name": "proposalId",
          "type": "uint256"
        },
        {
          "indexed": false,
          "internalType": "enum DAO.ProposalStatus",
          "name": "status",
          "type": "uint8"
        }
      ],
      "name": "ProposalExecuted",
      "type": "event"
    },
    {
      "anonymous": false,
      "inputs": [
        {
          "indexed": true,
          "internalType": "address",
          "name": "user",
          "type": "address"
        },
        {
          "indexed": false,
          "internalType": "uint256",
          "name": "amount",
          "type": "uint256"
        },
        {
          "indexed": false,
          "internalType": "bool",
          "name": "forVoting",
          "type": "bool"
        }
      ],
      "name": "Staked",
      "type": "event"
    },
    {
      "anonymous": false,
      "inputs": [
        {
          "indexed": true,
          "internalType": "address",
          "name": "buyer",
          "type": "address"
        },
        {
          "indexed": false,
          "internalType": "uint256",
          "name": "amount",
          "type": "uint256"
        },
        {
          "indexed": false,
          "internalType": "uint256",
          "name": "cost",
          "type": "uint256"
        }
      ],
      "name": "TokensPurchased",
      "type": "event"
    },
    {
      "anonymous": false,
      "inputs": [
        {
          "indexed": true,
          "internalType": "address",
          "name": "by",
          "type": "address"
        }
      ],
      "name": "TranquilityRestored",
      "type": "event"
    },
    {
      "anonymous": false,
      "inputs": [
        {
          "indexed": true,
          "internalType": "address",
          "name": "user",
          "type": "address"
        },
        {
          "indexed": false,
          "internalType": "uint256",
          "name": "amount",
          "type": "uint256"
        },
        {
          "indexed": false,
          "internalType": "bool",
          "name": "fromVoting",
          "type": "bool"
        }
      ],
      "name": "Unstaked",
      "type": "event"
    },
    {
      "anonymous": false,
      "inputs": [
        {
          "indexed": true,
          "internalType": "uint256",
          "name": "proposalId",
          "type": "uint256"
        },
        {
          "indexed": true,
          "internalType": "address",
          "name": "voter",
          "type": "address"
        },
        {
          "indexed": false,
          "internalType": "bool",
          "name": "inFavor",
          "type": "bool"
        },
        {
          "indexed": false,
          "internalType": "uint256",
          "name": "votingPower",
          "type": "uint256"
        }
      ],
      "name": "Voted",
      "type": "event"
    },
    {
      "inputs": [],
      "name": "buyTokens",
      "outputs": [],
      "stateMutability": "payable",
      "type": "function"
    },
    {
      "inputs": [
        {
          "internalType": "address",
          "name": "user",
          "type": "address"
        }
      ],
      "name": "calculateVotingPower",
      "outputs": [
        {
          "internalType": "uint256",
          "name": "",
          "type": "uint256"
        }
      ],
      "stateMutability": "view",
      "type": "function"
    },
    {
      "inputs": [
        {
          "internalType": "string",
          "name": "title",
          "type": "string"
        },
        {
          "internalType": "string",
          "name": "description",
          "type": "string"
        }
      ],
      "name": "createProposal",
      "outputs": [
        {
          "internalType": "uint256",
          "name": "",
          "type": "uint256"
        }
      ],
      "stateMutability": "nonpayable",
      "type": "function"
    },
    {
      "inputs": [
        {
          "internalType": "uint256",
          "name": "proposalId",
          "type": "uint256"
        }
      ],
      "name": "finalizeProposal",
      "outputs": [],
      "stateMutability": "nonpayable",
      "type": "function"
    },
    {
      "inputs": [],
      "name": "getActiveProposals",
      "outputs": [
        {
          "internalType": "uint256[]",
          "name": "",
          "type": "uint256[]"
        }
      ],
      "stateMutability": "view",
      "type": "function"
    },
    {
      "inputs": [
        {
          "internalType": "uint256",
          "name": "proposalId",
          "type": "uint256"
        }
      ],
      "name": "getProposal",
      "outputs": [
        {
          "internalType": "string",
          "name": "title",
          "type": "string"
        },
        {
          "internalType": "string",
          "name": "description",
          "type": "string"
        },
        {
          "internalType": "address",
          "name": "proposer",
          "type": "address"
        },
        {
          "internalType": "uint256",
          "name": "createdAt",
          "type": "uint256"
        },
        {
          "internalType": "uint256",
          "name": "deadline",
          "type": "uint256"
        },
        {
          "internalType": "uint256",
          "name": "votesFor",
          "type": "uint256"
        },
        {
          "internalType": "uint256",
          "name": "votesAgainst",
          "type": "uint256"
        },
        {
          "internalType": "enum DAO.ProposalStatus",
          "name": "status",
          "type": "uint8"
        }
      ],
      "stateMutability": "view",
      "type": "function"
    },
    {
      "inputs": [
        {
          "internalType": "address",
          "name": "user",
          "type": "address"
        }
      ],
      "name": "getStakeInfo",
      "outputs": [
        {
          "components": [
            {
              "internalType": "uint256",
              "name": "amountForVoting",
              "type": "uint256"
            },
            {
              "internalType": "uint256",
              "name": "amountForProposing",
              "type": "uint256"
            },
            {
              "internalType": "uint256",
              "name": "lockedUntilVoting",
              "type": "uint256"
            },
            {
              "internalType": "uint256",
              "name": "lockedUntilProposing",
              "type": "uint256"
            }
          ],
          "internalType": "struct DAO.StakeInfo",
          "name": "",
          "type": "tuple"
        }
      ],
      "stateMutability": "view",
      "type": "function"
    },
    {
      "inputs": [
        {
          "internalType": "uint256",
          "name": "",
          "type": "uint256"
        },
        {
          "internalType": "address",
          "name": "",
          "type": "address"
        }
      ],
      "name": "hasVoted",
      "outputs": [
        {
          "internalType": "bool",
          "name": "",
          "type": "bool"
        }
      ],
      "stateMutability": "view",
      "type": "function"
    },
    {
      "inputs": [],
      "name": "isPaused",
      "outputs": [
        {
          "internalType": "bool",
          "name": "",
          "type": "bool"
        }
      ],
      "stateMutability": "view",
      "type": "function"
    },
    {
      "inputs": [],
      "name": "minStakeToPropose",
      "outputs": [
        {
          "internalType": "uint256",
          "name": "",
          "type": "uint256"
        }
      ],
      "stateMutability": "view",
      "type": "function"
    },
    {
      "inputs": [],
      "name": "minStakeToVote",
      "outputs": [
        {
          "internalType": "uint256",
          "name": "",
          "type": "uint256"
        }
      ],
      "stateMutability": "view",
      "type": "function"
    },
    {
      "inputs": [
        {
          "internalType": "address",
          "name": "to",
          "type": "address"
        },
        {
          "internalType": "uint256",
          "name": "amount",
          "type": "uint256"
        }
      ],
      "name": "mintTokens",
      "outputs": [],
      "stateMutability": "nonpayable",
      "type": "function"
    },
    {
      "inputs": [],
      "name": "owner",
      "outputs": [
        {
          "internalType": "address",
          "name": "",
          "type": "address"
        }
      ],
      "stateMutability": "view",
      "type": "function"
    },
    {
      "inputs": [],
      "name": "panic",
      "outputs": [],
      "stateMutability": "nonpayable",
      "type": "function"
    },
    {
      "inputs": [],
      "name": "panicWallet",
      "outputs": [
        {
          "internalType": "address",
          "name": "",
          "type": "address"
        }
      ],
      "stateMutability": "view",
      "type": "function"
    },
    {
      "inputs": [],
      "name": "proposalCount",
      "outputs": [
        {
          "internalType": "uint256",
          "name": "",
          "type": "uint256"
        }
      ],
      "stateMutability": "view",
      "type": "function"
    },
    {
      "inputs": [],
      "name": "proposalDuration",
      "outputs": [
        {
          "internalType": "uint256",
          "name": "",
          "type": "uint256"
        }
      ],
      "stateMutability": "view",
      "type": "function"
    },
    {
      "inputs": [
        {
          "internalType": "uint256",
          "name": "",
          "type": "uint256"
        }
      ],
      "name": "proposals",
      "outputs": [
        {
          "internalType": "string",
          "name": "title",
          "type": "string"
        },
        {
          "internalType": "string",
          "name": "description",
          "type": "string"
        },
        {
          "internalType": "address",
          "name": "proposer",
          "type": "address"
        },
        {
          "internalType": "uint256",
          "name": "createdAt",
          "type": "uint256"
        },
        {
          "internalType": "uint256",
          "name": "deadline",
          "type": "uint256"
        },
        {
          "internalType": "uint256",
          "name": "votesFor",
          "type": "uint256"
        },
        {
          "internalType": "uint256",
          "name": "votesAgainst",
          "type": "uint256"
        },
        {
          "internalType": "enum DAO.ProposalStatus",
          "name": "status",
          "type": "uint8"
        }
      ],
      "stateMutability": "view",
      "type": "function"
    },
    {
      "inputs": [],
      "name": "renounceOwnership",
      "outputs": [],
      "stateMutability": "nonpayable",
      "type": "function"
    },
    {
      "inputs": [
        {
          "internalType": "address",
          "name": "_panicWallet",
          "type": "address"
        }
      ],
      "name": "setPanicWallet",
      "outputs": [],
      "stateMutability": "nonpayable",
      "type": "function"
    },
    {
      "inputs": [
        {
          "internalType": "uint256",
          "name": "amount",
          "type": "uint256"
        }
      ],
      "name": "stakeForProposing",
      "outputs": [],
      "stateMutability": "nonpayable",
      "type": "function"
    },
    {
      "inputs": [
        {
          "internalType": "uint256",
          "name": "amount",
          "type": "uint256"
        }
      ],
      "name": "stakeForVoting",
      "outputs": [],
      "stateMutability": "nonpayable",
      "type": "function"
    },
    {
      "inputs": [
        {
          "internalType": "address",
          "name": "",
          "type": "address"
        }
      ],
      "name": "stakes",
      "outputs": [
        {
          "internalType": "uint256",
          "name": "amountForVoting",
          "type": "uint256"
        },
        {
          "internalType": "uint256",
          "name": "amountForProposing",
          "type": "uint256"
        },
        {
          "internalType": "uint256",
          "name": "lockedUntilVoting",
          "type": "uint256"
        },
        {
          "internalType": "uint256",
          "name": "lockedUntilProposing",
          "type": "uint256"
        }
      ],
      "stateMutability": "view",
      "type": "function"
    },
    {
      "inputs": [],
      "name": "stakingLockTime",
      "outputs": [
        {
          "internalType": "uint256",
          "name": "",
          "type": "uint256"
        }
      ],
      "stateMutability": "view",
      "type": "function"
    },
    {
      "inputs": [],
      "name": "token",
      "outputs": [
        {
          "internalType": "contract DAOToken",
          "name": "",
          "type": "address"
        }
      ],
      "stateMutability": "view",
      "type": "function"
    },
    {
      "inputs": [],
      "name": "tokenPrice",
      "outputs": [
        {
          "internalType": "uint256",
          "name": "",
          "type": "uint256"
        }
      ],
      "stateMutability": "view",
      "type": "function"
    },
    {
      "inputs": [],
      "name": "tokensPerVotingPower",
      "outputs": [
        {
          "internalType": "uint256",
          "name": "",
          "type": "uint256"
        }
      ],
      "stateMutability": "view",
      "type": "function"
    },
    {
      "inputs": [],
      "name": "tranquilidad",
      "outputs": [],
      "stateMutability": "nonpayable",
      "type": "function"
    },
    {
      "inputs": [
        {
          "internalType": "address",
          "name": "newOwner",
          "type": "address"
        }
      ],
      "name": "transferOwnership",
      "outputs": [],
      "stateMutability": "nonpayable",
      "type": "function"
    },
    {
      "inputs": [
        {
          "internalType": "uint256",
          "name": "amount",
          "type": "uint256"
        }
      ],
      "name": "unstakeFromProposing",
      "outputs": [],
      "stateMutability": "nonpayable",
      "type": "function"
    },
    {
      "inputs": [
        {
          "internalType": "uint256",
          "name": "amount",
          "type": "uint256"
        }
      ],
      "name": "unstakeFromVoting",
      "outputs": [],
      "stateMutability": "nonpayable",
      "type": "function"
    },
    {
      "inputs": [
        {
          "internalType": "uint256",
          "name": "newMin",
          "type": "uint256"
        }
      ],
      "name": "updateMinStakeToPropose",
      "outputs": [],
      "stateMutability": "nonpayable",
      "type": "function"
    },
    {
      "inputs": [
        {
          "internalType": "uint256",
          "name": "newMin",
          "type": "uint256"
        }
      ],
      "name": "updateMinStakeToVote",
      "outputs": [],
      "stateMutability": "nonpayable",
      "type": "function"
    },
    {
      "inputs": [
        {
          "internalType": "uint256",
          "name": "newPrice",
          "type": "uint256"
        }
      ],
      "name": "updateTokenPrice",
      "outputs": [],
      "stateMutability": "nonpayable",
      "type": "function"
    },
    {
      "inputs": [
        {
          "internalType": "uint256",
          "name": "proposalId",
          "type": "uint256"
        },
        {
          "internalType": "address",
          "name": "user",
          "type": "address"
        }
      ],
      "name": "userHasVoted",
      "outputs": [
        {
          "internalType": "bool",
          "name": "",
          "type": "bool"
        }
      ],
      "stateMutability": "view",
      "type": "function"
    },
    {
      "inputs": [
        {
          "internalType": "uint256",
          "name": "proposalId",
          "type": "uint256"
        },
        {
          "internalType": "bool",
          "name": "inFavor",
          "type": "bool"
        }
      ],
      "name": "vote",
      "outputs": [],
      "stateMutability": "nonpayable",
      "type": "function"
    },
    {
      "inputs": [
        {
          "internalType": "uint256",
          "name": "",
          "type": "uint256"
        },
        {
          "internalType": "address",
          "name": "",
          "type": "address"
        }
      ],
      "name": "voteChoice",
      "outputs": [
        {
          "internalType": "bool",
          "name": "",
          "type": "bool"
        }
      ],
      "stateMutability": "view",
      "type": "function"
    },
    {
      "stateMutability": "payable",
      "type": "receive"
    }
  ],
  "bytecode": "0x60806040523480156200001157600080fd5b50604051620042c7380380620042c78339818101604052810190620000379190620002c2565b33600073ffffffffffffffffffffffffffffffffffffffff168173ffffffffffffffffffffffffffffffffffffffff1603620000ad5760006040517f1e4fbdf7000000000000000000000000000000000000000000000000000000008152600401620000a4919062000386565b60405180910390fd5b620000be816200015960201b60201c565b506001808190555086600260006101000a81548173ffffffffffffffffffffffffffffffffffffffff021916908373ffffffffffffffffffffffffffffffffffffffff1602179055508560048190555084600581905550836006819055508260078190555081600881905550806009819055506001600360146101000a81548160ff02191690831515021790555050505050505050620003a3565b60008060009054906101000a900473ffffffffffffffffffffffffffffffffffffffff169050816000806101000a81548173ffffffffffffffffffffffffffffffffffffffff021916908373ffffffffffffffffffffffffffffffffffffffff1602179055508173ffffffffffffffffffffffffffffffffffffffff168173ffffffffffffffffffffffffffffffffffffffff167f8be0079c531659141344cd1fd0a4f28419497f9722a3daafe3b4186f6b6457e060405160405180910390a35050565b600080fd5b600073ffffffffffffffffffffffffffffffffffffffff82169050919050565b60006200024f8262000222565b9050919050565b620002618162000242565b81146200026d57600080fd5b50565b600081519050620002818162000256565b92915050565b6000819050919050565b6200029c8162000287565b8114620002a857600080fd5b50565b600081519050620002bc8162000291565b92915050565b600080600080600080600060e0888a031215620002e457620002e36200021d565b5b6000620002f48a828b0162000270565b9750506020620003078a828b01620002ab565b96505060406200031a8a828b01620002ab565b95505060606200032d8a828b01620002ab565b9450506080620003408a828b01620002ab565b93505060a0620003538a828b01620002ab565b92505060c0620003668a828b01620002ab565b91505092959891949750929550565b620003808162000242565b82525050565b60006020820190506200039d600083018462000375565b92915050565b613f1480620003b36000396000f3fe60806040526004361061021e5760003560e01c80637ff9b59611610123578063c9d27afe116100ab578063dc53a7091161006f578063dc53a709146107ba578063f0dda65c146107e5578063f2fde38b1461080e578063fb46885514610837578063fc0c546a1461087457610225565b8063c9d27afe1461070a578063cbd38f4214610733578063d0febe4c1461075c578063d1b85b4914610766578063da35c6641461078f57610225565b8063a028699e116100f2578063a028699e1461060a578063ad3bcade14610633578063b187bd261461065e578063c345315314610689578063c7f758a8146106c657610225565b80637ff9b596146105745780638da5cb5b1461059f57806392bfcb3a146105ca57806397761382146105f357610225565b80635584c4f9116101a657806365e481e21161017557806365e481e2146104a1578063676c0d77146104de5780636ee7ee5514610507578063715018a61461053257806373c0b5cb1461054957610225565b80635584c4f9146103d35780635652077c146103fe57806359d177e6146104275780635fc48d7e1461046457610225565b806330109962116101ed57806330109962146103025780634091e8f01461032d57806343859632146103565780634700d30514610393578063542ffa7b146103aa57610225565b8063013cf08b1461022a5780630627d4251461026e57806316934fc4146102975780631d408d1e146102d757610225565b3661022557005b600080fd5b34801561023657600080fd5b50610251600480360381019061024c9190612cd1565b61089f565b604051610265989796959493929190612e55565b60405180910390f35b34801561027a57600080fd5b5061029560048036038101906102909190612cd1565b610a24565b005b3480156102a357600080fd5b506102be60048036038101906102b99190612f0d565b610c4d565b6040516102ce9493929190612f3a565b60405180910390f35b3480156102e357600080fd5b506102ec610c7d565b6040516102f99190612f7f565b60405180910390f35b34801561030e57600080fd5b50610317610c83565b6040516103249190612f7f565b60405180910390f35b34801561033957600080fd5b50610354600480360381019061034f9190612f0d565b610c89565b005b34801561036257600080fd5b5061037d60048036038101906103789190612f9a565b610da2565b60405161038a9190612ff5565b60405180910390f35b34801561039f57600080fd5b506103a8610dd1565b005b3480156103b657600080fd5b506103d160048036038101906103cc9190612cd1565b610eb8565b005b3480156103df57600080fd5b506103e86110e1565b6040516103f591906130ce565b60405180910390f35b34801561040a57600080fd5b5061042560048036038101906104209190612cd1565b611293565b005b34801561043357600080fd5b5061044e60048036038101906104499190612f0d565b611451565b60405161045b9190612f7f565b60405180910390f35b34801561047057600080fd5b5061048b60048036038101906104869190612f9a565b6114af565b6040516104989190612ff5565b60405180910390f35b3480156104ad57600080fd5b506104c860048036038101906104c39190613225565b611517565b6040516104d59190612f7f565b60405180910390f35b3480156104ea57600080fd5b5061050560048036038101906105009190612cd1565b611735565b005b34801561051357600080fd5b5061051c61177e565b6040516105299190612f7f565b60405180910390f35b34801561053e57600080fd5b50610547611784565b005b34801561055557600080fd5b5061055e611798565b60405161056b9190612f7f565b60405180910390f35b34801561058057600080fd5b5061058961179e565b6040516105969190612f7f565b60405180910390f35b3480156105ab57600080fd5b506105b46117a4565b6040516105c1919061329d565b60405180910390f35b3480156105d657600080fd5b506105f160048036038101906105ec9190612cd1565b6117cd565b005b3480156105ff57600080fd5b50610608611816565b005b34801561061657600080fd5b50610631600480360381019061062c9190612cd1565b611943565b005b34801561063f57600080fd5b50610648611bf6565b604051610655919061329d565b60405180910390f35b34801561066a57600080fd5b50610673611c1c565b6040516106809190612ff5565b60405180910390f35b34801561069557600080fd5b506106b060048036038101906106ab9190612f0d565b611c2f565b6040516106bd919061330d565b60405180910390f35b3480156106d257600080fd5b506106ed60048036038101906106e89190612cd1565b611cb0565b604051610701989796959493929190612e55565b60405180910390f35b34801561071657600080fd5b50610731600480360381019061072c9190613354565b611e5a565b005b34801561073f57600080fd5b5061075a60048036038101906107559190612cd1565b612208565b005b610764612251565b005b34801561077257600080fd5b5061078d60048036038101906107889190612cd1565b61259f565b005b34801561079b57600080fd5b506107a4612852565b6040516107b19190612f7f565b60405180910390f35b3480156107c657600080fd5b506107cf612858565b6040516107dc9190612f7f565b60405180910390f35b3480156107f157600080fd5b5061080c60048036038101906108079190613394565b61285e565b005b34801561081a57600080fd5b5061083560048036038101906108309190612f0d565b6129e2565b005b34801561084357600080fd5b5061085e60048036038101906108599190612f9a565b612a68565b60405161086b9190612ff5565b60405180910390f35b34801561088057600080fd5b50610889612a97565b6040516108969190613433565b60405180910390f35b600b6020528060005260406000206000915090508060000180546108c29061347d565b80601f01602080910402602001604051908101604052809291908181526020018280546108ee9061347d565b801561093b5780601f106109105761010080835404028352916020019161093b565b820191906000526020600020905b81548152906001019060200180831161091e57829003601f168201915b5050505050908060010180546109509061347d565b80601f016020809104026020016040519081016040528092919081815260200182805461097c9061347d565b80156109c95780601f1061099e576101008083540402835291602001916109c9565b820191906000526020600020905b8154815290600101906020018083116109ac57829003601f168201915b5050505050908060020160009054906101000a900473ffffffffffffffffffffffffffffffffffffffff16908060030154908060040154908060050154908060060154908060070160009054906101000a900460ff16905088565b610a2c612abd565b6000600a60003373ffffffffffffffffffffffffffffffffffffffff1673ffffffffffffffffffffffffffffffffffffffff16815260200190815260200160002090506000821480610a815750806001015482115b15610ab8576040517f2c5211c600000000000000000000000000000000000000000000000000000000815260040160405180910390fd5b8060030154421015610af6576040517f14d10a0200000000000000000000000000000000000000000000000000000000815260040160405180910390fd5b81816001016000828254610b0a91906134dd565b92505081905550600260009054906101000a900473ffffffffffffffffffffffffffffffffffffffff1673ffffffffffffffffffffffffffffffffffffffff1663a9059cbb33846040518363ffffffff1660e01b8152600401610b6e929190613511565b6020604051808303816000875af1158015610b8d573d6000803e3d6000fd5b505050506040513d601f19601f82011682018060405250810190610bb1919061354f565b610bf0576040517f08c379a0000000000000000000000000000000000000000000000000000000008152600401610be7906135c8565b60405180910390fd5b3373ffffffffffffffffffffffffffffffffffffffff167f4416ca74b4c9dd8d6070d91c267a6cf53734c0f343ced0ad02471ccb5417037e836000604051610c399291906135e8565b60405180910390a250610c4a612b03565b50565b600a6020528060005260406000206000915090508060000154908060010154908060020154908060030154905084565b60065481565b60095481565b610c91612b0c565b600073ffffffffffffffffffffffffffffffffffffffff168173ffffffffffffffffffffffffffffffffffffffff1603610d00576040517f08c379a0000000000000000000000000000000000000000000000000000000008152600401610cf79061365d565b60405180910390fd5b80600360006101000a81548173ffffffffffffffffffffffffffffffffffffffff021916908373ffffffffffffffffffffffffffffffffffffffff1602179055506000600360146101000a81548160ff0219169083151502179055508073ffffffffffffffffffffffffffffffffffffffff167fa02db7c9680f52f923cc3a7d1cf764d4dac0a32c7439c70b46ecdc5daa6e2ebe60405160405180910390a250565b600c6020528160005260406000206020528060005260406000206000915091509054906101000a900460ff1681565b600360009054906101000a900473ffffffffffffffffffffffffffffffffffffffff1673ffffffffffffffffffffffffffffffffffffffff163373ffffffffffffffffffffffffffffffffffffffff1614610e58576040517fb9e5ac5f00000000000000000000000000000000000000000000000000000000815260040160405180910390fd5b6001600360146101000a81548160ff0219169083151502179055503373ffffffffffffffffffffffffffffffffffffffff167f0b907d122e4db865e49bc04c7f1e84a1ae29e024ee225bc08c69104520c5f3f960405160405180910390a2565b610ec0612abd565b6000600a60003373ffffffffffffffffffffffffffffffffffffffff1673ffffffffffffffffffffffffffffffffffffffff16815260200190815260200160002090506000821480610f155750806000015482115b15610f4c576040517f2c5211c600000000000000000000000000000000000000000000000000000000815260040160405180910390fd5b8060020154421015610f8a576040517f14d10a0200000000000000000000000000000000000000000000000000000000815260040160405180910390fd5b81816000016000828254610f9e91906134dd565b92505081905550600260009054906101000a900473ffffffffffffffffffffffffffffffffffffffff1673ffffffffffffffffffffffffffffffffffffffff1663a9059cbb33846040518363ffffffff1660e01b8152600401611002929190613511565b6020604051808303816000875af1158015611021573d6000803e3d6000fd5b505050506040513d601f19601f82011682018060405250810190611045919061354f565b611084576040517f08c379a000000000000000000000000000000000000000000000000000000000815260040161107b906135c8565b60405180910390fd5b3373ffffffffffffffffffffffffffffffffffffffff167f4416ca74b4c9dd8d6070d91c267a6cf53734c0f343ced0ad02471ccb5417037e8360016040516110cd9291906135e8565b60405180910390a2506110de612b03565b50565b60606000805b600e5481101561117f576000600281111561110557611104612dde565b5b600b600083815260200190815260200160002060070160009054906101000a900460ff16600281111561113b5761113a612dde565b5b14801561115e5750600b6000828152602001908152602001600020600401544211155b1561117257818061116e9061367d565b9250505b80806001019150506110e7565b5060008167ffffffffffffffff81111561119c5761119b6130fa565b5b6040519080825280602002602001820160405280156111ca5781602001602082028036833780820191505090505b5090506000805b600e5481101561128957600060028111156111ef576111ee612dde565b5b600b600083815260200190815260200160002060070160009054906101000a900460ff16600281111561122557611224612dde565b5b1480156112485750600b6000828152602001908152602001600020600401544211155b1561127c5780838381518110611261576112606136c5565b5b60200260200101818152505081806112789061367d565b9250505b80806001019150506111d1565b5081935050505090565b6000600b6000838152602001908152602001600020905060008160030154036112e8576040517fee03280800000000000000000000000000000000000000000000000000000000815260040160405180910390fd5b600060028111156112fc576112fb612dde565b5b8160070160009054906101000a900460ff1660028111156113205761131f612dde565b5b14611357576040517f7becc13f00000000000000000000000000000000000000000000000000000000815260040160405180910390fd5b80600401544211611394576040517f7362802800000000000000000000000000000000000000000000000000000000815260040160405180910390fd5b8060060154816005015411156113d65760018160070160006101000a81548160ff021916908360028111156113cc576113cb612dde565b5b0217905550611404565b60028160070160006101000a81548160ff021916908360028111156113fe576113fd612dde565b5b02179055505b817f5b9614f21773d68c0b149bda804ff3d491c8bc8795f7ed236cc97804cd0053898260070160009054906101000a900460ff1660405161144591906136f4565b60405180910390a25050565b600080600a60008473ffffffffffffffffffffffffffffffffffffffff1673ffffffffffffffffffffffffffffffffffffffff168152602001908152602001600020600001549050600554816114a7919061373e565b915050919050565b6000600c600084815260200190815260200160002060008373ffffffffffffffffffffffffffffffffffffffff1673ffffffffffffffffffffffffffffffffffffffff16815260200190815260200160002060009054906101000a900460ff16905092915050565b6000600360149054906101000a900460ff1615611560576040517fb5784fa500000000000000000000000000000000000000000000000000000000815260040160405180910390fd5b600754600a60003373ffffffffffffffffffffffffffffffffffffffff1673ffffffffffffffffffffffffffffffffffffffff1681526020019081526020016000206001015410156115de576040517ff1bc94d200000000000000000000000000000000000000000000000000000000815260040160405180910390fd5b6000600e549050600e60008154809291906115f89061367d565b91905055506000600b60008381526020019081526020016000209050848160000190816116259190613911565b50838160010190816116379190613911565b50338160020160006101000a81548173ffffffffffffffffffffffffffffffffffffffff021916908373ffffffffffffffffffffffffffffffffffffffff1602179055504281600301819055506009544261169291906139e3565b8160040181905550600081600501819055506000816006018190555060008160070160006101000a81548160ff021916908360028111156116d6576116d5612dde565b5b02179055503373ffffffffffffffffffffffffffffffffffffffff16827f7585f467599d0f008985f231af99293be388626ac16ca59505c2f8f88969cd63876040516117229190613a17565b60405180910390a3819250505092915050565b61173d612b0c565b806004819055507f952177133a28eea5034c93c6c70c1a8d223da94faaa45da8412c3c791111137f816040516117739190613a85565b60405180910390a150565b60085481565b61178c612b0c565b6117966000612b93565b565b60075481565b60045481565b60008060009054906101000a900473ffffffffffffffffffffffffffffffffffffffff16905090565b6117d5612b0c565b806006819055507f952177133a28eea5034c93c6c70c1a8d223da94faaa45da8412c3c791111137f8160405161180b9190613aff565b60405180910390a150565b600360009054906101000a900473ffffffffffffffffffffffffffffffffffffffff1673ffffffffffffffffffffffffffffffffffffffff163373ffffffffffffffffffffffffffffffffffffffff161461189d576040517fb9e5ac5f00000000000000000000000000000000000000000000000000000000815260040160405180910390fd5b600360149054906101000a900460ff166118e3576040517f6cd6020100000000000000000000000000000000000000000000000000000000815260040160405180910390fd5b6000600360146101000a81548160ff0219169083151502179055503373ffffffffffffffffffffffffffffffffffffffff167fa2e764bd6010df61a2c087e90137317fdd752e4f6e3804ca8df0d6ed16f3014960405160405180910390a2565b600360149054906101000a900460ff161561198a576040517fb5784fa500000000000000000000000000000000000000000000000000000000815260040160405180910390fd5b600073ffffffffffffffffffffffffffffffffffffffff16600360009054906101000a900473ffffffffffffffffffffffffffffffffffffffff1673ffffffffffffffffffffffffffffffffffffffff1603611a12576040517fce256ac000000000000000000000000000000000000000000000000000000000815260040160405180910390fd5b60008103611a4c576040517f2c5211c600000000000000000000000000000000000000000000000000000000815260040160405180910390fd5b600260009054906101000a900473ffffffffffffffffffffffffffffffffffffffff1673ffffffffffffffffffffffffffffffffffffffff166323b872dd3330846040518463ffffffff1660e01b8152600401611aab93929190613b2d565b6020604051808303816000875af1158015611aca573d6000803e3d6000fd5b505050506040513d601f19601f82011682018060405250810190611aee919061354f565b611b2d576040517f08c379a0000000000000000000000000000000000000000000000000000000008152600401611b24906135c8565b60405180910390fd5b6000600a60003373ffffffffffffffffffffffffffffffffffffffff1673ffffffffffffffffffffffffffffffffffffffff168152602001908152602001600020905081816001016000828254611b8491906139e3565b9250508190555060085442611b9991906139e3565b81600301819055503373ffffffffffffffffffffffffffffffffffffffff167f37d4053e34fde482e96f6bcd424dfa31342cbd5fe184d497fb3c8bb4b4b97580836000604051611bea9291906135e8565b60405180910390a25050565b600360009054906101000a900473ffffffffffffffffffffffffffffffffffffffff1681565b600360149054906101000a900460ff1681565b611c37612c5f565b600a60008373ffffffffffffffffffffffffffffffffffffffff1673ffffffffffffffffffffffffffffffffffffffff1681526020019081526020016000206040518060800160405290816000820154815260200160018201548152602001600282015481526020016003820154815250509050919050565b6060806000806000806000806000600b60008b8152602001908152602001600020905080600001816001018260020160009054906101000a900473ffffffffffffffffffffffffffffffffffffffff1683600301548460040154856005015486600601548760070160009054906101000a900460ff16878054611d329061347d565b80601f0160208091040260200160405190810160405280929190818152602001828054611d5e9061347d565b8015611dab5780601f10611d8057610100808354040283529160200191611dab565b820191906000526020600020905b815481529060010190602001808311611d8e57829003601f168201915b50505050509750868054611dbe9061347d565b80601f0160208091040260200160405190810160405280929190818152602001828054611dea9061347d565b8015611e375780601f10611e0c57610100808354040283529160200191611e37565b820191906000526020600020905b815481529060010190602001808311611e1a57829003601f168201915b505050505096509850985098509850985098509850985050919395975091939597565b600360149054906101000a900460ff1615611ea1576040517fb5784fa500000000000000000000000000000000000000000000000000000000815260040160405180910390fd5b6000600b600084815260200190815260200160002090506000816003015403611ef6576040517fee03280800000000000000000000000000000000000000000000000000000000815260040160405180910390fd5b60006002811115611f0a57611f09612dde565b5b8160070160009054906101000a900460ff166002811115611f2e57611f2d612dde565b5b14611f65576040517f7becc13f00000000000000000000000000000000000000000000000000000000815260040160405180910390fd5b8060040154421115611fa3576040517f7becc13f00000000000000000000000000000000000000000000000000000000815260040160405180910390fd5b600654600a60003373ffffffffffffffffffffffffffffffffffffffff1673ffffffffffffffffffffffffffffffffffffffff168152602001908152602001600020600001541015612021576040517ff1bc94d200000000000000000000000000000000000000000000000000000000815260040160405180910390fd5b600c600084815260200190815260200160002060003373ffffffffffffffffffffffffffffffffffffffff1673ffffffffffffffffffffffffffffffffffffffff16815260200190815260200160002060009054906101000a900460ff16156120b6576040517f7c9a1cf900000000000000000000000000000000000000000000000000000000815260040160405180910390fd5b60006120c133611451565b905060008111612106576040517f08c379a00000000000000000000000000000000000000000000000000000000081526004016120fd90613bb0565b60405180910390fd5b6001600c600086815260200190815260200160002060003373ffffffffffffffffffffffffffffffffffffffff1673ffffffffffffffffffffffffffffffffffffffff16815260200190815260200160002060006101000a81548160ff0219169083151502179055508215612195578082600501600082825461218991906139e3565b925050819055506121b1565b808260060160008282546121a991906139e3565b925050819055505b3373ffffffffffffffffffffffffffffffffffffffff16847f7c2de587c00d75474a0c6c6fa96fd3b45dc974cd4e8a75f712bb84c950dce1b585846040516121fa929190613bd0565b60405180910390a350505050565b612210612b0c565b806007819055507f952177133a28eea5034c93c6c70c1a8d223da94faaa45da8412c3c791111137f816040516122469190613c45565b60405180910390a150565b600360149054906101000a900460ff1615612298576040517fb5784fa500000000000000000000000000000000000000000000000000000000815260040160405180910390fd5b600073ffffffffffffffffffffffffffffffffffffffff16600360009054906101000a900473ffffffffffffffffffffffffffffffffffffffff1673ffffffffffffffffffffffffffffffffffffffff1603612320576040517fce256ac000000000000000000000000000000000000000000000000000000000815260040160405180910390fd5b612328612abd565b60003403612362576040517f2c5211c600000000000000000000000000000000000000000000000000000000815260040160405180910390fd5b6000600454670de0b6b3a76400003461237b9190613c73565b612385919061373e565b905080600260009054906101000a900473ffffffffffffffffffffffffffffffffffffffff1673ffffffffffffffffffffffffffffffffffffffff166370a08231306040518263ffffffff1660e01b81526004016123e3919061329d565b602060405180830381865afa158015612400573d6000803e3d6000fd5b505050506040513d601f19601f820116820180604052508101906124249190613cca565b1015612465576040517f08c379a000000000000000000000000000000000000000000000000000000000815260040161245c90613d43565b60405180910390fd5b600260009054906101000a900473ffffffffffffffffffffffffffffffffffffffff1673ffffffffffffffffffffffffffffffffffffffff1663a9059cbb33836040518363ffffffff1660e01b81526004016124c2929190613511565b6020604051808303816000875af11580156124e1573d6000803e3d6000fd5b505050506040513d601f19601f82011682018060405250810190612505919061354f565b612544576040517f08c379a000000000000000000000000000000000000000000000000000000000815260040161253b906135c8565b60405180910390fd5b3373ffffffffffffffffffffffffffffffffffffffff167f8fafebcaf9d154343dad25669bfa277f4fbacd7ac6b0c4fed522580e040a0f33823460405161258c929190613d63565b60405180910390a25061259d612b03565b565b600360149054906101000a900460ff16156125e6576040517fb5784fa500000000000000000000000000000000000000000000000000000000815260040160405180910390fd5b600073ffffffffffffffffffffffffffffffffffffffff16600360009054906101000a900473ffffffffffffffffffffffffffffffffffffffff1673ffffffffffffffffffffffffffffffffffffffff160361266e576040517fce256ac000000000000000000000000000000000000000000000000000000000815260040160405180910390fd5b600081036126a8576040517f2c5211c600000000000000000000000000000000000000000000000000000000815260040160405180910390fd5b600260009054906101000a900473ffffffffffffffffffffffffffffffffffffffff1673ffffffffffffffffffffffffffffffffffffffff166323b872dd3330846040518463ffffffff1660e01b815260040161270793929190613b2d565b6020604051808303816000875af1158015612726573d6000803e3d6000fd5b505050506040513d601f19601f8201168201806040525081019061274a919061354f565b612789576040517f08c379a0000000000000000000000000000000000000000000000000000000008152600401612780906135c8565b60405180910390fd5b6000600a60003373ffffffffffffffffffffffffffffffffffffffff1673ffffffffffffffffffffffffffffffffffffffff1681526020019081526020016000209050818160000160008282546127e091906139e3565b92505081905550600854426127f591906139e3565b81600201819055503373ffffffffffffffffffffffffffffffffffffffff167f37d4053e34fde482e96f6bcd424dfa31342cbd5fe184d497fb3c8bb4b4b975808360016040516128469291906135e8565b60405180910390a25050565b600e5481565b60055481565b612866612b0c565b600073ffffffffffffffffffffffffffffffffffffffff168273ffffffffffffffffffffffffffffffffffffffff16036128d5576040517f08c379a00000000000000000000000000000000000000000000000000000000081526004016128cc90613dd8565b60405180910390fd5b60008111612918576040517f08c379a000000000000000000000000000000000000000000000000000000000815260040161290f90613e44565b60405180910390fd5b600260009054906101000a900473ffffffffffffffffffffffffffffffffffffffff1673ffffffffffffffffffffffffffffffffffffffff166340c10f1983836040518363ffffffff1660e01b8152600401612975929190613511565b600060405180830381600087803b15801561298f57600080fd5b505af11580156129a3573d6000803e3d6000fd5b505050507f952177133a28eea5034c93c6c70c1a8d223da94faaa45da8412c3c791111137f816040516129d69190613eb0565b60405180910390a15050565b6129ea612b0c565b600073ffffffffffffffffffffffffffffffffffffffff168173ffffffffffffffffffffffffffffffffffffffff1603612a5c5760006040517f1e4fbdf7000000000000000000000000000000000000000000000000000000008152600401612a53919061329d565b60405180910390fd5b612a6581612b93565b50565b600d6020528160005260406000206020528060005260406000206000915091509054906101000a900460ff1681565b600260009054906101000a900473ffffffffffffffffffffffffffffffffffffffff1681565b600260015403612af9576040517f3ee5aeb500000000000000000000000000000000000000000000000000000000815260040160405180910390fd5b6002600181905550565b60018081905550565b612b14612c57565b73ffffffffffffffffffffffffffffffffffffffff16612b326117a4565b73ffffffffffffffffffffffffffffffffffffffff1614612b9157612b55612c57565b6040517f118cdaa7000000000000000000000000000000000000000000000000000000008152600401612b88919061329d565b60405180910390fd5b565b60008060009054906101000a900473ffffffffffffffffffffffffffffffffffffffff169050816000806101000a81548173ffffffffffffffffffffffffffffffffffffffff021916908373ffffffffffffffffffffffffffffffffffffffff1602179055508173ffffffffffffffffffffffffffffffffffffffff168173ffffffffffffffffffffffffffffffffffffffff167f8be0079c531659141344cd1fd0a4f28419497f9722a3daafe3b4186f6b6457e060405160405180910390a35050565b600033905090565b6040518060800160405280600081526020016000815260200160008152602001600081525090565b6000604051905090565b600080fd5b600080fd5b6000819050919050565b612cae81612c9b565b8114612cb957600080fd5b50565b600081359050612ccb81612ca5565b92915050565b600060208284031215612ce757612ce6612c91565b5b6000612cf584828501612cbc565b91505092915050565b600081519050919050565b600082825260208201905092915050565b60005b83811015612d38578082015181840152602081019050612d1d565b60008484015250505050565b6000601f19601f8301169050919050565b6000612d6082612cfe565b612d6a8185612d09565b9350612d7a818560208601612d1a565b612d8381612d44565b840191505092915050565b600073ffffffffffffffffffffffffffffffffffffffff82169050919050565b6000612db982612d8e565b9050919050565b612dc981612dae565b82525050565b612dd881612c9b565b82525050565b7f4e487b7100000000000000000000000000000000000000000000000000000000600052602160045260246000fd5b60038110612e1e57612e1d612dde565b5b50565b6000819050612e2f82612e0d565b919050565b6000612e3f82612e21565b9050919050565b612e4f81612e34565b82525050565b6000610100820190508181036000830152612e70818b612d55565b90508181036020830152612e84818a612d55565b9050612e936040830189612dc0565b612ea06060830188612dcf565b612ead6080830187612dcf565b612eba60a0830186612dcf565b612ec760c0830185612dcf565b612ed460e0830184612e46565b9998505050505050505050565b612eea81612dae565b8114612ef557600080fd5b50565b600081359050612f0781612ee1565b92915050565b600060208284031215612f2357612f22612c91565b5b6000612f3184828501612ef8565b91505092915050565b6000608082019050612f4f6000830187612dcf565b612f5c6020830186612dcf565b612f696040830185612dcf565b612f766060830184612dcf565b95945050505050565b6000602082019050612f946000830184612dcf565b92915050565b60008060408385031215612fb157612fb0612c91565b5b6000612fbf85828601612cbc565b9250506020612fd085828601612ef8565b9150509250929050565b60008115159050919050565b612fef81612fda565b82525050565b600060208201905061300a6000830184612fe6565b92915050565b600081519050919050565b600082825260208201905092915050565b6000819050602082019050919050565b61304581612c9b565b82525050565b6000613057838361303c565b60208301905092915050565b6000602082019050919050565b600061307b82613010565b613085818561301b565b93506130908361302c565b8060005b838110156130c15781516130a8888261304b565b97506130b383613063565b925050600181019050613094565b5085935050505092915050565b600060208201905081810360008301526130e88184613070565b905092915050565b600080fd5b600080fd5b7f4e487b7100000000000000000000000000000000000000000000000000000000600052604160045260246000fd5b61313282612d44565b810181811067ffffffffffffffff82111715613151576131506130fa565b5b80604052505050565b6000613164612c87565b90506131708282613129565b919050565b600067ffffffffffffffff8211156131905761318f6130fa565b5b61319982612d44565b9050602081019050919050565b82818337600083830152505050565b60006131c86131c384613175565b61315a565b9050828152602081018484840111156131e4576131e36130f5565b5b6131ef8482856131a6565b509392505050565b600082601f83011261320c5761320b6130f0565b5b813561321c8482602086016131b5565b91505092915050565b6000806040838503121561323c5761323b612c91565b5b600083013567ffffffffffffffff81111561325a57613259612c96565b5b613266858286016131f7565b925050602083013567ffffffffffffffff81111561328757613286612c96565b5b613293858286016131f7565b9150509250929050565b60006020820190506132b26000830184612dc0565b92915050565b6080820160008201516132ce600085018261303c565b5060208201516132e1602085018261303c565b5060408201516132f4604085018261303c565b506060820151613307606085018261303c565b50505050565b600060808201905061332260008301846132b8565b92915050565b61333181612fda565b811461333c57600080fd5b50565b60008135905061334e81613328565b92915050565b6000806040838503121561336b5761336a612c91565b5b600061337985828601612cbc565b925050602061338a8582860161333f565b9150509250929050565b600080604083850312156133ab576133aa612c91565b5b60006133b985828601612ef8565b92505060206133ca85828601612cbc565b9150509250929050565b6000819050919050565b60006133f96133f46133ef84612d8e565b6133d4565b612d8e565b9050919050565b600061340b826133de565b9050919050565b600061341d82613400565b9050919050565b61342d81613412565b82525050565b60006020820190506134486000830184613424565b92915050565b7f4e487b7100000000000000000000000000000000000000000000000000000000600052602260045260246000fd5b6000600282049050600182168061349557607f821691505b6020821081036134a8576134a761344e565b5b50919050565b7f4e487b7100000000000000000000000000000000000000000000000000000000600052601160045260246000fd5b60006134e882612c9b565b91506134f383612c9b565b925082820390508181111561350b5761350a6134ae565b5b92915050565b60006040820190506135266000830185612dc0565b6135336020830184612dcf565b9392505050565b60008151905061354981613328565b92915050565b60006020828403121561356557613564612c91565b5b60006135738482850161353a565b91505092915050565b7f5472616e73666572206661696c65640000000000000000000000000000000000600082015250565b60006135b2600f83612d09565b91506135bd8261357c565b602082019050919050565b600060208201905081810360008301526135e1816135a5565b9050919050565b60006040820190506135fd6000830185612dcf565b61360a6020830184612fe6565b9392505050565b7f496e76616c69642070616e69632077616c6c6574000000000000000000000000600082015250565b6000613647601483612d09565b915061365282613611565b602082019050919050565b600060208201905081810360008301526136768161363a565b9050919050565b600061368882612c9b565b91507fffffffffffffffffffffffffffffffffffffffffffffffffffffffffffffffff82036136ba576136b96134ae565b5b600182019050919050565b7f4e487b7100000000000000000000000000000000000000000000000000000000600052603260045260246000fd5b60006020820190506137096000830184612e46565b92915050565b7f4e487b7100000000000000000000000000000000000000000000000000000000600052601260045260246000fd5b600061374982612c9b565b915061375483612c9b565b9250826137645761376361370f565b5b828204905092915050565b60008190508160005260206000209050919050565b60006020601f8301049050919050565b600082821b905092915050565b6000600883026137d17fffffffffffffffffffffffffffffffffffffffffffffffffffffffffffffffff82613794565b6137db8683613794565b95508019841693508086168417925050509392505050565b600061380e61380961380484612c9b565b6133d4565b612c9b565b9050919050565b6000819050919050565b613828836137f3565b61383c61383482613815565b8484546137a1565b825550505050565b600090565b613851613844565b61385c81848461381f565b505050565b5b8181101561388057613875600082613849565b600181019050613862565b5050565b601f8211156138c5576138968161376f565b61389f84613784565b810160208510156138ae578190505b6138c26138ba85613784565b830182613861565b50505b505050565b600082821c905092915050565b60006138e8600019846008026138ca565b1980831691505092915050565b600061390183836138d7565b9150826002028217905092915050565b61391a82612cfe565b67ffffffffffffffff811115613933576139326130fa565b5b61393d825461347d565b613948828285613884565b600060209050601f83116001811461397b5760008415613969578287015190505b61397385826138f5565b8655506139db565b601f1984166139898661376f565b60005b828110156139b15784890151825560018201915060208501945060208101905061398c565b868310156139ce57848901516139ca601f8916826138d7565b8355505b6001600288020188555050505b505050505050565b60006139ee82612c9b565b91506139f983612c9b565b9250828201905080821115613a1157613a106134ae565b5b92915050565b60006020820190508181036000830152613a318184612d55565b905092915050565b7f746f6b656e507269636500000000000000000000000000000000000000000000600082015250565b6000613a6f600a83612d09565b9150613a7a82613a39565b602082019050919050565b60006040820190508181036000830152613a9e81613a62565b9050613aad6020830184612dcf565b92915050565b7f6d696e5374616b65546f566f7465000000000000000000000000000000000000600082015250565b6000613ae9600e83612d09565b9150613af482613ab3565b602082019050919050565b60006040820190508181036000830152613b1881613adc565b9050613b276020830184612dcf565b92915050565b6000606082019050613b426000830186612dc0565b613b4f6020830185612dc0565b613b5c6040830184612dcf565b949350505050565b7f4e6f20766f74696e6720706f7765720000000000000000000000000000000000600082015250565b6000613b9a600f83612d09565b9150613ba582613b64565b602082019050919050565b60006020820190508181036000830152613bc981613b8d565b9050919050565b6000604082019050613be56000830185612fe6565b613bf26020830184612dcf565b9392505050565b7f6d696e5374616b65546f50726f706f7365000000000000000000000000000000600082015250565b6000613c2f601183612d09565b9150613c3a82613bf9565b602082019050919050565b60006040820190508181036000830152613c5e81613c22565b9050613c6d6020830184612dcf565b92915050565b6000613c7e82612c9b565b9150613c8983612c9b565b9250828202613c9781612c9b565b91508282048414831517613cae57613cad6134ae565b5b5092915050565b600081519050613cc481612ca5565b92915050565b600060208284031215613ce057613cdf612c91565b5b6000613cee84828501613cb5565b91505092915050565b7f496e73756666696369656e7420746f6b656e7320696e2044414f000000000000600082015250565b6000613d2d601a83612d09565b9150613d3882613cf7565b602082019050919050565b60006020820190508181036000830152613d5c81613d20565b9050919050565b6000604082019050613d786000830185612dcf565b613d856020830184612dcf565b9392505050565b7f496e76616c696420616464726573730000000000000000000000000000000000600082015250565b6000613dc2600f83612d09565b9150613dcd82613d8c565b602082019050919050565b60006020820190508181036000830152613df181613db5565b9050919050565b7f416d6f756e74206d7573742062652067726561746572207468616e2030000000600082015250565b6000613e2e601d83612d09565b9150613e3982613df8565b602082019050919050565b60006020820190508181036000830152613e5d81613e21565b9050919050565b7f746f6b656e734d696e7465640000000000000000000000000000000000000000600082015250565b6000613e9a600c83612d09565b9150613ea582613e64565b602082019050919050565b60006040820190508181036000830152613ec981613e8d565b9050613ed86020830184612dcf565b9291505056fea2646970667358221220672e209d858cc21e473d5bfb7dbe3b8a9ce9435553fcec056d1c4deb2126600764736f6c63430008180033",
  "linkReferences": {},
  "deployedLinkReferences": {}
}