{
  "_format": "hh-sol-artifact-1",
  "contractName": "DAO",
  "sourceName": "contracts/DAO.sol",
  "abi": [
    {
      "inputs": [
        {
          "internalType": "address",
          "name": "tokenAddress",
          "type": "address"
        },
        {
          "internalType": "uint256",
          "name": "_tokenPrice",
          "type": "uint256"
        },
        {
          "internalType": "uint256",
          "name": "_tokensPerVP",
          "type": "uint256"
        },
        {
          "internalType": "uint256",
          "name": "_minStakeToVote",
          "type": "uint256"
        },
        {
          "internalType": "uint256",
          "name": "_minStakeToPropose",
          "type": "uint256"
        },
        {
          "internalType": "uint256",
          "name": "_stakingLockTime",
          "type": "uint256"
        },
        {
          "internalType": "uint256",
          "name": "_proposalDuration",
          "type": "uint256"
        }
      ],
      "stateMutability": "nonpayable",
      "type": "constructor"
    },
    {
      "inputs": [],
      "name": "AlreadyVoted",
      "type": "error"
    },
    {
      "inputs": [],
      "name": "DAOPaused",
      "type": "error"
    },
    {
      "inputs": [],
      "name": "InsufficientPayment",
      "type": "error"
    },
    {
      "inputs": [],
      "name": "InsufficientStake",
      "type": "error"
    },
    {
      "inputs": [],
      "name": "InvalidAmount",
      "type": "error"
    },
    {
      "inputs": [],
      "name": "InvalidProposal",
      "type": "error"
    },
    {
      "inputs": [],
      "name": "NoPanicWalletSet",
      "type": "error"
    },
    {
      "inputs": [],
      "name": "NotPanicWallet",
      "type": "error"
    },
    {
      "inputs": [],
      "name": "NotPaused",
      "type": "error"
    },
    {
      "inputs": [
        {
          "internalType": "address",
          "name": "owner",
          "type": "address"
        }
      ],
      "name": "OwnableInvalidOwner",
      "type": "error"
    },
    {
      "inputs": [
        {
          "internalType": "address",
          "name": "account",
          "type": "address"
        }
      ],
      "name": "OwnableUnauthorizedAccount",
      "type": "error"
    },
    {
      "inputs": [],
      "name": "ProposalNotActive",
      "type": "error"
    },
    {
      "inputs": [],
      "name": "ProposalStillActive",
      "type": "error"
    },
    {
      "inputs": [],
      "name": "ReentrancyGuardReentrantCall",
      "type": "error"
    },
    {
      "inputs": [],
      "name": "StakeLocked",
      "type": "error"
    },
    {
      "anonymous": false,
      "inputs": [
        {
          "indexed": true,
          "internalType": "address",
          "name": "previousOwner",
          "type": "address"
        },
        {
          "indexed": true,
          "internalType": "address",
          "name": "newOwner",
          "type": "address"
        }
      ],
      "name": "OwnershipTransferred",
      "type": "event"
    },
    {
      "anonymous": false,
      "inputs": [
        {
          "indexed": true,
          "internalType": "address",
          "name": "by",
          "type": "address"
        }
      ],
      "name": "PanicActivated",
      "type": "event"
    },
    {
      "anonymous": false,
      "inputs": [
        {
          "indexed": true,
          "internalType": "address",
          "name": "panicWallet",
          "type": "address"
        }
      ],
      "name": "PanicWalletSet",
      "type": "event"
    },
    {
      "anonymous": false,
      "inputs": [
        {
          "indexed": false,
          "internalType": "string",
          "name": "paramName",
          "type": "string"
        },
        {
          "indexed": false,
          "internalType": "uint256",
          "name": "newValue",
          "type": "uint256"
        }
      ],
      "name": "ParametersUpdated",
      "type": "event"
    },
    {
      "anonymous": false,
      "inputs": [
        {
          "indexed": true,
          "internalType": "uint256",
          "name": "proposalId",
          "type": "uint256"
        },
        {
          "indexed": true,
          "internalType": "address",
          "name": "proposer",
          "type": "address"
        },
        {
          "indexed": false,
          "internalType": "string",
          "name": "title",
          "type": "string"
        }
      ],
      "name": "ProposalCreated",
      "type": "event"
    },
    {
      "anonymous": false,
      "inputs": [
        {
          "indexed": true,
          "internalType": "uint256",
          "name": "proposalId",
          "type": "uint256"
        },
        {
          "indexed": false,
          "internalType": "enum DAO.ProposalStatus",
          "name": "status",
          "type": "uint8"
        }
      ],
      "name": "ProposalExecuted",
      "type": "event"
    },
    {
      "anonymous": false,
      "inputs": [
        {
          "indexed": true,
          "internalType": "address",
          "name": "user",
          "type": "address"
        },
        {
          "indexed": false,
          "internalType": "uint256",
          "name": "amount",
          "type": "uint256"
        },
        {
          "indexed": false,
          "internalType": "bool",
          "name": "forVoting",
          "type": "bool"
        }
      ],
      "name": "Staked",
      "type": "event"
    },
    {
      "anonymous": false,
      "inputs": [
        {
          "indexed": true,
          "internalType": "address",
          "name": "buyer",
          "type": "address"
        },
        {
          "indexed": false,
          "internalType": "uint256",
          "name": "amount",
          "type": "uint256"
        },
        {
          "indexed": false,
          "internalType": "uint256",
          "name": "cost",
          "type": "uint256"
        }
      ],
      "name": "TokensPurchased",
      "type": "event"
    },
    {
      "anonymous": false,
      "inputs": [
        {
          "indexed": true,
          "internalType": "address",
          "name": "by",
          "type": "address"
        }
      ],
      "name": "TranquilityRestored",
      "type": "event"
    },
    {
      "anonymous": false,
      "inputs": [
        {
          "indexed": true,
          "internalType": "uint256",
          "name": "proposalId",
          "type": "uint256"
        },
        {
          "indexed": true,
          "internalType": "address",
          "name": "to",
          "type": "address"
        },
        {
          "indexed": false,
          "internalType": "uint256",
          "name": "amount",
          "type": "uint256"
        }
      ],
      "name": "TreasuryTransferExecuted",
      "type": "event"
    },
    {
      "anonymous": false,
      "inputs": [
        {
          "indexed": true,
          "internalType": "address",
          "name": "user",
          "type": "address"
        },
        {
          "indexed": false,
          "internalType": "uint256",
          "name": "amount",
          "type": "uint256"
        },
        {
          "indexed": false,
          "internalType": "bool",
          "name": "fromVoting",
          "type": "bool"
        }
      ],
      "name": "Unstaked",
      "type": "event"
    },
    {
      "anonymous": false,
      "inputs": [
        {
          "indexed": true,
          "internalType": "uint256",
          "name": "proposalId",
          "type": "uint256"
        },
        {
          "indexed": true,
          "internalType": "address",
          "name": "voter",
          "type": "address"
        },
        {
          "indexed": false,
          "internalType": "bool",
          "name": "inFavor",
          "type": "bool"
        },
        {
          "indexed": false,
          "internalType": "uint256",
          "name": "votingPower",
          "type": "uint256"
        }
      ],
      "name": "Voted",
      "type": "event"
    },
    {
      "inputs": [],
      "name": "buyTokens",
      "outputs": [],
      "stateMutability": "payable",
      "type": "function"
    },
    {
      "inputs": [
        {
          "internalType": "address",
          "name": "user",
          "type": "address"
        }
      ],
      "name": "calculateVotingPower",
      "outputs": [
        {
          "internalType": "uint256",
          "name": "",
          "type": "uint256"
        }
      ],
      "stateMutability": "view",
      "type": "function"
    },
    {
      "inputs": [
        {
          "internalType": "address",
          "name": "user",
          "type": "address"
        }
      ],
      "name": "getStakeInfo",
      "outputs": [
        {
          "components": [
            {
              "internalType": "uint256",
              "name": "amountForVoting",
              "type": "uint256"
            },
            {
              "internalType": "uint256",
              "name": "amountForProposing",
              "type": "uint256"
            },
            {
              "internalType": "uint256",
              "name": "lockedUntilVoting",
              "type": "uint256"
            },
            {
              "internalType": "uint256",
              "name": "lockedUntilProposing",
              "type": "uint256"
            }
          ],
          "internalType": "struct DAO.StakeInfo",
          "name": "",
          "type": "tuple"
        }
      ],
      "stateMutability": "view",
      "type": "function"
    },
    {
      "inputs": [
        {
          "internalType": "uint256",
          "name": "",
          "type": "uint256"
        },
        {
          "internalType": "address",
          "name": "",
          "type": "address"
        }
      ],
      "name": "hasVoted",
      "outputs": [
        {
          "internalType": "bool",
          "name": "",
          "type": "bool"
        }
      ],
      "stateMutability": "view",
      "type": "function"
    },
    {
      "inputs": [],
      "name": "isPaused",
      "outputs": [
        {
          "internalType": "bool",
          "name": "",
          "type": "bool"
        }
      ],
      "stateMutability": "view",
      "type": "function"
    },
    {
      "inputs": [],
      "name": "minStakeToPropose",
      "outputs": [
        {
          "internalType": "uint256",
          "name": "",
          "type": "uint256"
        }
      ],
      "stateMutability": "view",
      "type": "function"
    },
    {
      "inputs": [],
      "name": "minStakeToVote",
      "outputs": [
        {
          "internalType": "uint256",
          "name": "",
          "type": "uint256"
        }
      ],
      "stateMutability": "view",
      "type": "function"
    },
    {
      "inputs": [],
      "name": "owner",
      "outputs": [
        {
          "internalType": "address",
          "name": "",
          "type": "address"
        }
      ],
      "stateMutability": "view",
      "type": "function"
    },
    {
      "inputs": [],
      "name": "panic",
      "outputs": [],
      "stateMutability": "nonpayable",
      "type": "function"
    },
    {
      "inputs": [],
      "name": "panicWallet",
      "outputs": [
        {
          "internalType": "address",
          "name": "",
          "type": "address"
        }
      ],
      "stateMutability": "view",
      "type": "function"
    },
    {
      "inputs": [],
      "name": "proposalCount",
      "outputs": [
        {
          "internalType": "uint256",
          "name": "",
          "type": "uint256"
        }
      ],
      "stateMutability": "view",
      "type": "function"
    },
    {
      "inputs": [],
      "name": "proposalDuration",
      "outputs": [
        {
          "internalType": "uint256",
          "name": "",
          "type": "uint256"
        }
      ],
      "stateMutability": "view",
      "type": "function"
    },
    {
      "inputs": [
        {
          "internalType": "uint256",
          "name": "",
          "type": "uint256"
        }
      ],
      "name": "proposals",
      "outputs": [
        {
          "internalType": "uint256",
          "name": "id",
          "type": "uint256"
        },
        {
          "internalType": "string",
          "name": "title",
          "type": "string"
        },
        {
          "internalType": "string",
          "name": "description",
          "type": "string"
        },
        {
          "internalType": "address",
          "name": "proposer",
          "type": "address"
        },
        {
          "internalType": "uint256",
          "name": "createdAt",
          "type": "uint256"
        },
        {
          "internalType": "uint256",
          "name": "votesFor",
          "type": "uint256"
        },
        {
          "internalType": "uint256",
          "name": "votesAgainst",
          "type": "uint256"
        },
        {
          "internalType": "enum DAO.ProposalStatus",
          "name": "status",
          "type": "uint8"
        },
        {
          "internalType": "enum DAO.ProposalType",
          "name": "proposalType",
          "type": "uint8"
        },
        {
          "internalType": "address payable",
          "name": "treasuryTarget",
          "type": "address"
        },
        {
          "internalType": "uint256",
          "name": "treasuryAmount",
          "type": "uint256"
        }
      ],
      "stateMutability": "view",
      "type": "function"
    },
    {
      "inputs": [],
      "name": "renounceOwnership",
      "outputs": [],
      "stateMutability": "nonpayable",
      "type": "function"
    },
    {
      "inputs": [
        {
          "internalType": "address",
          "name": "_panicWallet",
          "type": "address"
        }
      ],
      "name": "setPanicWallet",
      "outputs": [],
      "stateMutability": "nonpayable",
      "type": "function"
    },
    {
      "inputs": [
        {
          "internalType": "uint256",
          "name": "amount",
          "type": "uint256"
        }
      ],
      "name": "stakeForProposing",
      "outputs": [],
      "stateMutability": "nonpayable",
      "type": "function"
    },
    {
      "inputs": [
        {
          "internalType": "uint256",
          "name": "amount",
          "type": "uint256"
        }
      ],
      "name": "stakeForVoting",
      "outputs": [],
      "stateMutability": "nonpayable",
      "type": "function"
    },
    {
      "inputs": [
        {
          "internalType": "address",
          "name": "",
          "type": "address"
        }
      ],
      "name": "stakes",
      "outputs": [
        {
          "internalType": "uint256",
          "name": "amountForVoting",
          "type": "uint256"
        },
        {
          "internalType": "uint256",
          "name": "amountForProposing",
          "type": "uint256"
        },
        {
          "internalType": "uint256",
          "name": "lockedUntilVoting",
          "type": "uint256"
        },
        {
          "internalType": "uint256",
          "name": "lockedUntilProposing",
          "type": "uint256"
        }
      ],
      "stateMutability": "view",
      "type": "function"
    },
    {
      "inputs": [],
      "name": "stakingLockTime",
      "outputs": [
        {
          "internalType": "uint256",
          "name": "",
          "type": "uint256"
        }
      ],
      "stateMutability": "view",
      "type": "function"
    },
    {
      "inputs": [],
      "name": "token",
      "outputs": [
        {
          "internalType": "contract DAOToken",
          "name": "",
          "type": "address"
        }
      ],
      "stateMutability": "view",
      "type": "function"
    },
    {
      "inputs": [],
      "name": "tokenPrice",
      "outputs": [
        {
          "internalType": "uint256",
          "name": "",
          "type": "uint256"
        }
      ],
      "stateMutability": "view",
      "type": "function"
    },
    {
      "inputs": [],
      "name": "tokensPerVotingPower",
      "outputs": [
        {
          "internalType": "uint256",
          "name": "",
          "type": "uint256"
        }
      ],
      "stateMutability": "view",
      "type": "function"
    },
    {
      "inputs": [],
      "name": "tranquilidad",
      "outputs": [],
      "stateMutability": "nonpayable",
      "type": "function"
    },
    {
      "inputs": [
        {
          "internalType": "address",
          "name": "newOwner",
          "type": "address"
        }
      ],
      "name": "transferOwnership",
      "outputs": [],
      "stateMutability": "nonpayable",
      "type": "function"
    },
    {
      "inputs": [
        {
          "internalType": "uint256",
          "name": "amount",
          "type": "uint256"
        }
      ],
      "name": "unstakeFromProposing",
      "outputs": [],
      "stateMutability": "nonpayable",
      "type": "function"
    },
    {
      "inputs": [
        {
          "internalType": "uint256",
          "name": "amount",
          "type": "uint256"
        }
      ],
      "name": "unstakeFromVoting",
      "outputs": [],
      "stateMutability": "nonpayable",
      "type": "function"
    },
    {
      "inputs": [
        {
          "internalType": "uint256",
          "name": "newMin",
          "type": "uint256"
        }
      ],
      "name": "updateMinStakeToPropose",
      "outputs": [],
      "stateMutability": "nonpayable",
      "type": "function"
    },
    {
      "inputs": [
        {
          "internalType": "uint256",
          "name": "newMin",
          "type": "uint256"
        }
      ],
      "name": "updateMinStakeToVote",
      "outputs": [],
      "stateMutability": "nonpayable",
      "type": "function"
    },
    {
      "inputs": [
        {
          "internalType": "uint256",
          "name": "newPrice",
          "type": "uint256"
        }
      ],
      "name": "updateTokenPrice",
      "outputs": [],
      "stateMutability": "nonpayable",
      "type": "function"
    },
    {
      "inputs": [
        {
          "internalType": "uint256",
          "name": "",
          "type": "uint256"
        },
        {
          "internalType": "address",
          "name": "",
          "type": "address"
        }
      ],
      "name": "voteChoice",
      "outputs": [
        {
          "internalType": "bool",
          "name": "",
          "type": "bool"
        }
      ],
      "stateMutability": "view",
      "type": "function"
    },
    {
      "stateMutability": "payable",
      "type": "receive"
    }
  ],
  "bytecode": "0x60806040523480156200001157600080fd5b5060405162002b0f38038062002b0f8339818101604052810190620000379190620002c2565b33600073ffffffffffffffffffffffffffffffffffffffff168173ffffffffffffffffffffffffffffffffffffffff1603620000ad5760006040517f1e4fbdf7000000000000000000000000000000000000000000000000000000008152600401620000a4919062000386565b60405180910390fd5b620000be816200015960201b60201c565b506001808190555086600260006101000a81548173ffffffffffffffffffffffffffffffffffffffff021916908373ffffffffffffffffffffffffffffffffffffffff1602179055508560048190555084600581905550836006819055508260078190555081600881905550806009819055506001600360146101000a81548160ff02191690831515021790555050505050505050620003a3565b60008060009054906101000a900473ffffffffffffffffffffffffffffffffffffffff169050816000806101000a81548173ffffffffffffffffffffffffffffffffffffffff021916908373ffffffffffffffffffffffffffffffffffffffff1602179055508173ffffffffffffffffffffffffffffffffffffffff168173ffffffffffffffffffffffffffffffffffffffff167f8be0079c531659141344cd1fd0a4f28419497f9722a3daafe3b4186f6b6457e060405160405180910390a35050565b600080fd5b600073ffffffffffffffffffffffffffffffffffffffff82169050919050565b60006200024f8262000222565b9050919050565b620002618162000242565b81146200026d57600080fd5b50565b600081519050620002818162000256565b92915050565b6000819050919050565b6200029c8162000287565b8114620002a857600080fd5b50565b600081519050620002bc8162000291565b92915050565b600080600080600080600060e0888a031215620002e457620002e36200021d565b5b6000620002f48a828b0162000270565b9750506020620003078a828b01620002ab565b96505060406200031a8a828b01620002ab565b95505060606200032d8a828b01620002ab565b9450506080620003408a828b01620002ab565b93505060a0620003538a828b01620002ab565b92505060c0620003668a828b01620002ab565b91505092959891949750929550565b620003808162000242565b82525050565b60006020820190506200039d600083018462000375565b92915050565b61275c80620003b36000396000f3fe6080604052600436106101d15760003560e01c80638da5cb5b116100f7578063cbd38f4211610095578063dc53a70911610064578063dc53a70914610635578063f2fde38b14610660578063fb46885514610689578063fc0c546a146106c6576101d8565b8063cbd38f42146105ae578063d0febe4c146105d7578063d1b85b49146105e1578063da35c6641461060a576101d8565b8063a028699e116100d1578063a028699e146104f2578063ad3bcade1461051b578063b187bd2614610546578063c345315314610571576101d8565b80638da5cb5b1461048757806392bfcb3a146104b257806397761382146104db576101d8565b80634700d3051161016f5780636ee7ee551161013e5780636ee7ee55146103ef578063715018a61461041a57806373c0b5cb146104315780637ff9b5961461045c576101d8565b80634700d30514610349578063542ffa7b1461036057806359d177e614610389578063676c0d77146103c6576101d8565b80631d408d1e116101ab5780631d408d1e1461028d57806330109962146102b85780634091e8f0146102e3578063438596321461030c576101d8565b8063013cf08b146101dd5780630627d4251461022457806316934fc41461024d576101d8565b366101d857005b600080fd5b3480156101e957600080fd5b5061020460048036038101906101ff9190611d53565b6106f1565b60405161021b9b9a99989796959493929190611f40565b60405180910390f35b34801561023057600080fd5b5061024b60048036038101906102469190611d53565b6108b5565b005b34801561025957600080fd5b50610274600480360381019061026f9190612025565b610ade565b6040516102849493929190612052565b60405180910390f35b34801561029957600080fd5b506102a2610b0e565b6040516102af9190612097565b60405180910390f35b3480156102c457600080fd5b506102cd610b14565b6040516102da9190612097565b60405180910390f35b3480156102ef57600080fd5b5061030a60048036038101906103059190612025565b610b1a565b005b34801561031857600080fd5b50610333600480360381019061032e91906120b2565b610c33565b604051610340919061210d565b60405180910390f35b34801561035557600080fd5b5061035e610c62565b005b34801561036c57600080fd5b5061038760048036038101906103829190611d53565b610d49565b005b34801561039557600080fd5b506103b060048036038101906103ab9190612025565b610f72565b6040516103bd9190612097565b60405180910390f35b3480156103d257600080fd5b506103ed60048036038101906103e89190611d53565b610fd0565b005b3480156103fb57600080fd5b50610404611019565b6040516104119190612097565b60405180910390f35b34801561042657600080fd5b5061042f61101f565b005b34801561043d57600080fd5b50610446611033565b6040516104539190612097565b60405180910390f35b34801561046857600080fd5b50610471611039565b60405161047e9190612097565b60405180910390f35b34801561049357600080fd5b5061049c61103f565b6040516104a99190612128565b60405180910390f35b3480156104be57600080fd5b506104d960048036038101906104d49190611d53565b611068565b005b3480156104e757600080fd5b506104f06110b1565b005b3480156104fe57600080fd5b5061051960048036038101906105149190611d53565b6111de565b005b34801561052757600080fd5b50610530611491565b60405161053d9190612128565b60405180910390f35b34801561055257600080fd5b5061055b6114b7565b604051610568919061210d565b60405180910390f35b34801561057d57600080fd5b5061059860048036038101906105939190612025565b6114ca565b6040516105a591906121a7565b60405180910390f35b3480156105ba57600080fd5b506105d560048036038101906105d09190611d53565b61154b565b005b6105df611594565b005b3480156105ed57600080fd5b5061060860048036038101906106039190611d53565b6117b4565b005b34801561061657600080fd5b5061061f611a67565b60405161062c9190612097565b60405180910390f35b34801561064157600080fd5b5061064a611a6d565b6040516106579190612097565b60405180910390f35b34801561066c57600080fd5b5061068760048036038101906106829190612025565b611a73565b005b34801561069557600080fd5b506106b060048036038101906106ab91906120b2565b611af9565b6040516106bd919061210d565b60405180910390f35b3480156106d257600080fd5b506106db611b28565b6040516106e89190612221565b60405180910390f35b600b60205280600052604060002060009150905080600001549080600101805461071a9061226b565b80601f01602080910402602001604051908101604052809291908181526020018280546107469061226b565b80156107935780601f1061076857610100808354040283529160200191610793565b820191906000526020600020905b81548152906001019060200180831161077657829003601f168201915b5050505050908060020180546107a89061226b565b80601f01602080910402602001604051908101604052809291908181526020018280546107d49061226b565b80156108215780601f106107f657610100808354040283529160200191610821565b820191906000526020600020905b81548152906001019060200180831161080457829003601f168201915b5050505050908060030160009054906101000a900473ffffffffffffffffffffffffffffffffffffffff16908060040154908060050154908060060154908060070160009054906101000a900460ff16908060070160019054906101000a900460ff16908060070160029054906101000a900473ffffffffffffffffffffffffffffffffffffffff1690806008015490508b565b6108bd611b4e565b6000600a60003373ffffffffffffffffffffffffffffffffffffffff1673ffffffffffffffffffffffffffffffffffffffff168152602001908152602001600020905060008214806109125750806001015482115b15610949576040517f2c5211c600000000000000000000000000000000000000000000000000000000815260040160405180910390fd5b8060030154421015610987576040517f14d10a0200000000000000000000000000000000000000000000000000000000815260040160405180910390fd5b8181600101600082825461099b91906122cb565b92505081905550600260009054906101000a900473ffffffffffffffffffffffffffffffffffffffff1673ffffffffffffffffffffffffffffffffffffffff1663a9059cbb33846040518363ffffffff1660e01b81526004016109ff9291906122ff565b6020604051808303816000875af1158015610a1e573d6000803e3d6000fd5b505050506040513d601f19601f82011682018060405250810190610a429190612354565b610a81576040517f08c379a0000000000000000000000000000000000000000000000000000000008152600401610a78906123cd565b60405180910390fd5b3373ffffffffffffffffffffffffffffffffffffffff167f4416ca74b4c9dd8d6070d91c267a6cf53734c0f343ced0ad02471ccb5417037e836000604051610aca9291906123ed565b60405180910390a250610adb611b94565b50565b600a6020528060005260406000206000915090508060000154908060010154908060020154908060030154905084565b60065481565b60095481565b610b22611b9d565b600073ffffffffffffffffffffffffffffffffffffffff168173ffffffffffffffffffffffffffffffffffffffff1603610b91576040517f08c379a0000000000000000000000000000000000000000000000000000000008152600401610b8890612462565b60405180910390fd5b80600360006101000a81548173ffffffffffffffffffffffffffffffffffffffff021916908373ffffffffffffffffffffffffffffffffffffffff1602179055506000600360146101000a81548160ff0219169083151502179055508073ffffffffffffffffffffffffffffffffffffffff167fa02db7c9680f52f923cc3a7d1cf764d4dac0a32c7439c70b46ecdc5daa6e2ebe60405160405180910390a250565b600c6020528160005260406000206020528060005260406000206000915091509054906101000a900460ff1681565b600360009054906101000a900473ffffffffffffffffffffffffffffffffffffffff1673ffffffffffffffffffffffffffffffffffffffff163373ffffffffffffffffffffffffffffffffffffffff1614610ce9576040517fb9e5ac5f00000000000000000000000000000000000000000000000000000000815260040160405180910390fd5b6001600360146101000a81548160ff0219169083151502179055503373ffffffffffffffffffffffffffffffffffffffff167f0b907d122e4db865e49bc04c7f1e84a1ae29e024ee225bc08c69104520c5f3f960405160405180910390a2565b610d51611b4e565b6000600a60003373ffffffffffffffffffffffffffffffffffffffff1673ffffffffffffffffffffffffffffffffffffffff16815260200190815260200160002090506000821480610da65750806000015482115b15610ddd576040517f2c5211c600000000000000000000000000000000000000000000000000000000815260040160405180910390fd5b8060020154421015610e1b576040517f14d10a0200000000000000000000000000000000000000000000000000000000815260040160405180910390fd5b81816000016000828254610e2f91906122cb565b92505081905550600260009054906101000a900473ffffffffffffffffffffffffffffffffffffffff1673ffffffffffffffffffffffffffffffffffffffff1663a9059cbb33846040518363ffffffff1660e01b8152600401610e939291906122ff565b6020604051808303816000875af1158015610eb2573d6000803e3d6000fd5b505050506040513d601f19601f82011682018060405250810190610ed69190612354565b610f15576040517f08c379a0000000000000000000000000000000000000000000000000000000008152600401610f0c906123cd565b60405180910390fd5b3373ffffffffffffffffffffffffffffffffffffffff167f4416ca74b4c9dd8d6070d91c267a6cf53734c0f343ced0ad02471ccb5417037e836001604051610f5e9291906123ed565b60405180910390a250610f6f611b94565b50565b600080600a60008473ffffffffffffffffffffffffffffffffffffffff1673ffffffffffffffffffffffffffffffffffffffff16815260200190815260200160002060000154905060055481610fc891906124b1565b915050919050565b610fd8611b9d565b806004819055507f952177133a28eea5034c93c6c70c1a8d223da94faaa45da8412c3c791111137f8160405161100e919061252e565b60405180910390a150565b60085481565b611027611b9d565b6110316000611c24565b565b60075481565b60045481565b60008060009054906101000a900473ffffffffffffffffffffffffffffffffffffffff16905090565b611070611b9d565b806006819055507f952177133a28eea5034c93c6c70c1a8d223da94faaa45da8412c3c791111137f816040516110a691906125a8565b60405180910390a150565b600360009054906101000a900473ffffffffffffffffffffffffffffffffffffffff1673ffffffffffffffffffffffffffffffffffffffff163373ffffffffffffffffffffffffffffffffffffffff1614611138576040517fb9e5ac5f00000000000000000000000000000000000000000000000000000000815260040160405180910390fd5b600360149054906101000a900460ff1661117e576040517f6cd6020100000000000000000000000000000000000000000000000000000000815260040160405180910390fd5b6000600360146101000a81548160ff0219169083151502179055503373ffffffffffffffffffffffffffffffffffffffff167fa2e764bd6010df61a2c087e90137317fdd752e4f6e3804ca8df0d6ed16f3014960405160405180910390a2565b600360149054906101000a900460ff1615611225576040517fb5784fa500000000000000000000000000000000000000000000000000000000815260040160405180910390fd5b600073ffffffffffffffffffffffffffffffffffffffff16600360009054906101000a900473ffffffffffffffffffffffffffffffffffffffff1673ffffffffffffffffffffffffffffffffffffffff16036112ad576040517fce256ac000000000000000000000000000000000000000000000000000000000815260040160405180910390fd5b600081036112e7576040517f2c5211c600000000000000000000000000000000000000000000000000000000815260040160405180910390fd5b600260009054906101000a900473ffffffffffffffffffffffffffffffffffffffff1673ffffffffffffffffffffffffffffffffffffffff166323b872dd3330846040518463ffffffff1660e01b8152600401611346939291906125d6565b6020604051808303816000875af1158015611365573d6000803e3d6000fd5b505050506040513d601f19601f820116820180604052508101906113899190612354565b6113c8576040517f08c379a00000000000000000000000000000000000000000000000000000000081526004016113bf906123cd565b60405180910390fd5b6000600a60003373ffffffffffffffffffffffffffffffffffffffff1673ffffffffffffffffffffffffffffffffffffffff16815260200190815260200160002090508181600101600082825461141f919061260d565b9250508190555060085442611434919061260d565b81600301819055503373ffffffffffffffffffffffffffffffffffffffff167f37d4053e34fde482e96f6bcd424dfa31342cbd5fe184d497fb3c8bb4b4b975808360006040516114859291906123ed565b60405180910390a25050565b600360009054906101000a900473ffffffffffffffffffffffffffffffffffffffff1681565b600360149054906101000a900460ff1681565b6114d2611cf0565b600a60008373ffffffffffffffffffffffffffffffffffffffff1673ffffffffffffffffffffffffffffffffffffffff1681526020019081526020016000206040518060800160405290816000820154815260200160018201548152602001600282015481526020016003820154815250509050919050565b611553611b9d565b806007819055507f952177133a28eea5034c93c6c70c1a8d223da94faaa45da8412c3c791111137f81604051611589919061268d565b60405180910390a150565b600360149054906101000a900460ff16156115db576040517fb5784fa500000000000000000000000000000000000000000000000000000000815260040160405180910390fd5b600073ffffffffffffffffffffffffffffffffffffffff16600360009054906101000a900473ffffffffffffffffffffffffffffffffffffffff1673ffffffffffffffffffffffffffffffffffffffff1603611663576040517fce256ac000000000000000000000000000000000000000000000000000000000815260040160405180910390fd5b61166b611b4e565b600034036116a5576040517f2c5211c600000000000000000000000000000000000000000000000000000000815260040160405180910390fd5b6000600454670de0b6b3a7640000346116be91906126bb565b6116c891906124b1565b9050600260009054906101000a900473ffffffffffffffffffffffffffffffffffffffff1673ffffffffffffffffffffffffffffffffffffffff166340c10f1933836040518363ffffffff1660e01b81526004016117279291906122ff565b600060405180830381600087803b15801561174157600080fd5b505af1158015611755573d6000803e3d6000fd5b505050503373ffffffffffffffffffffffffffffffffffffffff167f8fafebcaf9d154343dad25669bfa277f4fbacd7ac6b0c4fed522580e040a0f3382346040516117a19291906126fd565b60405180910390a2506117b2611b94565b565b600360149054906101000a900460ff16156117fb576040517fb5784fa500000000000000000000000000000000000000000000000000000000815260040160405180910390fd5b600073ffffffffffffffffffffffffffffffffffffffff16600360009054906101000a900473ffffffffffffffffffffffffffffffffffffffff1673ffffffffffffffffffffffffffffffffffffffff1603611883576040517fce256ac000000000000000000000000000000000000000000000000000000000815260040160405180910390fd5b600081036118bd576040517f2c5211c600000000000000000000000000000000000000000000000000000000815260040160405180910390fd5b600260009054906101000a900473ffffffffffffffffffffffffffffffffffffffff1673ffffffffffffffffffffffffffffffffffffffff166323b872dd3330846040518463ffffffff1660e01b815260040161191c939291906125d6565b6020604051808303816000875af115801561193b573d6000803e3d6000fd5b505050506040513d601f19601f8201168201806040525081019061195f9190612354565b61199e576040517f08c379a0000000000000000000000000000000000000000000000000000000008152600401611995906123cd565b60405180910390fd5b6000600a60003373ffffffffffffffffffffffffffffffffffffffff1673ffffffffffffffffffffffffffffffffffffffff1681526020019081526020016000209050818160000160008282546119f5919061260d565b9250508190555060085442611a0a919061260d565b81600201819055503373ffffffffffffffffffffffffffffffffffffffff167f37d4053e34fde482e96f6bcd424dfa31342cbd5fe184d497fb3c8bb4b4b97580836001604051611a5b9291906123ed565b60405180910390a25050565b600e5481565b60055481565b611a7b611b9d565b600073ffffffffffffffffffffffffffffffffffffffff168173ffffffffffffffffffffffffffffffffffffffff1603611aed5760006040517f1e4fbdf7000000000000000000000000000000000000000000000000000000008152600401611ae49190612128565b60405180910390fd5b611af681611c24565b50565b600d6020528160005260406000206020528060005260406000206000915091509054906101000a900460ff1681565b600260009054906101000a900473ffffffffffffffffffffffffffffffffffffffff1681565b600260015403611b8a576040517f3ee5aeb500000000000000000000000000000000000000000000000000000000815260040160405180910390fd5b6002600181905550565b60018081905550565b611ba5611ce8565b73ffffffffffffffffffffffffffffffffffffffff16611bc361103f565b73ffffffffffffffffffffffffffffffffffffffff1614611c2257611be6611ce8565b6040517f118cdaa7000000000000000000000000000000000000000000000000000000008152600401611c199190612128565b60405180910390fd5b565b60008060009054906101000a900473ffffffffffffffffffffffffffffffffffffffff169050816000806101000a81548173ffffffffffffffffffffffffffffffffffffffff021916908373ffffffffffffffffffffffffffffffffffffffff1602179055508173ffffffffffffffffffffffffffffffffffffffff168173ffffffffffffffffffffffffffffffffffffffff167f8be0079c531659141344cd1fd0a4f28419497f9722a3daafe3b4186f6b6457e060405160405180910390a35050565b600033905090565b6040518060800160405280600081526020016000815260200160008152602001600081525090565b600080fd5b6000819050919050565b611d3081611d1d565b8114611d3b57600080fd5b50565b600081359050611d4d81611d27565b92915050565b600060208284031215611d6957611d68611d18565b5b6000611d7784828501611d3e565b91505092915050565b611d8981611d1d565b82525050565b600081519050919050565b600082825260208201905092915050565b60005b83811015611dc9578082015181840152602081019050611dae565b60008484015250505050565b6000601f19601f8301169050919050565b6000611df182611d8f565b611dfb8185611d9a565b9350611e0b818560208601611dab565b611e1481611dd5565b840191505092915050565b600073ffffffffffffffffffffffffffffffffffffffff82169050919050565b6000611e4a82611e1f565b9050919050565b611e5a81611e3f565b82525050565b7f4e487b7100000000000000000000000000000000000000000000000000000000600052602160045260246000fd5b60038110611ea057611e9f611e60565b5b50565b6000819050611eb182611e8f565b919050565b6000611ec182611ea3565b9050919050565b611ed181611eb6565b82525050565b60028110611ee857611ee7611e60565b5b50565b6000819050611ef982611ed7565b919050565b6000611f0982611eeb565b9050919050565b611f1981611efe565b82525050565b6000611f2a82611e1f565b9050919050565b611f3a81611f1f565b82525050565b600061016082019050611f56600083018e611d80565b8181036020830152611f68818d611de6565b90508181036040830152611f7c818c611de6565b9050611f8b606083018b611e51565b611f98608083018a611d80565b611fa560a0830189611d80565b611fb260c0830188611d80565b611fbf60e0830187611ec8565b611fcd610100830186611f10565b611fdb610120830185611f31565b611fe9610140830184611d80565b9c9b505050505050505050505050565b61200281611e3f565b811461200d57600080fd5b50565b60008135905061201f81611ff9565b92915050565b60006020828403121561203b5761203a611d18565b5b600061204984828501612010565b91505092915050565b60006080820190506120676000830187611d80565b6120746020830186611d80565b6120816040830185611d80565b61208e6060830184611d80565b95945050505050565b60006020820190506120ac6000830184611d80565b92915050565b600080604083850312156120c9576120c8611d18565b5b60006120d785828601611d3e565b92505060206120e885828601612010565b9150509250929050565b60008115159050919050565b612107816120f2565b82525050565b600060208201905061212260008301846120fe565b92915050565b600060208201905061213d6000830184611e51565b92915050565b61214c81611d1d565b82525050565b6080820160008201516121686000850182612143565b50602082015161217b6020850182612143565b50604082015161218e6040850182612143565b5060608201516121a16060850182612143565b50505050565b60006080820190506121bc6000830184612152565b92915050565b6000819050919050565b60006121e76121e26121dd84611e1f565b6121c2565b611e1f565b9050919050565b60006121f9826121cc565b9050919050565b600061220b826121ee565b9050919050565b61221b81612200565b82525050565b60006020820190506122366000830184612212565b92915050565b7f4e487b7100000000000000000000000000000000000000000000000000000000600052602260045260246000fd5b6000600282049050600182168061228357607f821691505b6020821081036122965761229561223c565b5b50919050565b7f4e487b7100000000000000000000000000000000000000000000000000000000600052601160045260246000fd5b60006122d682611d1d565b91506122e183611d1d565b92508282039050818111156122f9576122f861229c565b5b92915050565b60006040820190506123146000830185611e51565b6123216020830184611d80565b9392505050565b612331816120f2565b811461233c57600080fd5b50565b60008151905061234e81612328565b92915050565b60006020828403121561236a57612369611d18565b5b60006123788482850161233f565b91505092915050565b7f5472616e73666572206661696c65640000000000000000000000000000000000600082015250565b60006123b7600f83611d9a565b91506123c282612381565b602082019050919050565b600060208201905081810360008301526123e6816123aa565b9050919050565b60006040820190506124026000830185611d80565b61240f60208301846120fe565b9392505050565b7f496e76616c69642070616e69632077616c6c6574000000000000000000000000600082015250565b600061244c601483611d9a565b915061245782612416565b602082019050919050565b6000602082019050818103600083015261247b8161243f565b9050919050565b7f4e487b7100000000000000000000000000000000000000000000000000000000600052601260045260246000fd5b60006124bc82611d1d565b91506124c783611d1d565b9250826124d7576124d6612482565b5b828204905092915050565b7f746f6b656e507269636500000000000000000000000000000000000000000000600082015250565b6000612518600a83611d9a565b9150612523826124e2565b602082019050919050565b600060408201905081810360008301526125478161250b565b90506125566020830184611d80565b92915050565b7f6d696e5374616b65546f566f7465000000000000000000000000000000000000600082015250565b6000612592600e83611d9a565b915061259d8261255c565b602082019050919050565b600060408201905081810360008301526125c181612585565b90506125d06020830184611d80565b92915050565b60006060820190506125eb6000830186611e51565b6125f86020830185611e51565b6126056040830184611d80565b949350505050565b600061261882611d1d565b915061262383611d1d565b925082820190508082111561263b5761263a61229c565b5b92915050565b7f6d696e5374616b65546f50726f706f7365000000000000000000000000000000600082015250565b6000612677601183611d9a565b915061268282612641565b602082019050919050565b600060408201905081810360008301526126a68161266a565b90506126b56020830184611d80565b92915050565b60006126c682611d1d565b91506126d183611d1d565b92508282026126df81611d1d565b915082820484148315176126f6576126f561229c565b5b5092915050565b60006040820190506127126000830185611d80565b61271f6020830184611d80565b939250505056fea26469706673582212205c3192868f23eb0a3c94ce0b2c55561e42290bc54026d5b1ea84b4ac45a161ed64736f6c63430008180033",
  "linkReferences": {},
  "deployedLinkReferences": {}
}