{
  "_format": "hh-sol-artifact-1",
  "contractName": "DAO",
  "sourceName": "contracts/DAO.sol",
  "abi": [
    {
      "inputs": [
        {
          "internalType": "address",
          "name": "tokenAddress",
          "type": "address"
        },
        {
          "internalType": "uint256",
          "name": "_tokenPrice",
          "type": "uint256"
        },
        {
          "internalType": "uint256",
          "name": "_tokensPerVP",
          "type": "uint256"
        },
        {
          "internalType": "uint256",
          "name": "_minStakeToVote",
          "type": "uint256"
        },
        {
          "internalType": "uint256",
          "name": "_minStakeToPropose",
          "type": "uint256"
        },
        {
          "internalType": "uint256",
          "name": "_stakingLockTime",
          "type": "uint256"
        },
        {
          "internalType": "uint256",
          "name": "_proposalDuration",
          "type": "uint256"
        }
      ],
      "stateMutability": "nonpayable",
      "type": "constructor"
    },
    {
      "inputs": [],
      "name": "AlreadyVoted",
      "type": "error"
    },
    {
      "inputs": [],
      "name": "DAOPaused",
      "type": "error"
    },
    {
      "inputs": [],
      "name": "InsufficientPayment",
      "type": "error"
    },
    {
      "inputs": [],
      "name": "InsufficientStake",
      "type": "error"
    },
    {
      "inputs": [],
      "name": "InvalidAmount",
      "type": "error"
    },
    {
      "inputs": [],
      "name": "InvalidProposal",
      "type": "error"
    },
    {
      "inputs": [],
      "name": "NoPanicWalletSet",
      "type": "error"
    },
    {
      "inputs": [],
      "name": "NotPanicWallet",
      "type": "error"
    },
    {
      "inputs": [],
      "name": "NotPaused",
      "type": "error"
    },
    {
      "inputs": [
        {
          "internalType": "address",
          "name": "owner",
          "type": "address"
        }
      ],
      "name": "OwnableInvalidOwner",
      "type": "error"
    },
    {
      "inputs": [
        {
          "internalType": "address",
          "name": "account",
          "type": "address"
        }
      ],
      "name": "OwnableUnauthorizedAccount",
      "type": "error"
    },
    {
      "inputs": [],
      "name": "ProposalNotActive",
      "type": "error"
    },
    {
      "inputs": [],
      "name": "ProposalStillActive",
      "type": "error"
    },
    {
      "inputs": [],
      "name": "ReentrancyGuardReentrantCall",
      "type": "error"
    },
    {
      "inputs": [],
      "name": "StakeLocked",
      "type": "error"
    },
    {
      "anonymous": false,
      "inputs": [
        {
          "indexed": true,
          "internalType": "address",
          "name": "previousOwner",
          "type": "address"
        },
        {
          "indexed": true,
          "internalType": "address",
          "name": "newOwner",
          "type": "address"
        }
      ],
      "name": "OwnershipTransferred",
      "type": "event"
    },
    {
      "anonymous": false,
      "inputs": [
        {
          "indexed": true,
          "internalType": "address",
          "name": "by",
          "type": "address"
        }
      ],
      "name": "PanicActivated",
      "type": "event"
    },
    {
      "anonymous": false,
      "inputs": [
        {
          "indexed": true,
          "internalType": "address",
          "name": "panicWallet",
          "type": "address"
        }
      ],
      "name": "PanicWalletSet",
      "type": "event"
    },
    {
      "anonymous": false,
      "inputs": [
        {
          "indexed": false,
          "internalType": "string",
          "name": "paramName",
          "type": "string"
        },
        {
          "indexed": false,
          "internalType": "uint256",
          "name": "newValue",
          "type": "uint256"
        }
      ],
      "name": "ParametersUpdated",
      "type": "event"
    },
    {
      "anonymous": false,
      "inputs": [
        {
          "indexed": true,
          "internalType": "uint256",
          "name": "proposalId",
          "type": "uint256"
        },
        {
          "indexed": true,
          "internalType": "address",
          "name": "proposer",
          "type": "address"
        },
        {
          "indexed": false,
          "internalType": "string",
          "name": "title",
          "type": "string"
        }
      ],
      "name": "ProposalCreated",
      "type": "event"
    },
    {
      "anonymous": false,
      "inputs": [
        {
          "indexed": true,
          "internalType": "uint256",
          "name": "proposalId",
          "type": "uint256"
        },
        {
          "indexed": false,
          "internalType": "enum DAO.ProposalStatus",
          "name": "status",
          "type": "uint8"
        }
      ],
      "name": "ProposalExecuted",
      "type": "event"
    },
    {
      "anonymous": false,
      "inputs": [
        {
          "indexed": true,
          "internalType": "address",
          "name": "user",
          "type": "address"
        },
        {
          "indexed": false,
          "internalType": "uint256",
          "name": "amount",
          "type": "uint256"
        },
        {
          "indexed": false,
          "internalType": "bool",
          "name": "forVoting",
          "type": "bool"
        }
      ],
      "name": "Staked",
      "type": "event"
    },
    {
      "anonymous": false,
      "inputs": [
        {
          "indexed": true,
          "internalType": "address",
          "name": "buyer",
          "type": "address"
        },
        {
          "indexed": false,
          "internalType": "uint256",
          "name": "amount",
          "type": "uint256"
        },
        {
          "indexed": false,
          "internalType": "uint256",
          "name": "cost",
          "type": "uint256"
        }
      ],
      "name": "TokensPurchased",
      "type": "event"
    },
    {
      "anonymous": false,
      "inputs": [
        {
          "indexed": true,
          "internalType": "address",
          "name": "by",
          "type": "address"
        }
      ],
      "name": "TranquilityRestored",
      "type": "event"
    },
    {
      "anonymous": false,
      "inputs": [
        {
          "indexed": true,
          "internalType": "uint256",
          "name": "proposalId",
          "type": "uint256"
        },
        {
          "indexed": true,
          "internalType": "address",
          "name": "target",
          "type": "address"
        },
        {
          "indexed": false,
          "internalType": "uint256",
          "name": "amount",
          "type": "uint256"
        }
      ],
      "name": "TreasuryTransferExecuted",
      "type": "event"
    },
    {
      "anonymous": false,
      "inputs": [
        {
          "indexed": true,
          "internalType": "address",
          "name": "user",
          "type": "address"
        },
        {
          "indexed": false,
          "internalType": "uint256",
          "name": "amount",
          "type": "uint256"
        },
        {
          "indexed": false,
          "internalType": "bool",
          "name": "fromVoting",
          "type": "bool"
        }
      ],
      "name": "Unstaked",
      "type": "event"
    },
    {
      "anonymous": false,
      "inputs": [
        {
          "indexed": true,
          "internalType": "uint256",
          "name": "proposalId",
          "type": "uint256"
        },
        {
          "indexed": true,
          "internalType": "address",
          "name": "voter",
          "type": "address"
        },
        {
          "indexed": false,
          "internalType": "bool",
          "name": "inFavor",
          "type": "bool"
        },
        {
          "indexed": false,
          "internalType": "uint256",
          "name": "votingPower",
          "type": "uint256"
        }
      ],
      "name": "Voted",
      "type": "event"
    },
    {
      "inputs": [],
      "name": "buyTokens",
      "outputs": [],
      "stateMutability": "payable",
      "type": "function"
    },
    {
      "inputs": [
        {
          "internalType": "address",
          "name": "user",
          "type": "address"
        }
      ],
      "name": "calculateVotingPower",
      "outputs": [
        {
          "internalType": "uint256",
          "name": "",
          "type": "uint256"
        }
      ],
      "stateMutability": "view",
      "type": "function"
    },
    {
      "inputs": [
        {
          "internalType": "string",
          "name": "title",
          "type": "string"
        },
        {
          "internalType": "string",
          "name": "description",
          "type": "string"
        }
      ],
      "name": "createProposal",
      "outputs": [
        {
          "internalType": "uint256",
          "name": "",
          "type": "uint256"
        }
      ],
      "stateMutability": "nonpayable",
      "type": "function"
    },
    {
      "inputs": [
        {
          "internalType": "string",
          "name": "title",
          "type": "string"
        },
        {
          "internalType": "string",
          "name": "description",
          "type": "string"
        },
        {
          "internalType": "address",
          "name": "target",
          "type": "address"
        },
        {
          "internalType": "uint256",
          "name": "amount",
          "type": "uint256"
        }
      ],
      "name": "createTreasuryProposal",
      "outputs": [
        {
          "internalType": "uint256",
          "name": "",
          "type": "uint256"
        }
      ],
      "stateMutability": "nonpayable",
      "type": "function"
    },
    {
      "inputs": [
        {
          "internalType": "uint256",
          "name": "proposalId",
          "type": "uint256"
        }
      ],
      "name": "finalizeProposal",
      "outputs": [],
      "stateMutability": "nonpayable",
      "type": "function"
    },
    {
      "inputs": [],
      "name": "getActiveProposals",
      "outputs": [
        {
          "internalType": "uint256[]",
          "name": "",
          "type": "uint256[]"
        }
      ],
      "stateMutability": "view",
      "type": "function"
    },
    {
      "inputs": [
        {
          "internalType": "uint256",
          "name": "proposalId",
          "type": "uint256"
        }
      ],
      "name": "getProposal",
      "outputs": [
        {
          "internalType": "string",
          "name": "title",
          "type": "string"
        },
        {
          "internalType": "string",
          "name": "description",
          "type": "string"
        },
        {
          "internalType": "address",
          "name": "proposer",
          "type": "address"
        },
        {
          "internalType": "uint256",
          "name": "createdAt",
          "type": "uint256"
        },
        {
          "internalType": "uint256",
          "name": "deadline",
          "type": "uint256"
        },
        {
          "internalType": "uint256",
          "name": "votesFor",
          "type": "uint256"
        },
        {
          "internalType": "uint256",
          "name": "votesAgainst",
          "type": "uint256"
        },
        {
          "internalType": "enum DAO.ProposalStatus",
          "name": "status",
          "type": "uint8"
        },
        {
          "internalType": "enum DAO.ProposalType",
          "name": "proposalType",
          "type": "uint8"
        },
        {
          "internalType": "address",
          "name": "treasuryTarget",
          "type": "address"
        },
        {
          "internalType": "uint256",
          "name": "treasuryAmount",
          "type": "uint256"
        }
      ],
      "stateMutability": "view",
      "type": "function"
    },
    {
      "inputs": [
        {
          "internalType": "uint256",
          "name": "proposalId",
          "type": "uint256"
        }
      ],
      "name": "getProposalVoters",
      "outputs": [
        {
          "internalType": "address[]",
          "name": "",
          "type": "address[]"
        }
      ],
      "stateMutability": "view",
      "type": "function"
    },
    {
      "inputs": [
        {
          "internalType": "address",
          "name": "user",
          "type": "address"
        }
      ],
      "name": "getStakeInfo",
      "outputs": [
        {
          "components": [
            {
              "internalType": "uint256",
              "name": "amountForVoting",
              "type": "uint256"
            },
            {
              "internalType": "uint256",
              "name": "amountForProposing",
              "type": "uint256"
            },
            {
              "internalType": "uint256",
              "name": "lockedUntilVoting",
              "type": "uint256"
            },
            {
              "internalType": "uint256",
              "name": "lockedUntilProposing",
              "type": "uint256"
            }
          ],
          "internalType": "struct DAO.StakeInfo",
          "name": "",
          "type": "tuple"
        }
      ],
      "stateMutability": "view",
      "type": "function"
    },
    {
      "inputs": [],
      "name": "getTreasuryBalance",
      "outputs": [
        {
          "internalType": "uint256",
          "name": "",
          "type": "uint256"
        }
      ],
      "stateMutability": "view",
      "type": "function"
    },
    {
      "inputs": [
        {
          "internalType": "uint256",
          "name": "proposalId",
          "type": "uint256"
        },
        {
          "internalType": "address",
          "name": "voter",
          "type": "address"
        }
      ],
      "name": "getVoterChoice",
      "outputs": [
        {
          "internalType": "bool",
          "name": "",
          "type": "bool"
        }
      ],
      "stateMutability": "view",
      "type": "function"
    },
    {
      "inputs": [
        {
          "internalType": "uint256",
          "name": "",
          "type": "uint256"
        },
        {
          "internalType": "address",
          "name": "",
          "type": "address"
        }
      ],
      "name": "hasVoted",
      "outputs": [
        {
          "internalType": "bool",
          "name": "",
          "type": "bool"
        }
      ],
      "stateMutability": "view",
      "type": "function"
    },
    {
      "inputs": [],
      "name": "isPaused",
      "outputs": [
        {
          "internalType": "bool",
          "name": "",
          "type": "bool"
        }
      ],
      "stateMutability": "view",
      "type": "function"
    },
    {
      "inputs": [],
      "name": "minStakeToPropose",
      "outputs": [
        {
          "internalType": "uint256",
          "name": "",
          "type": "uint256"
        }
      ],
      "stateMutability": "view",
      "type": "function"
    },
    {
      "inputs": [],
      "name": "minStakeToVote",
      "outputs": [
        {
          "internalType": "uint256",
          "name": "",
          "type": "uint256"
        }
      ],
      "stateMutability": "view",
      "type": "function"
    },
    {
      "inputs": [
        {
          "internalType": "address",
          "name": "to",
          "type": "address"
        },
        {
          "internalType": "uint256",
          "name": "amount",
          "type": "uint256"
        }
      ],
      "name": "mintTokens",
      "outputs": [],
      "stateMutability": "nonpayable",
      "type": "function"
    },
    {
      "inputs": [],
      "name": "owner",
      "outputs": [
        {
          "internalType": "address",
          "name": "",
          "type": "address"
        }
      ],
      "stateMutability": "view",
      "type": "function"
    },
    {
      "inputs": [],
      "name": "panic",
      "outputs": [],
      "stateMutability": "nonpayable",
      "type": "function"
    },
    {
      "inputs": [],
      "name": "panicWallet",
      "outputs": [
        {
          "internalType": "address",
          "name": "",
          "type": "address"
        }
      ],
      "stateMutability": "view",
      "type": "function"
    },
    {
      "inputs": [],
      "name": "proposalCount",
      "outputs": [
        {
          "internalType": "uint256",
          "name": "",
          "type": "uint256"
        }
      ],
      "stateMutability": "view",
      "type": "function"
    },
    {
      "inputs": [],
      "name": "proposalDuration",
      "outputs": [
        {
          "internalType": "uint256",
          "name": "",
          "type": "uint256"
        }
      ],
      "stateMutability": "view",
      "type": "function"
    },
    {
      "inputs": [
        {
          "internalType": "uint256",
          "name": "",
          "type": "uint256"
        }
      ],
      "name": "proposals",
      "outputs": [
        {
          "internalType": "string",
          "name": "title",
          "type": "string"
        },
        {
          "internalType": "string",
          "name": "description",
          "type": "string"
        },
        {
          "internalType": "address",
          "name": "proposer",
          "type": "address"
        },
        {
          "internalType": "uint256",
          "name": "createdAt",
          "type": "uint256"
        },
        {
          "internalType": "uint256",
          "name": "deadline",
          "type": "uint256"
        },
        {
          "internalType": "uint256",
          "name": "votesFor",
          "type": "uint256"
        },
        {
          "internalType": "uint256",
          "name": "votesAgainst",
          "type": "uint256"
        },
        {
          "internalType": "enum DAO.ProposalStatus",
          "name": "status",
          "type": "uint8"
        },
        {
          "internalType": "enum DAO.ProposalType",
          "name": "proposalType",
          "type": "uint8"
        },
        {
          "internalType": "address",
          "name": "treasuryTarget",
          "type": "address"
        },
        {
          "internalType": "uint256",
          "name": "treasuryAmount",
          "type": "uint256"
        }
      ],
      "stateMutability": "view",
      "type": "function"
    },
    {
      "inputs": [],
      "name": "renounceOwnership",
      "outputs": [],
      "stateMutability": "nonpayable",
      "type": "function"
    },
    {
      "inputs": [
        {
          "internalType": "address",
          "name": "_panicWallet",
          "type": "address"
        }
      ],
      "name": "setPanicWallet",
      "outputs": [],
      "stateMutability": "nonpayable",
      "type": "function"
    },
    {
      "inputs": [
        {
          "internalType": "uint256",
          "name": "amount",
          "type": "uint256"
        }
      ],
      "name": "stakeForProposing",
      "outputs": [],
      "stateMutability": "nonpayable",
      "type": "function"
    },
    {
      "inputs": [
        {
          "internalType": "uint256",
          "name": "amount",
          "type": "uint256"
        }
      ],
      "name": "stakeForVoting",
      "outputs": [],
      "stateMutability": "nonpayable",
      "type": "function"
    },
    {
      "inputs": [
        {
          "internalType": "address",
          "name": "",
          "type": "address"
        }
      ],
      "name": "stakes",
      "outputs": [
        {
          "internalType": "uint256",
          "name": "amountForVoting",
          "type": "uint256"
        },
        {
          "internalType": "uint256",
          "name": "amountForProposing",
          "type": "uint256"
        },
        {
          "internalType": "uint256",
          "name": "lockedUntilVoting",
          "type": "uint256"
        },
        {
          "internalType": "uint256",
          "name": "lockedUntilProposing",
          "type": "uint256"
        }
      ],
      "stateMutability": "view",
      "type": "function"
    },
    {
      "inputs": [],
      "name": "stakingLockTime",
      "outputs": [
        {
          "internalType": "uint256",
          "name": "",
          "type": "uint256"
        }
      ],
      "stateMutability": "view",
      "type": "function"
    },
    {
      "inputs": [],
      "name": "token",
      "outputs": [
        {
          "internalType": "contract DAOToken",
          "name": "",
          "type": "address"
        }
      ],
      "stateMutability": "view",
      "type": "function"
    },
    {
      "inputs": [],
      "name": "tokenPrice",
      "outputs": [
        {
          "internalType": "uint256",
          "name": "",
          "type": "uint256"
        }
      ],
      "stateMutability": "view",
      "type": "function"
    },
    {
      "inputs": [],
      "name": "tokensPerVotingPower",
      "outputs": [
        {
          "internalType": "uint256",
          "name": "",
          "type": "uint256"
        }
      ],
      "stateMutability": "view",
      "type": "function"
    },
    {
      "inputs": [],
      "name": "tranquilidad",
      "outputs": [],
      "stateMutability": "nonpayable",
      "type": "function"
    },
    {
      "inputs": [
        {
          "internalType": "address",
          "name": "newOwner",
          "type": "address"
        }
      ],
      "name": "transferOwnership",
      "outputs": [],
      "stateMutability": "nonpayable",
      "type": "function"
    },
    {
      "inputs": [
        {
          "internalType": "uint256",
          "name": "amount",
          "type": "uint256"
        }
      ],
      "name": "unstakeFromProposing",
      "outputs": [],
      "stateMutability": "nonpayable",
      "type": "function"
    },
    {
      "inputs": [
        {
          "internalType": "uint256",
          "name": "amount",
          "type": "uint256"
        }
      ],
      "name": "unstakeFromVoting",
      "outputs": [],
      "stateMutability": "nonpayable",
      "type": "function"
    },
    {
      "inputs": [
        {
          "internalType": "uint256",
          "name": "newMin",
          "type": "uint256"
        }
      ],
      "name": "updateMinStakeToPropose",
      "outputs": [],
      "stateMutability": "nonpayable",
      "type": "function"
    },
    {
      "inputs": [
        {
          "internalType": "uint256",
          "name": "newMin",
          "type": "uint256"
        }
      ],
      "name": "updateMinStakeToVote",
      "outputs": [],
      "stateMutability": "nonpayable",
      "type": "function"
    },
    {
      "inputs": [
        {
          "internalType": "uint256",
          "name": "newDuration",
          "type": "uint256"
        }
      ],
      "name": "updateProposalDuration",
      "outputs": [],
      "stateMutability": "nonpayable",
      "type": "function"
    },
    {
      "inputs": [
        {
          "internalType": "uint256",
          "name": "newLockTime",
          "type": "uint256"
        }
      ],
      "name": "updateStakingLockTime",
      "outputs": [],
      "stateMutability": "nonpayable",
      "type": "function"
    },
    {
      "inputs": [
        {
          "internalType": "uint256",
          "name": "newPrice",
          "type": "uint256"
        }
      ],
      "name": "updateTokenPrice",
      "outputs": [],
      "stateMutability": "nonpayable",
      "type": "function"
    },
    {
      "inputs": [
        {
          "internalType": "uint256",
          "name": "newTokensPerVP",
          "type": "uint256"
        }
      ],
      "name": "updateTokensPerVotingPower",
      "outputs": [],
      "stateMutability": "nonpayable",
      "type": "function"
    },
    {
      "inputs": [
        {
          "internalType": "uint256",
          "name": "proposalId",
          "type": "uint256"
        },
        {
          "internalType": "address",
          "name": "user",
          "type": "address"
        }
      ],
      "name": "userHasVoted",
      "outputs": [
        {
          "internalType": "bool",
          "name": "",
          "type": "bool"
        }
      ],
      "stateMutability": "view",
      "type": "function"
    },
    {
      "inputs": [
        {
          "internalType": "uint256",
          "name": "proposalId",
          "type": "uint256"
        },
        {
          "internalType": "bool",
          "name": "inFavor",
          "type": "bool"
        }
      ],
      "name": "vote",
      "outputs": [],
      "stateMutability": "nonpayable",
      "type": "function"
    },
    {
      "inputs": [
        {
          "internalType": "uint256",
          "name": "",
          "type": "uint256"
        },
        {
          "internalType": "address",
          "name": "",
          "type": "address"
        }
      ],
      "name": "voteChoice",
      "outputs": [
        {
          "internalType": "bool",
          "name": "",
          "type": "bool"
        }
      ],
      "stateMutability": "view",
      "type": "function"
    },
    {
      "stateMutability": "payable",
      "type": "receive"
    }
  ],
  "bytecode": "0x60806040523480156200001157600080fd5b5060405162007639380380620076398339818101604052810190620000379190620003c1565b33600073ffffffffffffffffffffffffffffffffffffffff168173ffffffffffffffffffffffffffffffffffffffff1603620000ad5760006040517f1e4fbdf7000000000000000000000000000000000000000000000000000000008152600401620000a4919062000485565b60405180910390fd5b620000be816200025560201b60201c565b5060018081905550620000e267780640101da28d0760c01b6200031960201b60201c565b620000fe67dbc67cb1fc3e092260c01b6200031960201b60201c565b86600260006101000a81548173ffffffffffffffffffffffffffffffffffffffff021916908373ffffffffffffffffffffffffffffffffffffffff1602179055506200015b67bd21caf76eb9648660c01b6200031960201b60201c565b856004819055506200017e67a82394e8121fc7d760c01b6200031960201b60201c565b84600581905550620001a1674702a2a2e1cc4f3460c01b6200031960201b60201c565b83600681905550620001c467b0fbd2c7a0e8d7bd60c01b6200031960201b60201c565b82600781905550620001e767eded97e55dc6a89360c01b6200031960201b60201c565b816008819055506200020a678692965b39f0869660c01b6200031960201b60201c565b806009819055506200022d67989ba565c16b9e6a60c01b6200031960201b60201c565b6001600360146101000a81548160ff02191690831515021790555050505050505050620004a2565b60008060009054906101000a900473ffffffffffffffffffffffffffffffffffffffff169050816000806101000a81548173ffffffffffffffffffffffffffffffffffffffff021916908373ffffffffffffffffffffffffffffffffffffffff1602179055508173ffffffffffffffffffffffffffffffffffffffff168173ffffffffffffffffffffffffffffffffffffffff167f8be0079c531659141344cd1fd0a4f28419497f9722a3daafe3b4186f6b6457e060405160405180910390a35050565b50565b600080fd5b600073ffffffffffffffffffffffffffffffffffffffff82169050919050565b60006200034e8262000321565b9050919050565b620003608162000341565b81146200036c57600080fd5b50565b600081519050620003808162000355565b92915050565b6000819050919050565b6200039b8162000386565b8114620003a757600080fd5b50565b600081519050620003bb8162000390565b92915050565b600080600080600080600060e0888a031215620003e357620003e26200031c565b5b6000620003f38a828b016200036f565b9750506020620004068a828b01620003aa565b9650506040620004198a828b01620003aa565b95505060606200042c8a828b01620003aa565b94505060806200043f8a828b01620003aa565b93505060a0620004528a828b01620003aa565b92505060c0620004658a828b01620003aa565b91505092959891949750929550565b6200047f8162000341565b82525050565b60006020820190506200049c600083018462000474565b92915050565b61718780620004b26000396000f3fe60806040526004361061026b5760003560e01c80638da5cb5b11610144578063c9d27afe116100b6578063dc53a7091161007a578063dc53a70914610941578063dc7822bd1461096c578063f0dda65c14610995578063f2fde38b146109be578063fb468855146109e7578063fc0c546a14610a2457610272565b8063c9d27afe14610891578063cbd38f42146108ba578063d0febe4c146108e3578063d1b85b49146108ed578063da35c6641461091657610272565b8063a68f34f711610108578063a68f34f71461073d578063a73079ac1461077a578063ad3bcade146107b7578063b187bd26146107e2578063c34531531461080d578063c7f758a81461084a57610272565b80638da5cb5b1461067e57806392bfcb3a146106a957806397761382146106d25780639b5655dc146106e9578063a028699e1461071457610272565b8063542ffa7b116101dd57806365e481e2116101a157806365e481e214610580578063676c0d77146105bd5780636ee7ee55146105e6578063715018a61461061157806373c0b5cb146106285780637ff9b5961461065357610272565b8063542ffa7b146104895780635584c4f9146104b25780635652077c146104dd57806359d177e6146105065780635fc48d7e1461054357610272565b80631d408d1e1161022f5780631d408d1e1461038d57806321598230146103b857806330109962146103e15780634091e8f01461040c57806343859632146104355780634700d3051461047257610272565b8063013cf08b14610277578063030035c4146102be5780630627d425146102e75780630eac27f41461031057806316934fc41461034d57610272565b3661027257005b600080fd5b34801561028357600080fd5b5061029e60048036038101906102999190615a58565b610a4f565b6040516102b59b9a99989796959493929190615c24565b60405180910390f35b3480156102ca57600080fd5b506102e560048036038101906102e09190615a58565b610c13565b005b3480156102f357600080fd5b5061030e60048036038101906103099190615a58565b610cd4565b005b34801561031c57600080fd5b5061033760048036038101906103329190615d09565b6110c5565b6040516103449190615d64565b60405180910390f35b34801561035957600080fd5b50610374600480360381019061036f9190615d7f565b611169565b6040516103849493929190615dac565b60405180910390f35b34801561039957600080fd5b506103a2611199565b6040516103af9190615df1565b60405180910390f35b3480156103c457600080fd5b506103df60048036038101906103da9190615a58565b61119f565b005b3480156103ed57600080fd5b506103f6611260565b6040516104039190615df1565b60405180910390f35b34801561041857600080fd5b50610433600480360381019061042e9190615d7f565b611266565b005b34801561044157600080fd5b5061045c60048036038101906104579190615d09565b61145b565b6040516104699190615d64565b60405180910390f35b34801561047e57600080fd5b5061048761148a565b005b34801561049557600080fd5b506104b060048036038101906104ab9190615a58565b611661565b005b3480156104be57600080fd5b506104c7611a52565b6040516104d49190615eca565b60405180910390f35b3480156104e957600080fd5b5061050460048036038101906104ff9190615a58565b611df0565b005b34801561051257600080fd5b5061052d60048036038101906105289190615d7f565b61248f565b60405161053a9190615df1565b60405180910390f35b34801561054f57600080fd5b5061056a60048036038101906105659190615d09565b612552565b6040516105779190615d64565b60405180910390f35b34801561058c57600080fd5b506105a760048036038101906105a29190616021565b6125f6565b6040516105b49190615df1565b60405180910390f35b3480156105c957600080fd5b506105e460048036038101906105df9190615a58565b612b37565b005b3480156105f257600080fd5b506105fb612bf8565b6040516106089190615df1565b60405180910390f35b34801561061d57600080fd5b50610626612bfe565b005b34801561063457600080fd5b5061063d612c12565b60405161064a9190615df1565b60405180910390f35b34801561065f57600080fd5b50610668612c18565b6040516106759190615df1565b60405180910390f35b34801561068a57600080fd5b50610693612c1e565b6040516106a09190616099565b60405180910390f35b3480156106b557600080fd5b506106d060048036038101906106cb9190615a58565b612c47565b005b3480156106de57600080fd5b506106e7612d08565b005b3480156106f557600080fd5b506106fe612f75565b60405161070b9190615df1565b60405180910390f35b34801561072057600080fd5b5061073b60048036038101906107369190615a58565b612fb9565b005b34801561074957600080fd5b50610764600480360381019061075f9190615a58565b6134d8565b6040516107719190616172565b60405180910390f35b34801561078657600080fd5b506107a1600480360381019061079c9190616194565b6135b5565b6040516107ae9190615df1565b60405180910390f35b3480156107c357600080fd5b506107cc613c48565b6040516107d99190616099565b60405180910390f35b3480156107ee57600080fd5b506107f7613c6e565b6040516108049190615d64565b60405180910390f35b34801561081957600080fd5b50610834600480360381019061082f9190615d7f565b613c81565b6040516108419190616288565b60405180910390f35b34801561085657600080fd5b50610871600480360381019061086c9190615a58565b613d3e565b6040516108889b9a99989796959493929190615c24565b60405180910390f35b34801561089d57600080fd5b506108b860048036038101906108b391906162cf565b613f97565b005b3480156108c657600080fd5b506108e160048036038101906108dc9190615a58565b6147f4565b005b6108eb6148b5565b005b3480156108f957600080fd5b50610914600480360381019061090f9190615a58565b614ebf565b005b34801561092257600080fd5b5061092b6153de565b6040516109389190615df1565b60405180910390f35b34801561094d57600080fd5b506109566153e4565b6040516109639190615df1565b60405180910390f35b34801561097857600080fd5b50610993600480360381019061098e9190615a58565b6153ea565b005b3480156109a157600080fd5b506109bc60048036038101906109b7919061630f565b6154ab565b005b3480156109ca57600080fd5b506109e560048036038101906109e09190615d7f565b61575b565b005b3480156109f357600080fd5b50610a0e6004803603810190610a099190615d09565b6157e1565b604051610a1b9190615d64565b60405180910390f35b348015610a3057600080fd5b50610a39615810565b604051610a4691906163ae565b60405180910390f35b600b602052806000526040600020600091509050806000018054610a72906163f8565b80601f0160208091040260200160405190810160405280929190818152602001828054610a9e906163f8565b8015610aeb5780601f10610ac057610100808354040283529160200191610aeb565b820191906000526020600020905b815481529060010190602001808311610ace57829003601f168201915b505050505090806001018054610b00906163f8565b80601f0160208091040260200160405190810160405280929190818152602001828054610b2c906163f8565b8015610b795780601f10610b4e57610100808354040283529160200191610b79565b820191906000526020600020905b815481529060010190602001808311610b5c57829003601f168201915b5050505050908060020160009054906101000a900473ffffffffffffffffffffffffffffffffffffffff16908060030154908060040154908060050154908060060154908060070160009054906101000a900460ff16908060070160019054906101000a900460ff16908060070160029054906101000a900473ffffffffffffffffffffffffffffffffffffffff1690806008015490508b565b610c2767c378ecf7b387ad4960c01b615836565b610c2f615839565b610c4367c8d9405f8fe3574360c01b615836565b610c57678713d49e53ac554060c01b615836565b610c6b67fb46aa00fb1e7e3260c01b615836565b80600581905550610c8667c79e3ffd7f9121eb60c01b615836565b610c9a67a418d36e5b30b47f60c01b615836565b7f952177133a28eea5034c93c6c70c1a8d223da94faaa45da8412c3c791111137f81604051610cc99190616475565b60405180910390a150565b610ce8670b37fed0ee665d1860c01b615836565b610cf06158c0565b610d0467607ab5527a725fd960c01b615836565b610d1867b481c09a69b54c8160c01b615836565b610d2c67a4306a4c735b2b9360c01b615836565b610d40672cdf88a8b3158c6a60c01b615836565b6000600a60003373ffffffffffffffffffffffffffffffffffffffff1673ffffffffffffffffffffffffffffffffffffffff1681526020019081526020016000209050610d9767a87f1a86d4fbf21d60c01b615836565b610dab675f980c11895165f760c01b615836565b600082148015610dcb5750610dca67e7b5084eea3a3f9660c01b615906565b5b80610df55750806001015482118015610df45750610df3677128cdac7c3d572460c01b615906565b5b5b15610e4057610e0e67f5927444136b5e6860c01b615836565b6040517f2c5211c600000000000000000000000000000000000000000000000000000000815260040160405180910390fd5b610e546795f85644494d218260c01b615836565b610e686787e67294d836377060c01b615836565b610e7c676d9d96482bfe92f560c01b615836565b8060030154421015610ece57610e9c67497c168cfde0e37860c01b615836565b6040517f14d10a0200000000000000000000000000000000000000000000000000000000815260040160405180910390fd5b610ee2673acc2459116f038b60c01b615836565b610ef667017b3731ea46d1fc60c01b615836565b81816001016000828254610f0a91906164d2565b92505081905550610f2567a8c3773e731e334360c01b615836565b610f3967cf0b26466375cd9560c01b615836565b610f4d67e2fefc0f107a1f3860c01b615836565b600260009054906101000a900473ffffffffffffffffffffffffffffffffffffffff1673ffffffffffffffffffffffffffffffffffffffff1663a9059cbb33846040518363ffffffff1660e01b8152600401610faa929190616506565b6020604051808303816000875af1158015610fc9573d6000803e3d6000fd5b505050506040513d601f19601f82011682018060405250810190610fed9190616544565b61102c576040517f08c379a0000000000000000000000000000000000000000000000000000000008152600401611023906165bd565b60405180910390fd5b61104067f47044ab4e34c78960c01b615836565b61105467b07eea7b0526e61260c01b615836565b61106867fa57841f7c6cfbc060c01b615836565b3373ffffffffffffffffffffffffffffffffffffffff167f4416ca74b4c9dd8d6070d91c267a6cf53734c0f343ced0ad02471ccb5417037e8360006040516110b19291906165dd565b60405180910390a2506110c2615911565b50565b60006110db67550d74cc26ad853360c01b615836565b6110ef671a1149b9e01e77c860c01b615836565b61110367bac92888301c2f6560c01b615836565b600d600084815260200190815260200160002060008373ffffffffffffffffffffffffffffffffffffffff1673ffffffffffffffffffffffffffffffffffffffff16815260200190815260200160002060009054906101000a900460ff16905092915050565b600a6020528060005260406000206000915090508060000154908060010154908060020154908060030154905084565b60065481565b6111b3678f72c193d1b1bfd360c01b615836565b6111bb615839565b6111cf679af688f958e5260760c01b615836565b6111e3673d7082e049f2477060c01b615836565b6111f767370cae84f138dece60c01b615836565b8060088190555061121267cd01424e0dfc801260c01b615836565b61122667fa1995a4bd3fbf3e60c01b615836565b7f952177133a28eea5034c93c6c70c1a8d223da94faaa45da8412c3c791111137f816040516112559190616652565b60405180910390a150565b60095481565b61127a677f2c54cf88489d7060c01b615836565b611282615839565b61129667f7250129ea03959a60c01b615836565b6112aa670af0a11afda2814460c01b615836565b6112be67505a27817497551360c01b615836565b6112d267ddaba1a143631b2b60c01b615836565b6112e6673047269465cd47e760c01b615836565b600073ffffffffffffffffffffffffffffffffffffffff168173ffffffffffffffffffffffffffffffffffffffff1603611355576040517f08c379a000000000000000000000000000000000000000000000000000000000815260040161134c906166cc565b60405180910390fd5b61136967563dcaad0231b7e760c01b615836565b61137d671d1a61926de59b5660c01b615836565b80600360006101000a81548173ffffffffffffffffffffffffffffffffffffffff021916908373ffffffffffffffffffffffffffffffffffffffff1602179055506113d2676fdee0db9d30d98560c01b615836565b6000600360146101000a81548160ff02191690831515021790555061140167af6bc26b725d59e260c01b615836565b61141567fb76cfb9b4f79de660c01b615836565b8073ffffffffffffffffffffffffffffffffffffffff167fa02db7c9680f52f923cc3a7d1cf764d4dac0a32c7439c70b46ecdc5daa6e2ebe60405160405180910390a250565b600c6020528160005260406000206020528060005260406000206000915091509054906101000a900460ff1681565b61149e679dcd9579145b841760c01b615836565b6114b267c5ddd6923bfd88d860c01b615836565b6114c66710ade688feb8d52d60c01b615836565b6114da67adbe118bdc7762eb60c01b615836565b600360009054906101000a900473ffffffffffffffffffffffffffffffffffffffff1673ffffffffffffffffffffffffffffffffffffffff163373ffffffffffffffffffffffffffffffffffffffff16146115755761154367baee4c151e4fe72060c01b615836565b6040517fb9e5ac5f00000000000000000000000000000000000000000000000000000000815260040160405180910390fd5b6115896798ce1249c0cc612160c01b615836565b61159d67c0f1ea40b863147260c01b615836565b6115b167aa0fcad1cfbcc28b60c01b615836565b6115c567349a69558706238260c01b615836565b6115d9675dfb450da8d6937e60c01b615836565b6001600360146101000a81548160ff021916908315150217905550611608679c8dd4f15d86ffdf60c01b615836565b61161c677e7d20dcead766ad60c01b615836565b3373ffffffffffffffffffffffffffffffffffffffff167f0b907d122e4db865e49bc04c7f1e84a1ae29e024ee225bc08c69104520c5f3f960405160405180910390a2565b6116756730fec75079dd1e0560c01b615836565b61167d6158c0565b61169167bb7722d3e7251bdf60c01b615836565b6116a567cbcc531c9a7999e560c01b615836565b6116b96742474df7b3e5c1fe60c01b615836565b6116cd67f2d959254d4807de60c01b615836565b6000600a60003373ffffffffffffffffffffffffffffffffffffffff1673ffffffffffffffffffffffffffffffffffffffff168152602001908152602001600020905061172467b98b3aabd54966c360c01b615836565b6117386773080a82d741731a60c01b615836565b60008214801561175857506117576797587e8bba5a581360c01b615906565b5b80611782575080600001548211801561178157506117806741df480e6462537c60c01b615906565b5b5b156117cd5761179b67e19e1abc0c2a86ea60c01b615836565b6040517f2c5211c600000000000000000000000000000000000000000000000000000000815260040160405180910390fd5b6117e16725400cfa163be10760c01b615836565b6117f567547c04aac855955660c01b615836565b611809671e3c3cd761e7440c60c01b615836565b806002015442101561185b576118296755894a8020f5e66160c01b615836565b6040517f14d10a0200000000000000000000000000000000000000000000000000000000815260040160405180910390fd5b61186f6706ebf3a8b6be33a860c01b615836565b61188367022cb6eec0b6ffb860c01b615836565b8181600001600082825461189791906164d2565b925050819055506118b26718125b194ad64e7160c01b615836565b6118c6670898d26e8dc5c7cb60c01b615836565b6118da67f2adb475592b0b8f60c01b615836565b600260009054906101000a900473ffffffffffffffffffffffffffffffffffffffff1673ffffffffffffffffffffffffffffffffffffffff1663a9059cbb33846040518363ffffffff1660e01b8152600401611937929190616506565b6020604051808303816000875af1158015611956573d6000803e3d6000fd5b505050506040513d601f19601f8201168201806040525081019061197a9190616544565b6119b9576040517f08c379a00000000000000000000000000000000000000000000000000000000081526004016119b0906165bd565b60405180910390fd5b6119cd67f10f4afa9bf9df9060c01b615836565b6119e1676290e9c48b01702f60c01b615836565b6119f567393d98c5b2bdbde660c01b615836565b3373ffffffffffffffffffffffffffffffffffffffff167f4416ca74b4c9dd8d6070d91c267a6cf53734c0f343ced0ad02471ccb5417037e836001604051611a3e9291906165dd565b60405180910390a250611a4f615911565b50565b6060611a686794b281b45e4573fa60c01b615836565b611a7c67c5f59ebccaf25c7460c01b615836565b611a9067c5627a369e5dab5060c01b615836565b6000611aa66755840bb5514bb1bc60c01b615836565b611aba67f19e67bcb2240ef960c01b615836565b60005b600f54811015611bbe57611adb6706d5b49e39099d4a60c01b615836565b611aef67b0c5bd8aa81a60ce60c01b615836565b60006002811115611b0357611b02615b65565b5b600b600083815260200190815260200160002060070160009054906101000a900460ff166002811115611b3957611b38615b65565b5b148015611b5c5750600b6000828152602001908152602001600020600401544211155b15611b9c57611b75679756ad4faa6c132e60c01b615836565b611b8967f6310e356f43a84260c01b615836565b8180611b94906166ec565b925050611bb1565b611bb067051e15166859f69060c01b615836565b5b8080600101915050611abd565b50611bd367a8e7aaca27317bae60c01b615836565b611be76730fc065d135b841c60c01b615836565b60008167ffffffffffffffff811115611c0357611c02615ef6565b5b604051908082528060200260200182016040528015611c315781602001602082028036833780820191505090505b509050611c4867af0c56f74069f8b260c01b615836565b611c5c671ab31d007aa45a5260c01b615836565b6000611c72670f3702ec86ca29db60c01b615836565b611c866714bd4437cb1ba63a60c01b615836565b60005b600f54811015611dbe57611ca767ac1c77959650913060c01b615836565b611cbb673fbf0394fb79e71860c01b615836565b60006002811115611ccf57611cce615b65565b5b600b600083815260200190815260200160002060070160009054906101000a900460ff166002811115611d0557611d04615b65565b5b148015611d285750600b6000828152602001908152602001600020600401544211155b15611d9c57611d41679e859e51aa2c437660c01b615836565b611d5567b989d0beffab7eff60c01b615836565b80838381518110611d6957611d68616734565b5b602002602001018181525050611d8967b130ae6268667d3860c01b615836565b8180611d94906166ec565b925050611db1565b611db0675cee159262760fb660c01b615836565b5b8080600101915050611c89565b50611dd3678356f93c8684f2a860c01b615836565b611de767e10a6155c0a00ffe60c01b615836565b81935050505090565b611e0467a7751327723ba42560c01b615836565b611e1867335e2afca5b1a21f60c01b615836565b611e2c674433c344d2e472b160c01b615836565b6000600b60008381526020019081526020016000209050611e5767e948529a5119ea2460c01b615836565b611e6b67a23022daa1aec82660c01b615836565b6000816003015403611ebd57611e8b67508faaa2bf3d691860c01b615836565b6040517fee03280800000000000000000000000000000000000000000000000000000000815260040160405180910390fd5b611ed167a136c52d4711e89860c01b615836565b611ee5677a993fa391adaf6460c01b615836565b611ef9670b39b755cc5fe0db60c01b615836565b60006002811115611f0d57611f0c615b65565b5b8160070160009054906101000a900460ff166002811115611f3157611f30615b65565b5b14611f7c57611f4a675fb51b204e56702a60c01b615836565b6040517f7becc13f00000000000000000000000000000000000000000000000000000000815260040160405180910390fd5b611f90673f7b8fe5f787756060c01b615836565b611fa4672274d8911411fa7260c01b615836565b611fb867c743af2765d44dba60c01b615836565b8060040154421161200957611fd767b1bf19b45e06ddc260c01b615836565b6040517f7362802800000000000000000000000000000000000000000000000000000000815260040160405180910390fd5b61201d678c89c70f829f7ae560c01b615836565b612031674429822f5b9f00d460c01b615836565b61204567044b103fda55ea0560c01b615836565b8060060154816005015411156123c457612069679cef24028f8be3cf60c01b615836565b61207d67986d72c5e4b6719760c01b615836565b60018160070160006101000a81548160ff021916908360028111156120a5576120a4615b65565b5b02179055506120be67eada28a11062c79160c01b615836565b6120d267889fd5eefe2a096b60c01b615836565b6001808111156120e5576120e4615b65565b5b8160070160019054906101000a900460ff16600181111561210957612108615b65565b5b036123aa5761212267a030006b9df990da60c01b615836565b612136671567044646ef844360c01b615836565b61214a673c787242deb2360e60c01b615836565b61215e671639414b9299f19260c01b615836565b80600801544710156121a5576040517f08c379a000000000000000000000000000000000000000000000000000000000815260040161219c906167af565b60405180910390fd5b6121b967d201a5e22e8c86b860c01b615836565b6121cd672c5d343bd24e108c60c01b615836565b6121e167a6c04c50931797f760c01b615836565b60008160070160029054906101000a900473ffffffffffffffffffffffffffffffffffffffff1673ffffffffffffffffffffffffffffffffffffffff16826008015460405161222f90616800565b60006040518083038185875af1925050503d806000811461226c576040519150601f19603f3d011682016040523d82523d6000602084013e612271565b606091505b5050905061228967a2abf05035cbb69660c01b615836565b61229d67b60299dbf4e4e93360c01b615836565b6122b1677afa99380858bce760c01b615836565b806122f1576040517f08c379a00000000000000000000000000000000000000000000000000000000081526004016122e890616861565b60405180910390fd5b61230567126832b9ebf66a0560c01b615836565b6123196707ff56bf3c89c61560c01b615836565b61232d670432a61e8afa1e9160c01b615836565b8160070160029054906101000a900473ffffffffffffffffffffffffffffffffffffffff1673ffffffffffffffffffffffffffffffffffffffff16837fccf51f70e4018e2f274165b7d79ee3487cf27f890b55fb8d57e3b4cb5c6ffc79846008015460405161239c9190615df1565b60405180910390a3506123bf565b6123be675304d5860f74d0e260c01b615836565b5b61241a565b6123d86789f23bee8d39b92a60c01b615836565b6123ec672c8ba0d318298f7660c01b615836565b60028160070160006101000a81548160ff0219169083600281111561241457612413615b65565b5b02179055505b61242e6702d9f8fcc6386e7160c01b615836565b612442675655ccda3db59f0d60c01b615836565b817f5b9614f21773d68c0b149bda804ff3d491c8bc8795f7ed236cc97804cd0053898260070160009054906101000a900460ff166040516124839190616881565b60405180910390a25050565b60006124a56706f97ceb399160c860c01b615836565b6124b96774cf03085c24939b60c01b615836565b6124cd67b5da28abb73e00a760c01b615836565b6000600a60008473ffffffffffffffffffffffffffffffffffffffff1673ffffffffffffffffffffffffffffffffffffffff1681526020019081526020016000206000015490506125286798d7a70e23c9522c60c01b615836565b61253c67af3affbcccc234e460c01b615836565b6005548161254a91906168cb565b915050919050565b6000612568678ddcdbd9568592ef60c01b615836565b61257c672a2c12ab15646cb260c01b615836565b612590671659ede2b8fbd40c60c01b615836565b600c600084815260200190815260200160002060008373ffffffffffffffffffffffffffffffffffffffff1673ffffffffffffffffffffffffffffffffffffffff16815260200190815260200160002060009054906101000a900460ff16905092915050565b600061260c673a10da048c59135360c01b615836565b612620673efa9a964ccf912360c01b615836565b612634670e47e29bea6a0f2f60c01b615836565b61264867e82f624b8be0cab460c01b615836565b600360149054906101000a900460ff16156126a357612671671b02bb7c1931497d60c01b615836565b6040517fb5784fa500000000000000000000000000000000000000000000000000000000815260040160405180910390fd5b6126b767269c1684e205135a60c01b615836565b6126cb67f474d9358d04271160c01b615836565b6126df67d988b65eb7f6f63360c01b615836565b6126f36787558f57209ccc6f60c01b615836565b61270767ba7f7f7db0faa2d860c01b615836565b61271b671f08145b7f13f55f60c01b615836565b600754600a60003373ffffffffffffffffffffffffffffffffffffffff1673ffffffffffffffffffffffffffffffffffffffff1681526020019081526020016000206001015410156127c15761277b67e89139a0da673e3360c01b615836565b61278f6706ca3779ad29a33a60c01b615836565b6040517ff1bc94d200000000000000000000000000000000000000000000000000000000815260040160405180910390fd5b6127d567db1115c8f16a3c5360c01b615836565b6127e9672c662167a326e10760c01b615836565b6127fd67fc32dd757f13d61060c01b615836565b6000600f5490506128186725d31f31deb40dea60c01b615836565b600f600081548092919061282b906166ec565b919050555061284467f119e5acebb7f0f760c01b615836565b61285867505be0b125c8c1f460c01b615836565b6000600b6000838152602001908152602001600020905061288367cbfe9d4a2e466f7d60c01b615836565b848160000190816128949190616a9e565b506128a9671e1c0c55789156b860c01b615836565b838160010190816128ba9190616a9e565b506128cf67b6ee2d2149df8a2c60c01b615836565b338160020160006101000a81548173ffffffffffffffffffffffffffffffffffffffff021916908373ffffffffffffffffffffffffffffffffffffffff160217905550612926679d8e88d47170303960c01b615836565b4281600301819055506129436768ce091ac4f029a960c01b615836565b600954426129519190616b70565b816004018190555061296d675bd352de228d72d660c01b615836565b6000816005018190555061298b6782fb277ab3ea1e8b60c01b615836565b600081600601819055506129a967c1a0ea908069241460c01b615836565b60008160070160006101000a81548160ff021916908360028111156129d1576129d0615b65565b5b02179055506129ea672f5a22b129a8ea4c60c01b615836565b60008160070160016101000a81548160ff02191690836001811115612a1257612a11615b65565b5b0217905550612a2b67d513977cbcfff92860c01b615836565b60008160070160026101000a81548173ffffffffffffffffffffffffffffffffffffffff021916908373ffffffffffffffffffffffffffffffffffffffff160217905550612a83675416ef15356ab8c060c01b615836565b60008160080181905550612aa1673a9ee21bcf65dfd560c01b615836565b612ab567edb79a869df23e2d60c01b615836565b3373ffffffffffffffffffffffffffffffffffffffff16827f7585f467599d0f008985f231af99293be388626ac16ca59505c2f8f88969cd6387604051612afc9190616ba4565b60405180910390a3612b1867d0fad36bd8556b6b60c01b615836565b612b2c67ef6ec72282f5d15d60c01b615836565b819250505092915050565b612b4b67093f5b1528fabc0a60c01b615836565b612b53615839565b612b676777a7ceb01f29cafa60c01b615836565b612b7b67ff80706d9db60a9960c01b615836565b612b8f674c3b759ce185effe60c01b615836565b80600481905550612baa6798c22eff17cb3b2760c01b615836565b612bbe6756c045291a0f795660c01b615836565b7f952177133a28eea5034c93c6c70c1a8d223da94faaa45da8412c3c791111137f81604051612bed9190616c12565b60405180910390a150565b60085481565b612c06615839565b612c10600061591a565b565b60075481565b60045481565b60008060009054906101000a900473ffffffffffffffffffffffffffffffffffffffff16905090565b612c5b674f772b60f9b141fa60c01b615836565b612c63615839565b612c776707e8d42f982e539160c01b615836565b612c8b6797cc3b96889eaf8b60c01b615836565b612c9f67772fa8cb404ca01860c01b615836565b80600681905550612cba67ebeb0875ff2bffbf60c01b615836565b612cce67e520f6b7369e20c160c01b615836565b7f952177133a28eea5034c93c6c70c1a8d223da94faaa45da8412c3c791111137f81604051612cfd9190616c8c565b60405180910390a150565b612d1c67c968083d8a508a8060c01b615836565b612d3067c5ddd6923bfd88d860c01b615836565b612d446710ade688feb8d52d60c01b615836565b612d5867adbe118bdc7762eb60c01b615836565b600360009054906101000a900473ffffffffffffffffffffffffffffffffffffffff1673ffffffffffffffffffffffffffffffffffffffff163373ffffffffffffffffffffffffffffffffffffffff1614612df357612dc167baee4c151e4fe72060c01b615836565b6040517fb9e5ac5f00000000000000000000000000000000000000000000000000000000815260040160405180910390fd5b612e076798ce1249c0cc612160c01b615836565b612e1b67c0f1ea40b863147260c01b615836565b612e2f67a7ecdac696bf42ad60c01b615836565b612e436738417f968f4c015460c01b615836565b612e576771dbefe9be59182b60c01b615836565b612e6b675386b73a3f3217d060c01b615836565b600360149054906101000a900460ff16612ec557612e9367bdc8fe075c0d3bb460c01b615836565b6040517f6cd6020100000000000000000000000000000000000000000000000000000000815260040160405180910390fd5b612ed967a3e30fa5cdce070e60c01b615836565b612eed67c27f84b56dafaf6960c01b615836565b6000600360146101000a81548160ff021916908315150217905550612f1c67bb2ead47402372f460c01b615836565b612f30671b246a44f570d78c60c01b615836565b3373ffffffffffffffffffffffffffffffffffffffff167fa2e764bd6010df61a2c087e90137317fdd752e4f6e3804ca8df0d6ed16f3014960405160405180910390a2565b6000612f8b674192e2e1bba1623b60c01b615836565b612f9f6744a5feeff02f01ac60c01b615836565b612fb367c02c08cccd0423ce60c01b615836565b47905090565b612fcd675c1c5df6eff32b7160c01b615836565b612fe1673efa9a964ccf912360c01b615836565b612ff5670e47e29bea6a0f2f60c01b615836565b61300967e82f624b8be0cab460c01b615836565b600360149054906101000a900460ff161561306457613032671b02bb7c1931497d60c01b615836565b6040517fb5784fa500000000000000000000000000000000000000000000000000000000815260040160405180910390fd5b61307867269c1684e205135a60c01b615836565b61308c67f474d9358d04271160c01b615836565b6130a06749c794afef0253d660c01b615836565b6130b4675e9faee4c319e9d860c01b615836565b6130c8677d54a636b5431c4160c01b615836565b6130dc67063786281eb9230360c01b615836565b6130f0676fb38090c1587f4a60c01b615836565b600073ffffffffffffffffffffffffffffffffffffffff16600360009054906101000a900473ffffffffffffffffffffffffffffffffffffffff1673ffffffffffffffffffffffffffffffffffffffff160361318c5761315a67af9a9010c5e5149f60c01b615836565b6040517fce256ac000000000000000000000000000000000000000000000000000000000815260040160405180910390fd5b6131a06703b30dde05a40c8860c01b615836565b6131b467450c8a6d73604cd260c01b615836565b6131c867e4b402b82bcc0ae160c01b615836565b6131dc67e980d9cac6934f5160c01b615836565b6131f067b22c59ca2437e57260c01b615836565b61320467939ed138303a308860c01b615836565b600081036132525761322067569d5692edc7e54f60c01b615836565b6040517f2c5211c600000000000000000000000000000000000000000000000000000000815260040160405180910390fd5b61326667560f8ccacb1598ab60c01b615836565b61327a6757bf4c3d18677c4760c01b615836565b61328e67b23c0d3fd041fca960c01b615836565b6132a267091a4c3dc9dfebec60c01b615836565b600260009054906101000a900473ffffffffffffffffffffffffffffffffffffffff1673ffffffffffffffffffffffffffffffffffffffff166323b872dd3330846040518463ffffffff1660e01b815260040161330193929190616cba565b6020604051808303816000875af1158015613320573d6000803e3d6000fd5b505050506040513d601f19601f820116820180604052508101906133449190616544565b613383576040517f08c379a000000000000000000000000000000000000000000000000000000000815260040161337a906165bd565b60405180910390fd5b61339767614400a5afa3569560c01b615836565b6133ab672b56c79d5727bc0160c01b615836565b6133bf67628eee62fac191fe60c01b615836565b6000600a60003373ffffffffffffffffffffffffffffffffffffffff1673ffffffffffffffffffffffffffffffffffffffff1681526020019081526020016000209050613416673a809e34a2dd913660c01b615836565b8181600101600082825461342a9190616b70565b92505081905550613445671dcb4fc7835692c860c01b615836565b600854426134539190616b70565b816003018190555061346f6775ebe7e665bbeb7960c01b615836565b613483675b1ae1c2100447d460c01b615836565b3373ffffffffffffffffffffffffffffffffffffffff167f37d4053e34fde482e96f6bcd424dfa31342cbd5fe184d497fb3c8bb4b4b975808360006040516134cc9291906165dd565b60405180910390a25050565b60606134ee679409bed255ecce9460c01b615836565b613502671fef04f44bdb26c160c01b615836565b6135166750e8bdc81ad68db460c01b615836565b600e60008381526020019081526020016000208054806020026020016040519081016040528092919081815260200182805480156135a957602002820191906000526020600020905b8160009054906101000a900473ffffffffffffffffffffffffffffffffffffffff1673ffffffffffffffffffffffffffffffffffffffff168152602001906001019080831161355f575b50505050509050919050565b60006135cb675b4e6c0ec82ac59960c01b615836565b6135df673efa9a964ccf912360c01b615836565b6135f3670e47e29bea6a0f2f60c01b615836565b61360767e82f624b8be0cab460c01b615836565b600360149054906101000a900460ff161561366257613630671b02bb7c1931497d60c01b615836565b6040517fb5784fa500000000000000000000000000000000000000000000000000000000815260040160405180910390fd5b61367667269c1684e205135a60c01b615836565b61368a67f474d9358d04271160c01b615836565b61369e67622605ee580ce11e60c01b615836565b6136b267f1a9c2a30907ea4660c01b615836565b6136c6673a3288b1d91d7e0360c01b615836565b6136da67a172c9a3dbd631c460c01b615836565b600754600a60003373ffffffffffffffffffffffffffffffffffffffff1673ffffffffffffffffffffffffffffffffffffffff1681526020019081526020016000206001015410156137805761373a6712b69ffa0d73273e60c01b615836565b61374e67b802ddf81ca8bf7760c01b615836565b6040517ff1bc94d200000000000000000000000000000000000000000000000000000000815260040160405180910390fd5b613794670f9d0a7a8f64fd2860c01b615836565b6137a867c6a7805178906a9d60c01b615836565b6137bc678009b2b84f95241260c01b615836565b6137d06799e3b56aa925df4560c01b615836565b600073ffffffffffffffffffffffffffffffffffffffff168373ffffffffffffffffffffffffffffffffffffffff160361383f576040517f08c379a000000000000000000000000000000000000000000000000000000000815260040161383690616d3d565b60405180910390fd5b613853672b51ea1df5c08d3060c01b615836565b61386767ce788b5595bf4a4260c01b615836565b61387b67aaea1fcac16b4adb60c01b615836565b61388f67c0399f9655bc1a5160c01b615836565b600082116138d2576040517f08c379a00000000000000000000000000000000000000000000000000000000081526004016138c990616da9565b60405180910390fd5b6138e667195c7bc0a20e145960c01b615836565b6138fa674f1cf8f75792eed660c01b615836565b61390e674a968c9519f1a3b260c01b615836565b6000600f54905061392967d06056e7476e2f9960c01b615836565b600f600081548092919061393c906166ec565b9190505550613955675fd9af325392842560c01b615836565b613969673e5d2ae0c10be80a60c01b615836565b6000600b6000838152602001908152602001600020905061399467bf6b650ae198405f60c01b615836565b868160000190816139a59190616a9e565b506139ba67edfe8a83d2a17e2060c01b615836565b858160010190816139cb9190616a9e565b506139e067ae99b6655cdb083760c01b615836565b338160020160006101000a81548173ffffffffffffffffffffffffffffffffffffffff021916908373ffffffffffffffffffffffffffffffffffffffff160217905550613a37670bacb0ab70f1516860c01b615836565b428160030181905550613a5467c4f7afbc8a4c9f2160c01b615836565b60095442613a629190616b70565b8160040181905550613a7e67220f5fad271e1a9b60c01b615836565b60008160050181905550613a9c67fdc9d42f3b80565b60c01b615836565b60008160060181905550613aba67f31ce21d2ddc661b60c01b615836565b60008160070160006101000a81548160ff02191690836002811115613ae257613ae1615b65565b5b0217905550613afb6705fb0f6a2fec7f6760c01b615836565b60018160070160016101000a81548160ff02191690836001811115613b2357613b22615b65565b5b0217905550613b3c67ab8e630b67ffb58360c01b615836565b848160070160026101000a81548173ffffffffffffffffffffffffffffffffffffffff021916908373ffffffffffffffffffffffffffffffffffffffff160217905550613b9367a9867f5186e976b560c01b615836565b838160080181905550613bb067a57e8340d4fc78d560c01b615836565b613bc4674e1a7e9429b07a6460c01b615836565b3373ffffffffffffffffffffffffffffffffffffffff16827f7585f467599d0f008985f231af99293be388626ac16ca59505c2f8f88969cd6389604051613c0b9190616ba4565b60405180910390a3613c2767e537126336ddaf5160c01b615836565b613c3b6726eec01f7cfb05aa60c01b615836565b8192505050949350505050565b600360009054906101000a900473ffffffffffffffffffffffffffffffffffffffff1681565b600360149054906101000a900460ff1681565b613c896159e6565b613c9d673b28c0dc21db422360c01b615836565b613cb167f99a35c10a83a3f260c01b615836565b613cc5670bd59e52ba03306260c01b615836565b600a60008373ffffffffffffffffffffffffffffffffffffffff1673ffffffffffffffffffffffffffffffffffffffff1681526020019081526020016000206040518060800160405290816000820154815260200160018201548152602001600282015481526020016003820154815250509050919050565b6060806000806000806000806000806000613d636755eb1fdaea91302560c01b615836565b613d7767f68c0a28fbed324860c01b615836565b613d8b67b1fc40d5ebf4af4360c01b615836565b6000600b60008e81526020019081526020016000209050613db667a854f347e64218f360c01b615836565b613dca67380c6b4ab7da01e860c01b615836565b80600001816001018260020160009054906101000a900473ffffffffffffffffffffffffffffffffffffffff1683600301548460040154856005015486600601548760070160009054906101000a900460ff168860070160019054906101000a900460ff168960070160029054906101000a900473ffffffffffffffffffffffffffffffffffffffff168a600801548a8054613e65906163f8565b80601f0160208091040260200160405190810160405280929190818152602001828054613e91906163f8565b8015613ede5780601f10613eb357610100808354040283529160200191613ede565b820191906000526020600020905b815481529060010190602001808311613ec157829003601f168201915b50505050509a50898054613ef1906163f8565b80601f0160208091040260200160405190810160405280929190818152602001828054613f1d906163f8565b8015613f6a5780601f10613f3f57610100808354040283529160200191613f6a565b820191906000526020600020905b815481529060010190602001808311613f4d57829003601f168201915b505050505099509b509b509b509b509b509b509b509b509b509b509b505091939597999b90929496989a50565b613fab6778249c0ac3d79cde60c01b615836565b613fbf673efa9a964ccf912360c01b615836565b613fd3670e47e29bea6a0f2f60c01b615836565b613fe767e82f624b8be0cab460c01b615836565b600360149054906101000a900460ff161561404257614010671b02bb7c1931497d60c01b615836565b6040517fb5784fa500000000000000000000000000000000000000000000000000000000815260040160405180910390fd5b61405667269c1684e205135a60c01b615836565b61406a67f474d9358d04271160c01b615836565b61407e6757f17eb87a0a5ecb60c01b615836565b61409267b1c75754f1f1dfae60c01b615836565b6140a667716e29c7b887e63660c01b615836565b6140ba672085d8567057c45860c01b615836565b6000600b600084815260200190815260200160002090506140e5674031d58759fb674160c01b615836565b6140f967047373f7c50181af60c01b615836565b600081600301540361414b5761411967e21ed2dc9d35a85260c01b615836565b6040517fee03280800000000000000000000000000000000000000000000000000000000815260040160405180910390fd5b61415f67de18caa80809016a60c01b615836565b61417367561e23cd262f61bb60c01b615836565b614187670313abdf456a52fb60c01b615836565b6000600281111561419b5761419a615b65565b5b8160070160009054906101000a900460ff1660028111156141bf576141be615b65565b5b1461420a576141d867b6f5c6570775197f60c01b615836565b6040517f7becc13f00000000000000000000000000000000000000000000000000000000815260040160405180910390fd5b61421e67a03e851994fb910260c01b615836565b61423267f1a54972a4e61ec560c01b615836565b61424667d64260a5a55208e860c01b615836565b80600401544211156142985761426667eb1cc28d92d818e860c01b615836565b6040517f7becc13f00000000000000000000000000000000000000000000000000000000815260040160405180910390fd5b6142ac67472a2899ba8293cd60c01b615836565b6142c067b91aa5aa7189576160c01b615836565b6142d4676ccd15bf474b4efc60c01b615836565b600654600a60003373ffffffffffffffffffffffffffffffffffffffff1673ffffffffffffffffffffffffffffffffffffffff1681526020019081526020016000206000015410156143665761433467cd01ab6a0a80919f60c01b615836565b6040517ff1bc94d200000000000000000000000000000000000000000000000000000000815260040160405180910390fd5b61437a67daa800cc4f0d9b4260c01b615836565b61438d66fe46242367fbdb60c01b615836565b6143a1671ae9d3b7b5796fc060c01b615836565b600c600084815260200190815260200160002060003373ffffffffffffffffffffffffffffffffffffffff1673ffffffffffffffffffffffffffffffffffffffff16815260200190815260200160002060009054906101000a900460ff161561444a5761441867bcaf5c5e20cfd8ea60c01b615836565b6040517f7c9a1cf900000000000000000000000000000000000000000000000000000000815260040160405180910390fd5b61445e670b62d0aa50027c1160c01b615836565b61447267801fd33bdc9b767f60c01b615836565b61448667bcc96a5e13ebc42a60c01b615836565b60006144913361248f565b90506144a76771f1d5bbdf8b44a960c01b615836565b6144bb675d1c71561205549b60c01b615836565b6144cf679ec09c7ee7a4813560c01b615836565b60008111614512576040517f08c379a000000000000000000000000000000000000000000000000000000000815260040161450990616e15565b60405180910390fd5b61452667f63d6ff82f524ccd60c01b615836565b61453a67d35faa7eb9a93ae960c01b615836565b6001600c600086815260200190815260200160002060003373ffffffffffffffffffffffffffffffffffffffff1673ffffffffffffffffffffffffffffffffffffffff16815260200190815260200160002060006101000a81548160ff0219169083151502179055506145b7678bdfde5844cd64d960c01b615836565b82600d600086815260200190815260200160002060003373ffffffffffffffffffffffffffffffffffffffff1673ffffffffffffffffffffffffffffffffffffffff16815260200190815260200160002060006101000a81548160ff02191690831515021790555061463367034fe0435209b54460c01b615836565b61464767c6f730535ea9d9d960c01b615836565b600e6000858152602001908152602001600020339080600181540180825580915050600190039060005260206000200160009091909190916101000a81548173ffffffffffffffffffffffffffffffffffffffff021916908373ffffffffffffffffffffffffffffffffffffffff1602179055506146cf67194318555b175b1d60c01b615836565b6146e367835d90ca37c6fcb760c01b615836565b8215614731576146fd6746abadcc8211433f60c01b615836565b614711673bbd8c93f4cc534d60c01b615836565b808260050160008282546147259190616b70565b92505081905550614775565b614745674328661c06acc85060c01b615836565b61475967c9b826a43987c3e760c01b615836565b8082600601600082825461476d9190616b70565b925050819055505b6147896737316f94c9fe818e60c01b615836565b61479d6729fe70b403da33ac60c01b615836565b3373ffffffffffffffffffffffffffffffffffffffff16847f7c2de587c00d75474a0c6c6fa96fd3b45dc974cd4e8a75f712bb84c950dce1b585846040516147e6929190616e35565b60405180910390a350505050565b61480867918978da01008dbd60c01b615836565b614810615839565b61482467aa642df6a8a3808e60c01b615836565b61483867692c34dfe110a72a60c01b615836565b61484c67a897facf0ff7522860c01b615836565b80600781905550614867671abbf3c81344d01060c01b615836565b61487b67c832acce2db64d3e60c01b615836565b7f952177133a28eea5034c93c6c70c1a8d223da94faaa45da8412c3c791111137f816040516148aa9190616eaa565b60405180910390a150565b6148c9673117b3659e77639660c01b615836565b6148dd673efa9a964ccf912360c01b615836565b6148f1670e47e29bea6a0f2f60c01b615836565b61490567e82f624b8be0cab460c01b615836565b600360149054906101000a900460ff16156149605761492e671b02bb7c1931497d60c01b615836565b6040517fb5784fa500000000000000000000000000000000000000000000000000000000815260040160405180910390fd5b61497467269c1684e205135a60c01b615836565b61498867f474d9358d04271160c01b615836565b61499c67fa40772fd847b1ee60c01b615836565b6149b067ce8e3c55ed68262c60c01b615836565b6149c4677d54a636b5431c4160c01b615836565b6149d867063786281eb9230360c01b615836565b6149ec676fb38090c1587f4a60c01b615836565b600073ffffffffffffffffffffffffffffffffffffffff16600360009054906101000a900473ffffffffffffffffffffffffffffffffffffffff1673ffffffffffffffffffffffffffffffffffffffff1603614a8857614a5667af9a9010c5e5149f60c01b615836565b6040517fce256ac000000000000000000000000000000000000000000000000000000000815260040160405180910390fd5b614a9c6703b30dde05a40c8860c01b615836565b614ab067450c8a6d73604cd260c01b615836565b614ac467308467f350d106fb60c01b615836565b614ad867d4fa35d01f42aaad60c01b615836565b614ae06158c0565b614af467fb5b5c7b1160677f60c01b615836565b614b0867c9e6e77c048fa15b60c01b615836565b614b1c67ed39f4e223afaeb960c01b615836565b614b3067cd448fab482aea4f60c01b615836565b60003403614b7e57614b4c671b0ec56723c1253b60c01b615836565b6040517f2c5211c600000000000000000000000000000000000000000000000000000000815260040160405180910390fd5b614b9267f5a65390e10a82bd60c01b615836565b614ba667d76a2f6fd9620eab60c01b615836565b614bba67bbda600d3feb11bc60c01b615836565b6000600454670de0b6b3a764000034614bd39190616ed8565b614bdd91906168cb565b9050614bf367a5146548a371956d60c01b615836565b614c076749c2e107a2b6b28c60c01b615836565b614c1b67f4638fc7b767203560c01b615836565b80600260009054906101000a900473ffffffffffffffffffffffffffffffffffffffff1673ffffffffffffffffffffffffffffffffffffffff166370a08231306040518263ffffffff1660e01b8152600401614c779190616099565b602060405180830381865afa158015614c94573d6000803e3d6000fd5b505050506040513d601f19601f82011682018060405250810190614cb89190616f2f565b1015614cf9576040517f08c379a0000000000000000000000000000000000000000000000000000000008152600401614cf090616fa8565b60405180910390fd5b614d0d67c5256372bc1a543160c01b615836565b614d2167a037ec99a7e5743760c01b615836565b614d35675c3f5a359ba2458b60c01b615836565b614d496779a0463e5ba95d3e60c01b615836565b600260009054906101000a900473ffffffffffffffffffffffffffffffffffffffff1673ffffffffffffffffffffffffffffffffffffffff1663a9059cbb33836040518363ffffffff1660e01b8152600401614da6929190616506565b6020604051808303816000875af1158015614dc5573d6000803e3d6000fd5b505050506040513d601f19601f82011682018060405250810190614de99190616544565b614e28576040517f08c379a0000000000000000000000000000000000000000000000000000000008152600401614e1f906165bd565b60405180910390fd5b614e3c67a8a92934985f7e4460c01b615836565b614e5067fb797ee64119b9b960c01b615836565b614e6467c8b8e5a9d142419660c01b615836565b3373ffffffffffffffffffffffffffffffffffffffff167f8fafebcaf9d154343dad25669bfa277f4fbacd7ac6b0c4fed522580e040a0f338234604051614eac929190616fc8565b60405180910390a250614ebd615911565b565b614ed367d663445a5a471be560c01b615836565b614ee7673efa9a964ccf912360c01b615836565b614efb670e47e29bea6a0f2f60c01b615836565b614f0f67e82f624b8be0cab460c01b615836565b600360149054906101000a900460ff1615614f6a57614f38671b02bb7c1931497d60c01b615836565b6040517fb5784fa500000000000000000000000000000000000000000000000000000000815260040160405180910390fd5b614f7e67269c1684e205135a60c01b615836565b614f9267f474d9358d04271160c01b615836565b614fa667425d78b4178684cd60c01b615836565b614fba67dce5e06d70d8a5ca60c01b615836565b614fce677d54a636b5431c4160c01b615836565b614fe267063786281eb9230360c01b615836565b614ff6676fb38090c1587f4a60c01b615836565b600073ffffffffffffffffffffffffffffffffffffffff16600360009054906101000a900473ffffffffffffffffffffffffffffffffffffffff1673ffffffffffffffffffffffffffffffffffffffff16036150925761506067af9a9010c5e5149f60c01b615836565b6040517fce256ac000000000000000000000000000000000000000000000000000000000815260040160405180910390fd5b6150a66703b30dde05a40c8860c01b615836565b6150ba67450c8a6d73604cd260c01b615836565b6150ce67054bae22e46399c960c01b615836565b6150e26705b0f617e06429d660c01b615836565b6150f66728be414dbd4fca2260c01b615836565b61510a6708384f10f3cb568f60c01b615836565b600081036151585761512667ee0e3a7376a1af2060c01b615836565b6040517f2c5211c600000000000000000000000000000000000000000000000000000000815260040160405180910390fd5b61516c6776037aedc5acf0b460c01b615836565b615180673e0f1909edbf903b60c01b615836565b61519467d5092c3b75e0618760c01b615836565b6151a867e0630319fd4b309660c01b615836565b600260009054906101000a900473ffffffffffffffffffffffffffffffffffffffff1673ffffffffffffffffffffffffffffffffffffffff166323b872dd3330846040518463ffffffff1660e01b815260040161520793929190616cba565b6020604051808303816000875af1158015615226573d6000803e3d6000fd5b505050506040513d601f19601f8201168201806040525081019061524a9190616544565b615289576040517f08c379a0000000000000000000000000000000000000000000000000000000008152600401615280906165bd565b60405180910390fd5b61529d67219d464b0a50010a60c01b615836565b6152b1672344894685d8229b60c01b615836565b6152c567da73abfed9d2cb3060c01b615836565b6000600a60003373ffffffffffffffffffffffffffffffffffffffff1673ffffffffffffffffffffffffffffffffffffffff168152602001908152602001600020905061531c672c90b9402afc918d60c01b615836565b818160000160008282546153309190616b70565b9250508190555061534b674ebacd577476dfcb60c01b615836565b600854426153599190616b70565b8160020181905550615375675bf3824cb0aef65460c01b615836565b61538967bcda16a23fda66f760c01b615836565b3373ffffffffffffffffffffffffffffffffffffffff167f37d4053e34fde482e96f6bcd424dfa31342cbd5fe184d497fb3c8bb4b4b975808360016040516153d29291906165dd565b60405180910390a25050565b600f5481565b60055481565b6153fe677c84f01dee9df47960c01b615836565b615406615839565b61541a6795be491b68e5c4c560c01b615836565b61542e6787852360aa5b0a8560c01b615836565b61544267a5e6e6f9a4722a0760c01b615836565b8060098190555061545d67d172c182a12ff27160c01b615836565b61547167b11704a11dedc36d60c01b615836565b7f952177133a28eea5034c93c6c70c1a8d223da94faaa45da8412c3c791111137f816040516154a0919061703d565b60405180910390a150565b6154bf67181adf7e34e6b8cd60c01b615836565b6154c7615839565b6154db677e2d8024df3a57a060c01b615836565b6154ef67ed0eba9293734e4660c01b615836565b61550367b2c0e54cdfa60e8260c01b615836565b61551767d64dedbc1f8dfa8060c01b615836565b61552b67a5916010aeeb844260c01b615836565b600073ffffffffffffffffffffffffffffffffffffffff168273ffffffffffffffffffffffffffffffffffffffff160361559a576040517f08c379a0000000000000000000000000000000000000000000000000000000008152600401615591906170b7565b60405180910390fd5b6155ae674969200c773d6d7d60c01b615836565b6155c267045f736053f2b44f60c01b615836565b6155d667f2515bcbeb9b80cb60c01b615836565b6155ea67b138cba92d61a56d60c01b615836565b6000811161562d576040517f08c379a000000000000000000000000000000000000000000000000000000000815260040161562490616da9565b60405180910390fd5b615641671dfd6cb567d5642660c01b615836565b615655673bf408848a5c7bd260c01b615836565b61566967d6ba2736204b249c60c01b615836565b600260009054906101000a900473ffffffffffffffffffffffffffffffffffffffff1673ffffffffffffffffffffffffffffffffffffffff166340c10f1983836040518363ffffffff1660e01b81526004016156c6929190616506565b600060405180830381600087803b1580156156e057600080fd5b505af11580156156f4573d6000803e3d6000fd5b5050505061570c67d0b13cf1cc9e0e7460c01b615836565b6157206752a748cab356756160c01b615836565b7f952177133a28eea5034c93c6c70c1a8d223da94faaa45da8412c3c791111137f8160405161574f9190617123565b60405180910390a15050565b615763615839565b600073ffffffffffffffffffffffffffffffffffffffff168173ffffffffffffffffffffffffffffffffffffffff16036157d55760006040517f1e4fbdf70000000000000000000000000000000000000000000000000000000081526004016157cc9190616099565b60405180910390fd5b6157de8161591a565b50565b600d6020528160005260406000206020528060005260406000206000915091509054906101000a900460ff1681565b600260009054906101000a900473ffffffffffffffffffffffffffffffffffffffff1681565b50565b6158416159de565b73ffffffffffffffffffffffffffffffffffffffff1661585f612c1e565b73ffffffffffffffffffffffffffffffffffffffff16146158be576158826159de565b6040517f118cdaa70000000000000000000000000000000000000000000000000000000081526004016158b59190616099565b60405180910390fd5b565b6002600154036158fc576040517f3ee5aeb500000000000000000000000000000000000000000000000000000000815260040160405180910390fd5b6002600181905550565b600060019050919050565b60018081905550565b60008060009054906101000a900473ffffffffffffffffffffffffffffffffffffffff169050816000806101000a81548173ffffffffffffffffffffffffffffffffffffffff021916908373ffffffffffffffffffffffffffffffffffffffff1602179055508173ffffffffffffffffffffffffffffffffffffffff168173ffffffffffffffffffffffffffffffffffffffff167f8be0079c531659141344cd1fd0a4f28419497f9722a3daafe3b4186f6b6457e060405160405180910390a35050565b600033905090565b6040518060800160405280600081526020016000815260200160008152602001600081525090565b6000604051905090565b600080fd5b600080fd5b6000819050919050565b615a3581615a22565b8114615a4057600080fd5b50565b600081359050615a5281615a2c565b92915050565b600060208284031215615a6e57615a6d615a18565b5b6000615a7c84828501615a43565b91505092915050565b600081519050919050565b600082825260208201905092915050565b60005b83811015615abf578082015181840152602081019050615aa4565b60008484015250505050565b6000601f19601f8301169050919050565b6000615ae782615a85565b615af18185615a90565b9350615b01818560208601615aa1565b615b0a81615acb565b840191505092915050565b600073ffffffffffffffffffffffffffffffffffffffff82169050919050565b6000615b4082615b15565b9050919050565b615b5081615b35565b82525050565b615b5f81615a22565b82525050565b7f4e487b7100000000000000000000000000000000000000000000000000000000600052602160045260246000fd5b60038110615ba557615ba4615b65565b5b50565b6000819050615bb682615b94565b919050565b6000615bc682615ba8565b9050919050565b615bd681615bbb565b82525050565b60028110615bed57615bec615b65565b5b50565b6000819050615bfe82615bdc565b919050565b6000615c0e82615bf0565b9050919050565b615c1e81615c03565b82525050565b6000610160820190508181036000830152615c3f818e615adc565b90508181036020830152615c53818d615adc565b9050615c62604083018c615b47565b615c6f606083018b615b56565b615c7c608083018a615b56565b615c8960a0830189615b56565b615c9660c0830188615b56565b615ca360e0830187615bcd565b615cb1610100830186615c15565b615cbf610120830185615b47565b615ccd610140830184615b56565b9c9b505050505050505050505050565b615ce681615b35565b8114615cf157600080fd5b50565b600081359050615d0381615cdd565b92915050565b60008060408385031215615d2057615d1f615a18565b5b6000615d2e85828601615a43565b9250506020615d3f85828601615cf4565b9150509250929050565b60008115159050919050565b615d5e81615d49565b82525050565b6000602082019050615d796000830184615d55565b92915050565b600060208284031215615d9557615d94615a18565b5b6000615da384828501615cf4565b91505092915050565b6000608082019050615dc16000830187615b56565b615dce6020830186615b56565b615ddb6040830185615b56565b615de86060830184615b56565b95945050505050565b6000602082019050615e066000830184615b56565b92915050565b600081519050919050565b600082825260208201905092915050565b6000819050602082019050919050565b615e4181615a22565b82525050565b6000615e538383615e38565b60208301905092915050565b6000602082019050919050565b6000615e7782615e0c565b615e818185615e17565b9350615e8c83615e28565b8060005b83811015615ebd578151615ea48882615e47565b9750615eaf83615e5f565b925050600181019050615e90565b5085935050505092915050565b60006020820190508181036000830152615ee48184615e6c565b905092915050565b600080fd5b600080fd5b7f4e487b7100000000000000000000000000000000000000000000000000000000600052604160045260246000fd5b615f2e82615acb565b810181811067ffffffffffffffff82111715615f4d57615f4c615ef6565b5b80604052505050565b6000615f60615a0e565b9050615f6c8282615f25565b919050565b600067ffffffffffffffff821115615f8c57615f8b615ef6565b5b615f9582615acb565b9050602081019050919050565b82818337600083830152505050565b6000615fc4615fbf84615f71565b615f56565b905082815260208101848484011115615fe057615fdf615ef1565b5b615feb848285615fa2565b509392505050565b600082601f83011261600857616007615eec565b5b8135616018848260208601615fb1565b91505092915050565b6000806040838503121561603857616037615a18565b5b600083013567ffffffffffffffff81111561605657616055615a1d565b5b61606285828601615ff3565b925050602083013567ffffffffffffffff81111561608357616082615a1d565b5b61608f85828601615ff3565b9150509250929050565b60006020820190506160ae6000830184615b47565b92915050565b600081519050919050565b600082825260208201905092915050565b6000819050602082019050919050565b6160e981615b35565b82525050565b60006160fb83836160e0565b60208301905092915050565b6000602082019050919050565b600061611f826160b4565b61612981856160bf565b9350616134836160d0565b8060005b8381101561616557815161614c88826160ef565b975061615783616107565b925050600181019050616138565b5085935050505092915050565b6000602082019050818103600083015261618c8184616114565b905092915050565b600080600080608085870312156161ae576161ad615a18565b5b600085013567ffffffffffffffff8111156161cc576161cb615a1d565b5b6161d887828801615ff3565b945050602085013567ffffffffffffffff8111156161f9576161f8615a1d565b5b61620587828801615ff3565b935050604061621687828801615cf4565b925050606061622787828801615a43565b91505092959194509250565b6080820160008201516162496000850182615e38565b50602082015161625c6020850182615e38565b50604082015161626f6040850182615e38565b5060608201516162826060850182615e38565b50505050565b600060808201905061629d6000830184616233565b92915050565b6162ac81615d49565b81146162b757600080fd5b50565b6000813590506162c9816162a3565b92915050565b600080604083850312156162e6576162e5615a18565b5b60006162f485828601615a43565b9250506020616305858286016162ba565b9150509250929050565b6000806040838503121561632657616325615a18565b5b600061633485828601615cf4565b925050602061634585828601615a43565b9150509250929050565b6000819050919050565b600061637461636f61636a84615b15565b61634f565b615b15565b9050919050565b600061638682616359565b9050919050565b60006163988261637b565b9050919050565b6163a88161638d565b82525050565b60006020820190506163c3600083018461639f565b92915050565b7f4e487b7100000000000000000000000000000000000000000000000000000000600052602260045260246000fd5b6000600282049050600182168061641057607f821691505b602082108103616423576164226163c9565b5b50919050565b7f746f6b656e73506572566f74696e67506f776572000000000000000000000000600082015250565b600061645f601483615a90565b915061646a82616429565b602082019050919050565b6000604082019050818103600083015261648e81616452565b905061649d6020830184615b56565b92915050565b7f4e487b7100000000000000000000000000000000000000000000000000000000600052601160045260246000fd5b60006164dd82615a22565b91506164e883615a22565b9250828203905081811115616500576164ff6164a3565b5b92915050565b600060408201905061651b6000830185615b47565b6165286020830184615b56565b9392505050565b60008151905061653e816162a3565b92915050565b60006020828403121561655a57616559615a18565b5b60006165688482850161652f565b91505092915050565b7f5472616e73666572206661696c65640000000000000000000000000000000000600082015250565b60006165a7600f83615a90565b91506165b282616571565b602082019050919050565b600060208201905081810360008301526165d68161659a565b9050919050565b60006040820190506165f26000830185615b56565b6165ff6020830184615d55565b9392505050565b7f7374616b696e674c6f636b54696d650000000000000000000000000000000000600082015250565b600061663c600f83615a90565b915061664782616606565b602082019050919050565b6000604082019050818103600083015261666b8161662f565b905061667a6020830184615b56565b92915050565b7f496e76616c69642070616e69632077616c6c6574000000000000000000000000600082015250565b60006166b6601483615a90565b91506166c182616680565b602082019050919050565b600060208201905081810360008301526166e5816166a9565b9050919050565b60006166f782615a22565b91507fffffffffffffffffffffffffffffffffffffffffffffffffffffffffffffffff8203616729576167286164a3565b5b600182019050919050565b7f4e487b7100000000000000000000000000000000000000000000000000000000600052603260045260246000fd5b7f496e73756666696369656e742074726561737572792062616c616e6365000000600082015250565b6000616799601d83615a90565b91506167a482616763565b602082019050919050565b600060208201905081810360008301526167c88161678c565b9050919050565b600081905092915050565b50565b60006167ea6000836167cf565b91506167f5826167da565b600082019050919050565b600061680b826167dd565b9150819050919050565b7f5472656173757279207472616e73666572206661696c65640000000000000000600082015250565b600061684b601883615a90565b915061685682616815565b602082019050919050565b6000602082019050818103600083015261687a8161683e565b9050919050565b60006020820190506168966000830184615bcd565b92915050565b7f4e487b7100000000000000000000000000000000000000000000000000000000600052601260045260246000fd5b60006168d682615a22565b91506168e183615a22565b9250826168f1576168f061689c565b5b828204905092915050565b60008190508160005260206000209050919050565b60006020601f8301049050919050565b600082821b905092915050565b60006008830261695e7fffffffffffffffffffffffffffffffffffffffffffffffffffffffffffffffff82616921565b6169688683616921565b95508019841693508086168417925050509392505050565b600061699b61699661699184615a22565b61634f565b615a22565b9050919050565b6000819050919050565b6169b583616980565b6169c96169c1826169a2565b84845461692e565b825550505050565b600090565b6169de6169d1565b6169e98184846169ac565b505050565b5b81811015616a0d57616a026000826169d6565b6001810190506169ef565b5050565b601f821115616a5257616a23816168fc565b616a2c84616911565b81016020851015616a3b578190505b616a4f616a4785616911565b8301826169ee565b50505b505050565b600082821c905092915050565b6000616a7560001984600802616a57565b1980831691505092915050565b6000616a8e8383616a64565b9150826002028217905092915050565b616aa782615a85565b67ffffffffffffffff811115616ac057616abf615ef6565b5b616aca82546163f8565b616ad5828285616a11565b600060209050601f831160018114616b085760008415616af6578287015190505b616b008582616a82565b865550616b68565b601f198416616b16866168fc565b60005b82811015616b3e57848901518255600182019150602085019450602081019050616b19565b86831015616b5b5784890151616b57601f891682616a64565b8355505b6001600288020188555050505b505050505050565b6000616b7b82615a22565b9150616b8683615a22565b9250828201905080821115616b9e57616b9d6164a3565b5b92915050565b60006020820190508181036000830152616bbe8184615adc565b905092915050565b7f746f6b656e507269636500000000000000000000000000000000000000000000600082015250565b6000616bfc600a83615a90565b9150616c0782616bc6565b602082019050919050565b60006040820190508181036000830152616c2b81616bef565b9050616c3a6020830184615b56565b92915050565b7f6d696e5374616b65546f566f7465000000000000000000000000000000000000600082015250565b6000616c76600e83615a90565b9150616c8182616c40565b602082019050919050565b60006040820190508181036000830152616ca581616c69565b9050616cb46020830184615b56565b92915050565b6000606082019050616ccf6000830186615b47565b616cdc6020830185615b47565b616ce96040830184615b56565b949350505050565b7f496e76616c696420746172676574206164647265737300000000000000000000600082015250565b6000616d27601683615a90565b9150616d3282616cf1565b602082019050919050565b60006020820190508181036000830152616d5681616d1a565b9050919050565b7f416d6f756e74206d7573742062652067726561746572207468616e2030000000600082015250565b6000616d93601d83615a90565b9150616d9e82616d5d565b602082019050919050565b60006020820190508181036000830152616dc281616d86565b9050919050565b7f4e6f20766f74696e6720706f7765720000000000000000000000000000000000600082015250565b6000616dff600f83615a90565b9150616e0a82616dc9565b602082019050919050565b60006020820190508181036000830152616e2e81616df2565b9050919050565b6000604082019050616e4a6000830185615d55565b616e576020830184615b56565b9392505050565b7f6d696e5374616b65546f50726f706f7365000000000000000000000000000000600082015250565b6000616e94601183615a90565b9150616e9f82616e5e565b602082019050919050565b60006040820190508181036000830152616ec381616e87565b9050616ed26020830184615b56565b92915050565b6000616ee382615a22565b9150616eee83615a22565b9250828202616efc81615a22565b91508282048414831517616f1357616f126164a3565b5b5092915050565b600081519050616f2981615a2c565b92915050565b600060208284031215616f4557616f44615a18565b5b6000616f5384828501616f1a565b91505092915050565b7f496e73756666696369656e7420746f6b656e7320696e2044414f000000000000600082015250565b6000616f92601a83615a90565b9150616f9d82616f5c565b602082019050919050565b60006020820190508181036000830152616fc181616f85565b9050919050565b6000604082019050616fdd6000830185615b56565b616fea6020830184615b56565b9392505050565b7f70726f706f73616c4475726174696f6e00000000000000000000000000000000600082015250565b6000617027601083615a90565b915061703282616ff1565b602082019050919050565b600060408201905081810360008301526170568161701a565b90506170656020830184615b56565b92915050565b7f496e76616c696420616464726573730000000000000000000000000000000000600082015250565b60006170a1600f83615a90565b91506170ac8261706b565b602082019050919050565b600060208201905081810360008301526170d081617094565b9050919050565b7f746f6b656e734d696e7465640000000000000000000000000000000000000000600082015250565b600061710d600c83615a90565b9150617118826170d7565b602082019050919050565b6000604082019050818103600083015261713c81617100565b905061714b6020830184615b56565b9291505056fea2646970667358221220625e0ea0e6cc0cb71f099daa03e9fcd497fe085531224b287feb53eb67d9e89e64736f6c63430008180033",
  "linkReferences": {},
  "deployedLinkReferences": {}
}