{
  "_format": "hh-sol-artifact-1",
  "contractName": "DAO",
  "sourceName": "contracts/DAO.sol",
  "abi": [
    {
      "inputs": [
        {
          "internalType": "address",
          "name": "tokenAddress",
          "type": "address"
        },
        {
          "internalType": "uint256",
          "name": "_tokenPrice",
          "type": "uint256"
        },
        {
          "internalType": "uint256",
          "name": "_tokensPerVP",
          "type": "uint256"
        },
        {
          "internalType": "uint256",
          "name": "_minStakeToVote",
          "type": "uint256"
        },
        {
          "internalType": "uint256",
          "name": "_minStakeToPropose",
          "type": "uint256"
        },
        {
          "internalType": "uint256",
          "name": "_stakingLockTime",
          "type": "uint256"
        },
        {
          "internalType": "uint256",
          "name": "_proposalDuration",
          "type": "uint256"
        }
      ],
      "stateMutability": "nonpayable",
      "type": "constructor"
    },
    {
      "inputs": [],
      "name": "AlreadyVoted",
      "type": "error"
    },
    {
      "inputs": [],
      "name": "DAOPaused",
      "type": "error"
    },
    {
      "inputs": [],
      "name": "InsufficientPayment",
      "type": "error"
    },
    {
      "inputs": [],
      "name": "InsufficientStake",
      "type": "error"
    },
    {
      "inputs": [],
      "name": "InvalidAmount",
      "type": "error"
    },
    {
      "inputs": [],
      "name": "InvalidProposal",
      "type": "error"
    },
    {
      "inputs": [],
      "name": "NoPanicWalletSet",
      "type": "error"
    },
    {
      "inputs": [],
      "name": "NotPanicWallet",
      "type": "error"
    },
    {
      "inputs": [],
      "name": "NotPaused",
      "type": "error"
    },
    {
      "inputs": [
        {
          "internalType": "address",
          "name": "owner",
          "type": "address"
        }
      ],
      "name": "OwnableInvalidOwner",
      "type": "error"
    },
    {
      "inputs": [
        {
          "internalType": "address",
          "name": "account",
          "type": "address"
        }
      ],
      "name": "OwnableUnauthorizedAccount",
      "type": "error"
    },
    {
      "inputs": [],
      "name": "ProposalNotActive",
      "type": "error"
    },
    {
      "inputs": [],
      "name": "ProposalStillActive",
      "type": "error"
    },
    {
      "inputs": [],
      "name": "ReentrancyGuardReentrantCall",
      "type": "error"
    },
    {
      "inputs": [],
      "name": "StakeLocked",
      "type": "error"
    },
    {
      "anonymous": false,
      "inputs": [
        {
          "indexed": true,
          "internalType": "address",
          "name": "previousOwner",
          "type": "address"
        },
        {
          "indexed": true,
          "internalType": "address",
          "name": "newOwner",
          "type": "address"
        }
      ],
      "name": "OwnershipTransferred",
      "type": "event"
    },
    {
      "anonymous": false,
      "inputs": [
        {
          "indexed": true,
          "internalType": "address",
          "name": "by",
          "type": "address"
        }
      ],
      "name": "PanicActivated",
      "type": "event"
    },
    {
      "anonymous": false,
      "inputs": [
        {
          "indexed": true,
          "internalType": "address",
          "name": "panicWallet",
          "type": "address"
        }
      ],
      "name": "PanicWalletSet",
      "type": "event"
    },
    {
      "anonymous": false,
      "inputs": [
        {
          "indexed": false,
          "internalType": "string",
          "name": "paramName",
          "type": "string"
        },
        {
          "indexed": false,
          "internalType": "uint256",
          "name": "newValue",
          "type": "uint256"
        }
      ],
      "name": "ParametersUpdated",
      "type": "event"
    },
    {
      "anonymous": false,
      "inputs": [
        {
          "indexed": true,
          "internalType": "uint256",
          "name": "proposalId",
          "type": "uint256"
        },
        {
          "indexed": true,
          "internalType": "address",
          "name": "proposer",
          "type": "address"
        },
        {
          "indexed": false,
          "internalType": "string",
          "name": "title",
          "type": "string"
        }
      ],
      "name": "ProposalCreated",
      "type": "event"
    },
    {
      "anonymous": false,
      "inputs": [
        {
          "indexed": true,
          "internalType": "uint256",
          "name": "proposalId",
          "type": "uint256"
        },
        {
          "indexed": false,
          "internalType": "enum DAO.ProposalStatus",
          "name": "status",
          "type": "uint8"
        }
      ],
      "name": "ProposalExecuted",
      "type": "event"
    },
    {
      "anonymous": false,
      "inputs": [
        {
          "indexed": true,
          "internalType": "address",
          "name": "user",
          "type": "address"
        },
        {
          "indexed": false,
          "internalType": "uint256",
          "name": "amount",
          "type": "uint256"
        },
        {
          "indexed": false,
          "internalType": "bool",
          "name": "forVoting",
          "type": "bool"
        }
      ],
      "name": "Staked",
      "type": "event"
    },
    {
      "anonymous": false,
      "inputs": [
        {
          "indexed": true,
          "internalType": "address",
          "name": "buyer",
          "type": "address"
        },
        {
          "indexed": false,
          "internalType": "uint256",
          "name": "amount",
          "type": "uint256"
        },
        {
          "indexed": false,
          "internalType": "uint256",
          "name": "cost",
          "type": "uint256"
        }
      ],
      "name": "TokensPurchased",
      "type": "event"
    },
    {
      "anonymous": false,
      "inputs": [
        {
          "indexed": true,
          "internalType": "address",
          "name": "by",
          "type": "address"
        }
      ],
      "name": "TranquilityRestored",
      "type": "event"
    },
    {
      "anonymous": false,
      "inputs": [
        {
          "indexed": true,
          "internalType": "uint256",
          "name": "proposalId",
          "type": "uint256"
        },
        {
          "indexed": true,
          "internalType": "address",
          "name": "to",
          "type": "address"
        },
        {
          "indexed": false,
          "internalType": "uint256",
          "name": "amount",
          "type": "uint256"
        }
      ],
      "name": "TreasuryTransferExecuted",
      "type": "event"
    },
    {
      "anonymous": false,
      "inputs": [
        {
          "indexed": true,
          "internalType": "address",
          "name": "user",
          "type": "address"
        },
        {
          "indexed": false,
          "internalType": "uint256",
          "name": "amount",
          "type": "uint256"
        },
        {
          "indexed": false,
          "internalType": "bool",
          "name": "fromVoting",
          "type": "bool"
        }
      ],
      "name": "Unstaked",
      "type": "event"
    },
    {
      "anonymous": false,
      "inputs": [
        {
          "indexed": true,
          "internalType": "uint256",
          "name": "proposalId",
          "type": "uint256"
        },
        {
          "indexed": true,
          "internalType": "address",
          "name": "voter",
          "type": "address"
        },
        {
          "indexed": false,
          "internalType": "bool",
          "name": "inFavor",
          "type": "bool"
        },
        {
          "indexed": false,
          "internalType": "uint256",
          "name": "votingPower",
          "type": "uint256"
        }
      ],
      "name": "Voted",
      "type": "event"
    },
    {
      "inputs": [],
      "name": "buyTokens",
      "outputs": [],
      "stateMutability": "payable",
      "type": "function"
    },
    {
      "inputs": [
        {
          "internalType": "address",
          "name": "user",
          "type": "address"
        }
      ],
      "name": "calculateVotingPower",
      "outputs": [
        {
          "internalType": "uint256",
          "name": "",
          "type": "uint256"
        }
      ],
      "stateMutability": "view",
      "type": "function"
    },
    {
      "inputs": [
        {
          "internalType": "address",
          "name": "user",
          "type": "address"
        }
      ],
      "name": "getStakeInfo",
      "outputs": [
        {
          "components": [
            {
              "internalType": "uint256",
              "name": "amountForVoting",
              "type": "uint256"
            },
            {
              "internalType": "uint256",
              "name": "amountForProposing",
              "type": "uint256"
            },
            {
              "internalType": "uint256",
              "name": "lockedUntilVoting",
              "type": "uint256"
            },
            {
              "internalType": "uint256",
              "name": "lockedUntilProposing",
              "type": "uint256"
            }
          ],
          "internalType": "struct DAO.StakeInfo",
          "name": "",
          "type": "tuple"
        }
      ],
      "stateMutability": "view",
      "type": "function"
    },
    {
      "inputs": [
        {
          "internalType": "uint256",
          "name": "",
          "type": "uint256"
        },
        {
          "internalType": "address",
          "name": "",
          "type": "address"
        }
      ],
      "name": "hasVoted",
      "outputs": [
        {
          "internalType": "bool",
          "name": "",
          "type": "bool"
        }
      ],
      "stateMutability": "view",
      "type": "function"
    },
    {
      "inputs": [],
      "name": "isPaused",
      "outputs": [
        {
          "internalType": "bool",
          "name": "",
          "type": "bool"
        }
      ],
      "stateMutability": "view",
      "type": "function"
    },
    {
      "inputs": [],
      "name": "minStakeToPropose",
      "outputs": [
        {
          "internalType": "uint256",
          "name": "",
          "type": "uint256"
        }
      ],
      "stateMutability": "view",
      "type": "function"
    },
    {
      "inputs": [],
      "name": "minStakeToVote",
      "outputs": [
        {
          "internalType": "uint256",
          "name": "",
          "type": "uint256"
        }
      ],
      "stateMutability": "view",
      "type": "function"
    },
    {
      "inputs": [
        {
          "internalType": "address",
          "name": "to",
          "type": "address"
        },
        {
          "internalType": "uint256",
          "name": "amount",
          "type": "uint256"
        }
      ],
      "name": "mintTokens",
      "outputs": [],
      "stateMutability": "nonpayable",
      "type": "function"
    },
    {
      "inputs": [],
      "name": "owner",
      "outputs": [
        {
          "internalType": "address",
          "name": "",
          "type": "address"
        }
      ],
      "stateMutability": "view",
      "type": "function"
    },
    {
      "inputs": [],
      "name": "panic",
      "outputs": [],
      "stateMutability": "nonpayable",
      "type": "function"
    },
    {
      "inputs": [],
      "name": "panicWallet",
      "outputs": [
        {
          "internalType": "address",
          "name": "",
          "type": "address"
        }
      ],
      "stateMutability": "view",
      "type": "function"
    },
    {
      "inputs": [],
      "name": "proposalCount",
      "outputs": [
        {
          "internalType": "uint256",
          "name": "",
          "type": "uint256"
        }
      ],
      "stateMutability": "view",
      "type": "function"
    },
    {
      "inputs": [],
      "name": "proposalDuration",
      "outputs": [
        {
          "internalType": "uint256",
          "name": "",
          "type": "uint256"
        }
      ],
      "stateMutability": "view",
      "type": "function"
    },
    {
      "inputs": [
        {
          "internalType": "uint256",
          "name": "",
          "type": "uint256"
        }
      ],
      "name": "proposals",
      "outputs": [
        {
          "internalType": "uint256",
          "name": "id",
          "type": "uint256"
        },
        {
          "internalType": "string",
          "name": "title",
          "type": "string"
        },
        {
          "internalType": "string",
          "name": "description",
          "type": "string"
        },
        {
          "internalType": "address",
          "name": "proposer",
          "type": "address"
        },
        {
          "internalType": "uint256",
          "name": "createdAt",
          "type": "uint256"
        },
        {
          "internalType": "uint256",
          "name": "votesFor",
          "type": "uint256"
        },
        {
          "internalType": "uint256",
          "name": "votesAgainst",
          "type": "uint256"
        },
        {
          "internalType": "enum DAO.ProposalStatus",
          "name": "status",
          "type": "uint8"
        },
        {
          "internalType": "enum DAO.ProposalType",
          "name": "proposalType",
          "type": "uint8"
        },
        {
          "internalType": "address payable",
          "name": "treasuryTarget",
          "type": "address"
        },
        {
          "internalType": "uint256",
          "name": "treasuryAmount",
          "type": "uint256"
        }
      ],
      "stateMutability": "view",
      "type": "function"
    },
    {
      "inputs": [],
      "name": "renounceOwnership",
      "outputs": [],
      "stateMutability": "nonpayable",
      "type": "function"
    },
    {
      "inputs": [
        {
          "internalType": "address",
          "name": "_panicWallet",
          "type": "address"
        }
      ],
      "name": "setPanicWallet",
      "outputs": [],
      "stateMutability": "nonpayable",
      "type": "function"
    },
    {
      "inputs": [
        {
          "internalType": "uint256",
          "name": "amount",
          "type": "uint256"
        }
      ],
      "name": "stakeForProposing",
      "outputs": [],
      "stateMutability": "nonpayable",
      "type": "function"
    },
    {
      "inputs": [
        {
          "internalType": "uint256",
          "name": "amount",
          "type": "uint256"
        }
      ],
      "name": "stakeForVoting",
      "outputs": [],
      "stateMutability": "nonpayable",
      "type": "function"
    },
    {
      "inputs": [
        {
          "internalType": "address",
          "name": "",
          "type": "address"
        }
      ],
      "name": "stakes",
      "outputs": [
        {
          "internalType": "uint256",
          "name": "amountForVoting",
          "type": "uint256"
        },
        {
          "internalType": "uint256",
          "name": "amountForProposing",
          "type": "uint256"
        },
        {
          "internalType": "uint256",
          "name": "lockedUntilVoting",
          "type": "uint256"
        },
        {
          "internalType": "uint256",
          "name": "lockedUntilProposing",
          "type": "uint256"
        }
      ],
      "stateMutability": "view",
      "type": "function"
    },
    {
      "inputs": [],
      "name": "stakingLockTime",
      "outputs": [
        {
          "internalType": "uint256",
          "name": "",
          "type": "uint256"
        }
      ],
      "stateMutability": "view",
      "type": "function"
    },
    {
      "inputs": [],
      "name": "token",
      "outputs": [
        {
          "internalType": "contract DAOToken",
          "name": "",
          "type": "address"
        }
      ],
      "stateMutability": "view",
      "type": "function"
    },
    {
      "inputs": [],
      "name": "tokenPrice",
      "outputs": [
        {
          "internalType": "uint256",
          "name": "",
          "type": "uint256"
        }
      ],
      "stateMutability": "view",
      "type": "function"
    },
    {
      "inputs": [],
      "name": "tokensPerVotingPower",
      "outputs": [
        {
          "internalType": "uint256",
          "name": "",
          "type": "uint256"
        }
      ],
      "stateMutability": "view",
      "type": "function"
    },
    {
      "inputs": [],
      "name": "tranquilidad",
      "outputs": [],
      "stateMutability": "nonpayable",
      "type": "function"
    },
    {
      "inputs": [
        {
          "internalType": "address",
          "name": "newOwner",
          "type": "address"
        }
      ],
      "name": "transferOwnership",
      "outputs": [],
      "stateMutability": "nonpayable",
      "type": "function"
    },
    {
      "inputs": [
        {
          "internalType": "uint256",
          "name": "amount",
          "type": "uint256"
        }
      ],
      "name": "unstakeFromProposing",
      "outputs": [],
      "stateMutability": "nonpayable",
      "type": "function"
    },
    {
      "inputs": [
        {
          "internalType": "uint256",
          "name": "amount",
          "type": "uint256"
        }
      ],
      "name": "unstakeFromVoting",
      "outputs": [],
      "stateMutability": "nonpayable",
      "type": "function"
    },
    {
      "inputs": [
        {
          "internalType": "uint256",
          "name": "newMin",
          "type": "uint256"
        }
      ],
      "name": "updateMinStakeToPropose",
      "outputs": [],
      "stateMutability": "nonpayable",
      "type": "function"
    },
    {
      "inputs": [
        {
          "internalType": "uint256",
          "name": "newMin",
          "type": "uint256"
        }
      ],
      "name": "updateMinStakeToVote",
      "outputs": [],
      "stateMutability": "nonpayable",
      "type": "function"
    },
    {
      "inputs": [
        {
          "internalType": "uint256",
          "name": "newPrice",
          "type": "uint256"
        }
      ],
      "name": "updateTokenPrice",
      "outputs": [],
      "stateMutability": "nonpayable",
      "type": "function"
    },
    {
      "inputs": [
        {
          "internalType": "uint256",
          "name": "",
          "type": "uint256"
        },
        {
          "internalType": "address",
          "name": "",
          "type": "address"
        }
      ],
      "name": "voteChoice",
      "outputs": [
        {
          "internalType": "bool",
          "name": "",
          "type": "bool"
        }
      ],
      "stateMutability": "view",
      "type": "function"
    },
    {
      "stateMutability": "payable",
      "type": "receive"
    }
  ],
  "bytecode": "0x60806040523480156200001157600080fd5b5060405162003035380380620030358339818101604052810190620000379190620002c2565b33600073ffffffffffffffffffffffffffffffffffffffff168173ffffffffffffffffffffffffffffffffffffffff1603620000ad5760006040517f1e4fbdf7000000000000000000000000000000000000000000000000000000008152600401620000a4919062000386565b60405180910390fd5b620000be816200015960201b60201c565b506001808190555086600260006101000a81548173ffffffffffffffffffffffffffffffffffffffff021916908373ffffffffffffffffffffffffffffffffffffffff1602179055508560048190555084600581905550836006819055508260078190555081600881905550806009819055506001600360146101000a81548160ff02191690831515021790555050505050505050620003a3565b60008060009054906101000a900473ffffffffffffffffffffffffffffffffffffffff169050816000806101000a81548173ffffffffffffffffffffffffffffffffffffffff021916908373ffffffffffffffffffffffffffffffffffffffff1602179055508173ffffffffffffffffffffffffffffffffffffffff168173ffffffffffffffffffffffffffffffffffffffff167f8be0079c531659141344cd1fd0a4f28419497f9722a3daafe3b4186f6b6457e060405160405180910390a35050565b600080fd5b600073ffffffffffffffffffffffffffffffffffffffff82169050919050565b60006200024f8262000222565b9050919050565b620002618162000242565b81146200026d57600080fd5b50565b600081519050620002818162000256565b92915050565b6000819050919050565b6200029c8162000287565b8114620002a857600080fd5b50565b600081519050620002bc8162000291565b92915050565b600080600080600080600060e0888a031215620002e457620002e36200021d565b5b6000620002f48a828b0162000270565b9750506020620003078a828b01620002ab565b96505060406200031a8a828b01620002ab565b95505060606200032d8a828b01620002ab565b9450506080620003408a828b01620002ab565b93505060a0620003538a828b01620002ab565b92505060c0620003668a828b01620002ab565b91505092959891949750929550565b620003808162000242565b82525050565b60006020820190506200039d600083018462000375565b92915050565b612c8280620003b36000396000f3fe6080604052600436106101dc5760003560e01c80638da5cb5b11610102578063d0febe4c11610095578063f0dda65c11610064578063f0dda65c1461066b578063f2fde38b14610694578063fb468855146106bd578063fc0c546a146106fa576101e3565b8063d0febe4c146105e2578063d1b85b49146105ec578063da35c66414610615578063dc53a70914610640576101e3565b8063ad3bcade116100d1578063ad3bcade14610526578063b187bd2614610551578063c34531531461057c578063cbd38f42146105b9576101e3565b80638da5cb5b1461049257806392bfcb3a146104bd57806397761382146104e6578063a028699e146104fd576101e3565b80634700d3051161017a5780636ee7ee55116101495780636ee7ee55146103fa578063715018a61461042557806373c0b5cb1461043c5780637ff9b59614610467576101e3565b80634700d30514610354578063542ffa7b1461036b57806359d177e614610394578063676c0d77146103d1576101e3565b80631d408d1e116101b65780631d408d1e1461029857806330109962146102c35780634091e8f0146102ee5780634385963214610317576101e3565b8063013cf08b146101e85780630627d4251461022f57806316934fc414610258576101e3565b366101e357005b600080fd5b3480156101f457600080fd5b5061020f600480360381019061020a9190612039565b610725565b6040516102269b9a99989796959493929190612226565b60405180910390f35b34801561023b57600080fd5b5061025660048036038101906102519190612039565b6108e9565b005b34801561026457600080fd5b5061027f600480360381019061027a919061230b565b610b12565b60405161028f9493929190612338565b60405180910390f35b3480156102a457600080fd5b506102ad610b42565b6040516102ba919061237d565b60405180910390f35b3480156102cf57600080fd5b506102d8610b48565b6040516102e5919061237d565b60405180910390f35b3480156102fa57600080fd5b506103156004803603810190610310919061230b565b610b4e565b005b34801561032357600080fd5b5061033e60048036038101906103399190612398565b610c67565b60405161034b91906123f3565b60405180910390f35b34801561036057600080fd5b50610369610c96565b005b34801561037757600080fd5b50610392600480360381019061038d9190612039565b610d7d565b005b3480156103a057600080fd5b506103bb60048036038101906103b6919061230b565b610fa6565b6040516103c8919061237d565b60405180910390f35b3480156103dd57600080fd5b506103f860048036038101906103f39190612039565b611004565b005b34801561040657600080fd5b5061040f61104d565b60405161041c919061237d565b60405180910390f35b34801561043157600080fd5b5061043a611053565b005b34801561044857600080fd5b50610451611067565b60405161045e919061237d565b60405180910390f35b34801561047357600080fd5b5061047c61106d565b604051610489919061237d565b60405180910390f35b34801561049e57600080fd5b506104a7611073565b6040516104b4919061240e565b60405180910390f35b3480156104c957600080fd5b506104e460048036038101906104df9190612039565b61109c565b005b3480156104f257600080fd5b506104fb6110e5565b005b34801561050957600080fd5b50610524600480360381019061051f9190612039565b611212565b005b34801561053257600080fd5b5061053b6114c5565b604051610548919061240e565b60405180910390f35b34801561055d57600080fd5b506105666114eb565b60405161057391906123f3565b60405180910390f35b34801561058857600080fd5b506105a3600480360381019061059e919061230b565b6114fe565b6040516105b0919061248d565b60405180910390f35b3480156105c557600080fd5b506105e060048036038101906105db9190612039565b61157f565b005b6105ea6115c8565b005b3480156105f857600080fd5b50610613600480360381019061060e9190612039565b611916565b005b34801561062157600080fd5b5061062a611bc9565b604051610637919061237d565b60405180910390f35b34801561064c57600080fd5b50610655611bcf565b604051610662919061237d565b60405180910390f35b34801561067757600080fd5b50610692600480360381019061068d91906124a8565b611bd5565b005b3480156106a057600080fd5b506106bb60048036038101906106b6919061230b565b611d59565b005b3480156106c957600080fd5b506106e460048036038101906106df9190612398565b611ddf565b6040516106f191906123f3565b60405180910390f35b34801561070657600080fd5b5061070f611e0e565b60405161071c9190612547565b60405180910390f35b600b60205280600052604060002060009150905080600001549080600101805461074e90612591565b80601f016020809104026020016040519081016040528092919081815260200182805461077a90612591565b80156107c75780601f1061079c576101008083540402835291602001916107c7565b820191906000526020600020905b8154815290600101906020018083116107aa57829003601f168201915b5050505050908060020180546107dc90612591565b80601f016020809104026020016040519081016040528092919081815260200182805461080890612591565b80156108555780601f1061082a57610100808354040283529160200191610855565b820191906000526020600020905b81548152906001019060200180831161083857829003601f168201915b5050505050908060030160009054906101000a900473ffffffffffffffffffffffffffffffffffffffff16908060040154908060050154908060060154908060070160009054906101000a900460ff16908060070160019054906101000a900460ff16908060070160029054906101000a900473ffffffffffffffffffffffffffffffffffffffff1690806008015490508b565b6108f1611e34565b6000600a60003373ffffffffffffffffffffffffffffffffffffffff1673ffffffffffffffffffffffffffffffffffffffff168152602001908152602001600020905060008214806109465750806001015482115b1561097d576040517f2c5211c600000000000000000000000000000000000000000000000000000000815260040160405180910390fd5b80600301544210156109bb576040517f14d10a0200000000000000000000000000000000000000000000000000000000815260040160405180910390fd5b818160010160008282546109cf91906125f1565b92505081905550600260009054906101000a900473ffffffffffffffffffffffffffffffffffffffff1673ffffffffffffffffffffffffffffffffffffffff1663a9059cbb33846040518363ffffffff1660e01b8152600401610a33929190612625565b6020604051808303816000875af1158015610a52573d6000803e3d6000fd5b505050506040513d601f19601f82011682018060405250810190610a76919061267a565b610ab5576040517f08c379a0000000000000000000000000000000000000000000000000000000008152600401610aac906126f3565b60405180910390fd5b3373ffffffffffffffffffffffffffffffffffffffff167f4416ca74b4c9dd8d6070d91c267a6cf53734c0f343ced0ad02471ccb5417037e836000604051610afe929190612713565b60405180910390a250610b0f611e7a565b50565b600a6020528060005260406000206000915090508060000154908060010154908060020154908060030154905084565b60065481565b60095481565b610b56611e83565b600073ffffffffffffffffffffffffffffffffffffffff168173ffffffffffffffffffffffffffffffffffffffff1603610bc5576040517f08c379a0000000000000000000000000000000000000000000000000000000008152600401610bbc90612788565b60405180910390fd5b80600360006101000a81548173ffffffffffffffffffffffffffffffffffffffff021916908373ffffffffffffffffffffffffffffffffffffffff1602179055506000600360146101000a81548160ff0219169083151502179055508073ffffffffffffffffffffffffffffffffffffffff167fa02db7c9680f52f923cc3a7d1cf764d4dac0a32c7439c70b46ecdc5daa6e2ebe60405160405180910390a250565b600c6020528160005260406000206020528060005260406000206000915091509054906101000a900460ff1681565b600360009054906101000a900473ffffffffffffffffffffffffffffffffffffffff1673ffffffffffffffffffffffffffffffffffffffff163373ffffffffffffffffffffffffffffffffffffffff1614610d1d576040517fb9e5ac5f00000000000000000000000000000000000000000000000000000000815260040160405180910390fd5b6001600360146101000a81548160ff0219169083151502179055503373ffffffffffffffffffffffffffffffffffffffff167f0b907d122e4db865e49bc04c7f1e84a1ae29e024ee225bc08c69104520c5f3f960405160405180910390a2565b610d85611e34565b6000600a60003373ffffffffffffffffffffffffffffffffffffffff1673ffffffffffffffffffffffffffffffffffffffff16815260200190815260200160002090506000821480610dda5750806000015482115b15610e11576040517f2c5211c600000000000000000000000000000000000000000000000000000000815260040160405180910390fd5b8060020154421015610e4f576040517f14d10a0200000000000000000000000000000000000000000000000000000000815260040160405180910390fd5b81816000016000828254610e6391906125f1565b92505081905550600260009054906101000a900473ffffffffffffffffffffffffffffffffffffffff1673ffffffffffffffffffffffffffffffffffffffff1663a9059cbb33846040518363ffffffff1660e01b8152600401610ec7929190612625565b6020604051808303816000875af1158015610ee6573d6000803e3d6000fd5b505050506040513d601f19601f82011682018060405250810190610f0a919061267a565b610f49576040517f08c379a0000000000000000000000000000000000000000000000000000000008152600401610f40906126f3565b60405180910390fd5b3373ffffffffffffffffffffffffffffffffffffffff167f4416ca74b4c9dd8d6070d91c267a6cf53734c0f343ced0ad02471ccb5417037e836001604051610f92929190612713565b60405180910390a250610fa3611e7a565b50565b600080600a60008473ffffffffffffffffffffffffffffffffffffffff1673ffffffffffffffffffffffffffffffffffffffff16815260200190815260200160002060000154905060055481610ffc91906127d7565b915050919050565b61100c611e83565b806004819055507f952177133a28eea5034c93c6c70c1a8d223da94faaa45da8412c3c791111137f816040516110429190612854565b60405180910390a150565b60085481565b61105b611e83565b6110656000611f0a565b565b60075481565b60045481565b60008060009054906101000a900473ffffffffffffffffffffffffffffffffffffffff16905090565b6110a4611e83565b806006819055507f952177133a28eea5034c93c6c70c1a8d223da94faaa45da8412c3c791111137f816040516110da91906128ce565b60405180910390a150565b600360009054906101000a900473ffffffffffffffffffffffffffffffffffffffff1673ffffffffffffffffffffffffffffffffffffffff163373ffffffffffffffffffffffffffffffffffffffff161461116c576040517fb9e5ac5f00000000000000000000000000000000000000000000000000000000815260040160405180910390fd5b600360149054906101000a900460ff166111b2576040517f6cd6020100000000000000000000000000000000000000000000000000000000815260040160405180910390fd5b6000600360146101000a81548160ff0219169083151502179055503373ffffffffffffffffffffffffffffffffffffffff167fa2e764bd6010df61a2c087e90137317fdd752e4f6e3804ca8df0d6ed16f3014960405160405180910390a2565b600360149054906101000a900460ff1615611259576040517fb5784fa500000000000000000000000000000000000000000000000000000000815260040160405180910390fd5b600073ffffffffffffffffffffffffffffffffffffffff16600360009054906101000a900473ffffffffffffffffffffffffffffffffffffffff1673ffffffffffffffffffffffffffffffffffffffff16036112e1576040517fce256ac000000000000000000000000000000000000000000000000000000000815260040160405180910390fd5b6000810361131b576040517f2c5211c600000000000000000000000000000000000000000000000000000000815260040160405180910390fd5b600260009054906101000a900473ffffffffffffffffffffffffffffffffffffffff1673ffffffffffffffffffffffffffffffffffffffff166323b872dd3330846040518463ffffffff1660e01b815260040161137a939291906128fc565b6020604051808303816000875af1158015611399573d6000803e3d6000fd5b505050506040513d601f19601f820116820180604052508101906113bd919061267a565b6113fc576040517f08c379a00000000000000000000000000000000000000000000000000000000081526004016113f3906126f3565b60405180910390fd5b6000600a60003373ffffffffffffffffffffffffffffffffffffffff1673ffffffffffffffffffffffffffffffffffffffff1681526020019081526020016000209050818160010160008282546114539190612933565b92505081905550600854426114689190612933565b81600301819055503373ffffffffffffffffffffffffffffffffffffffff167f37d4053e34fde482e96f6bcd424dfa31342cbd5fe184d497fb3c8bb4b4b975808360006040516114b9929190612713565b60405180910390a25050565b600360009054906101000a900473ffffffffffffffffffffffffffffffffffffffff1681565b600360149054906101000a900460ff1681565b611506611fd6565b600a60008373ffffffffffffffffffffffffffffffffffffffff1673ffffffffffffffffffffffffffffffffffffffff1681526020019081526020016000206040518060800160405290816000820154815260200160018201548152602001600282015481526020016003820154815250509050919050565b611587611e83565b806007819055507f952177133a28eea5034c93c6c70c1a8d223da94faaa45da8412c3c791111137f816040516115bd91906129b3565b60405180910390a150565b600360149054906101000a900460ff161561160f576040517fb5784fa500000000000000000000000000000000000000000000000000000000815260040160405180910390fd5b600073ffffffffffffffffffffffffffffffffffffffff16600360009054906101000a900473ffffffffffffffffffffffffffffffffffffffff1673ffffffffffffffffffffffffffffffffffffffff1603611697576040517fce256ac000000000000000000000000000000000000000000000000000000000815260040160405180910390fd5b61169f611e34565b600034036116d9576040517f2c5211c600000000000000000000000000000000000000000000000000000000815260040160405180910390fd5b6000600454670de0b6b3a7640000346116f291906129e1565b6116fc91906127d7565b905080600260009054906101000a900473ffffffffffffffffffffffffffffffffffffffff1673ffffffffffffffffffffffffffffffffffffffff166370a08231306040518263ffffffff1660e01b815260040161175a919061240e565b602060405180830381865afa158015611777573d6000803e3d6000fd5b505050506040513d601f19601f8201168201806040525081019061179b9190612a38565b10156117dc576040517f08c379a00000000000000000000000000000000000000000000000000000000081526004016117d390612ab1565b60405180910390fd5b600260009054906101000a900473ffffffffffffffffffffffffffffffffffffffff1673ffffffffffffffffffffffffffffffffffffffff1663a9059cbb33836040518363ffffffff1660e01b8152600401611839929190612625565b6020604051808303816000875af1158015611858573d6000803e3d6000fd5b505050506040513d601f19601f8201168201806040525081019061187c919061267a565b6118bb576040517f08c379a00000000000000000000000000000000000000000000000000000000081526004016118b2906126f3565b60405180910390fd5b3373ffffffffffffffffffffffffffffffffffffffff167f8fafebcaf9d154343dad25669bfa277f4fbacd7ac6b0c4fed522580e040a0f338234604051611903929190612ad1565b60405180910390a250611914611e7a565b565b600360149054906101000a900460ff161561195d576040517fb5784fa500000000000000000000000000000000000000000000000000000000815260040160405180910390fd5b600073ffffffffffffffffffffffffffffffffffffffff16600360009054906101000a900473ffffffffffffffffffffffffffffffffffffffff1673ffffffffffffffffffffffffffffffffffffffff16036119e5576040517fce256ac000000000000000000000000000000000000000000000000000000000815260040160405180910390fd5b60008103611a1f576040517f2c5211c600000000000000000000000000000000000000000000000000000000815260040160405180910390fd5b600260009054906101000a900473ffffffffffffffffffffffffffffffffffffffff1673ffffffffffffffffffffffffffffffffffffffff166323b872dd3330846040518463ffffffff1660e01b8152600401611a7e939291906128fc565b6020604051808303816000875af1158015611a9d573d6000803e3d6000fd5b505050506040513d601f19601f82011682018060405250810190611ac1919061267a565b611b00576040517f08c379a0000000000000000000000000000000000000000000000000000000008152600401611af7906126f3565b60405180910390fd5b6000600a60003373ffffffffffffffffffffffffffffffffffffffff1673ffffffffffffffffffffffffffffffffffffffff168152602001908152602001600020905081816000016000828254611b579190612933565b9250508190555060085442611b6c9190612933565b81600201819055503373ffffffffffffffffffffffffffffffffffffffff167f37d4053e34fde482e96f6bcd424dfa31342cbd5fe184d497fb3c8bb4b4b97580836001604051611bbd929190612713565b60405180910390a25050565b600e5481565b60055481565b611bdd611e83565b600073ffffffffffffffffffffffffffffffffffffffff168273ffffffffffffffffffffffffffffffffffffffff1603611c4c576040517f08c379a0000000000000000000000000000000000000000000000000000000008152600401611c4390612b46565b60405180910390fd5b60008111611c8f576040517f08c379a0000000000000000000000000000000000000000000000000000000008152600401611c8690612bb2565b60405180910390fd5b600260009054906101000a900473ffffffffffffffffffffffffffffffffffffffff1673ffffffffffffffffffffffffffffffffffffffff166340c10f1983836040518363ffffffff1660e01b8152600401611cec929190612625565b600060405180830381600087803b158015611d0657600080fd5b505af1158015611d1a573d6000803e3d6000fd5b505050507f952177133a28eea5034c93c6c70c1a8d223da94faaa45da8412c3c791111137f81604051611d4d9190612c1e565b60405180910390a15050565b611d61611e83565b600073ffffffffffffffffffffffffffffffffffffffff168173ffffffffffffffffffffffffffffffffffffffff1603611dd35760006040517f1e4fbdf7000000000000000000000000000000000000000000000000000000008152600401611dca919061240e565b60405180910390fd5b611ddc81611f0a565b50565b600d6020528160005260406000206020528060005260406000206000915091509054906101000a900460ff1681565b600260009054906101000a900473ffffffffffffffffffffffffffffffffffffffff1681565b600260015403611e70576040517f3ee5aeb500000000000000000000000000000000000000000000000000000000815260040160405180910390fd5b6002600181905550565b60018081905550565b611e8b611fce565b73ffffffffffffffffffffffffffffffffffffffff16611ea9611073565b73ffffffffffffffffffffffffffffffffffffffff1614611f0857611ecc611fce565b6040517f118cdaa7000000000000000000000000000000000000000000000000000000008152600401611eff919061240e565b60405180910390fd5b565b60008060009054906101000a900473ffffffffffffffffffffffffffffffffffffffff169050816000806101000a81548173ffffffffffffffffffffffffffffffffffffffff021916908373ffffffffffffffffffffffffffffffffffffffff1602179055508173ffffffffffffffffffffffffffffffffffffffff168173ffffffffffffffffffffffffffffffffffffffff167f8be0079c531659141344cd1fd0a4f28419497f9722a3daafe3b4186f6b6457e060405160405180910390a35050565b600033905090565b6040518060800160405280600081526020016000815260200160008152602001600081525090565b600080fd5b6000819050919050565b61201681612003565b811461202157600080fd5b50565b6000813590506120338161200d565b92915050565b60006020828403121561204f5761204e611ffe565b5b600061205d84828501612024565b91505092915050565b61206f81612003565b82525050565b600081519050919050565b600082825260208201905092915050565b60005b838110156120af578082015181840152602081019050612094565b60008484015250505050565b6000601f19601f8301169050919050565b60006120d782612075565b6120e18185612080565b93506120f1818560208601612091565b6120fa816120bb565b840191505092915050565b600073ffffffffffffffffffffffffffffffffffffffff82169050919050565b600061213082612105565b9050919050565b61214081612125565b82525050565b7f4e487b7100000000000000000000000000000000000000000000000000000000600052602160045260246000fd5b6003811061218657612185612146565b5b50565b600081905061219782612175565b919050565b60006121a782612189565b9050919050565b6121b78161219c565b82525050565b600281106121ce576121cd612146565b5b50565b60008190506121df826121bd565b919050565b60006121ef826121d1565b9050919050565b6121ff816121e4565b82525050565b600061221082612105565b9050919050565b61222081612205565b82525050565b60006101608201905061223c600083018e612066565b818103602083015261224e818d6120cc565b90508181036040830152612262818c6120cc565b9050612271606083018b612137565b61227e608083018a612066565b61228b60a0830189612066565b61229860c0830188612066565b6122a560e08301876121ae565b6122b36101008301866121f6565b6122c1610120830185612217565b6122cf610140830184612066565b9c9b505050505050505050505050565b6122e881612125565b81146122f357600080fd5b50565b600081359050612305816122df565b92915050565b60006020828403121561232157612320611ffe565b5b600061232f848285016122f6565b91505092915050565b600060808201905061234d6000830187612066565b61235a6020830186612066565b6123676040830185612066565b6123746060830184612066565b95945050505050565b60006020820190506123926000830184612066565b92915050565b600080604083850312156123af576123ae611ffe565b5b60006123bd85828601612024565b92505060206123ce858286016122f6565b9150509250929050565b60008115159050919050565b6123ed816123d8565b82525050565b600060208201905061240860008301846123e4565b92915050565b60006020820190506124236000830184612137565b92915050565b61243281612003565b82525050565b60808201600082015161244e6000850182612429565b5060208201516124616020850182612429565b5060408201516124746040850182612429565b5060608201516124876060850182612429565b50505050565b60006080820190506124a26000830184612438565b92915050565b600080604083850312156124bf576124be611ffe565b5b60006124cd858286016122f6565b92505060206124de85828601612024565b9150509250929050565b6000819050919050565b600061250d61250861250384612105565b6124e8565b612105565b9050919050565b600061251f826124f2565b9050919050565b600061253182612514565b9050919050565b61254181612526565b82525050565b600060208201905061255c6000830184612538565b92915050565b7f4e487b7100000000000000000000000000000000000000000000000000000000600052602260045260246000fd5b600060028204905060018216806125a957607f821691505b6020821081036125bc576125bb612562565b5b50919050565b7f4e487b7100000000000000000000000000000000000000000000000000000000600052601160045260246000fd5b60006125fc82612003565b915061260783612003565b925082820390508181111561261f5761261e6125c2565b5b92915050565b600060408201905061263a6000830185612137565b6126476020830184612066565b9392505050565b612657816123d8565b811461266257600080fd5b50565b6000815190506126748161264e565b92915050565b6000602082840312156126905761268f611ffe565b5b600061269e84828501612665565b91505092915050565b7f5472616e73666572206661696c65640000000000000000000000000000000000600082015250565b60006126dd600f83612080565b91506126e8826126a7565b602082019050919050565b6000602082019050818103600083015261270c816126d0565b9050919050565b60006040820190506127286000830185612066565b61273560208301846123e4565b9392505050565b7f496e76616c69642070616e69632077616c6c6574000000000000000000000000600082015250565b6000612772601483612080565b915061277d8261273c565b602082019050919050565b600060208201905081810360008301526127a181612765565b9050919050565b7f4e487b7100000000000000000000000000000000000000000000000000000000600052601260045260246000fd5b60006127e282612003565b91506127ed83612003565b9250826127fd576127fc6127a8565b5b828204905092915050565b7f746f6b656e507269636500000000000000000000000000000000000000000000600082015250565b600061283e600a83612080565b915061284982612808565b602082019050919050565b6000604082019050818103600083015261286d81612831565b905061287c6020830184612066565b92915050565b7f6d696e5374616b65546f566f7465000000000000000000000000000000000000600082015250565b60006128b8600e83612080565b91506128c382612882565b602082019050919050565b600060408201905081810360008301526128e7816128ab565b90506128f66020830184612066565b92915050565b60006060820190506129116000830186612137565b61291e6020830185612137565b61292b6040830184612066565b949350505050565b600061293e82612003565b915061294983612003565b9250828201905080821115612961576129606125c2565b5b92915050565b7f6d696e5374616b65546f50726f706f7365000000000000000000000000000000600082015250565b600061299d601183612080565b91506129a882612967565b602082019050919050565b600060408201905081810360008301526129cc81612990565b90506129db6020830184612066565b92915050565b60006129ec82612003565b91506129f783612003565b9250828202612a0581612003565b91508282048414831517612a1c57612a1b6125c2565b5b5092915050565b600081519050612a328161200d565b92915050565b600060208284031215612a4e57612a4d611ffe565b5b6000612a5c84828501612a23565b91505092915050565b7f496e73756666696369656e7420746f6b656e7320696e2044414f000000000000600082015250565b6000612a9b601a83612080565b9150612aa682612a65565b602082019050919050565b60006020820190508181036000830152612aca81612a8e565b9050919050565b6000604082019050612ae66000830185612066565b612af36020830184612066565b9392505050565b7f496e76616c696420616464726573730000000000000000000000000000000000600082015250565b6000612b30600f83612080565b9150612b3b82612afa565b602082019050919050565b60006020820190508181036000830152612b5f81612b23565b9050919050565b7f416d6f756e74206d7573742062652067726561746572207468616e2030000000600082015250565b6000612b9c601d83612080565b9150612ba782612b66565b602082019050919050565b60006020820190508181036000830152612bcb81612b8f565b9050919050565b7f746f6b656e734d696e7465640000000000000000000000000000000000000000600082015250565b6000612c08600c83612080565b9150612c1382612bd2565b602082019050919050565b60006040820190508181036000830152612c3781612bfb565b9050612c466020830184612066565b9291505056fea2646970667358221220117e2d2d087b865b6afe8229d806c0581c2e7dacda5956aa042cebfb067fcd9d64736f6c63430008180033",
  "linkReferences": {},
  "deployedLinkReferences": {}
}