{
  "_format": "hh-sol-artifact-1",
  "contractName": "DAO",
  "sourceName": "contracts/DAO.sol",
  "abi": [
    {
      "inputs": [
        {
          "internalType": "address",
          "name": "tokenAddress",
          "type": "address"
        },
        {
          "internalType": "uint256",
          "name": "_tokenPrice",
          "type": "uint256"
        },
        {
          "internalType": "uint256",
          "name": "_tokensPerVP",
          "type": "uint256"
        },
        {
          "internalType": "uint256",
          "name": "_minStakeToVote",
          "type": "uint256"
        },
        {
          "internalType": "uint256",
          "name": "_minStakeToPropose",
          "type": "uint256"
        },
        {
          "internalType": "uint256",
          "name": "_stakingLockTime",
          "type": "uint256"
        },
        {
          "internalType": "uint256",
          "name": "_proposalDuration",
          "type": "uint256"
        }
      ],
      "stateMutability": "nonpayable",
      "type": "constructor"
    },
    {
      "inputs": [],
      "name": "AlreadyVoted",
      "type": "error"
    },
    {
      "inputs": [],
      "name": "DAOPaused",
      "type": "error"
    },
    {
      "inputs": [],
      "name": "InsufficientPayment",
      "type": "error"
    },
    {
      "inputs": [],
      "name": "InsufficientStake",
      "type": "error"
    },
    {
      "inputs": [],
      "name": "InvalidAmount",
      "type": "error"
    },
    {
      "inputs": [],
      "name": "InvalidProposal",
      "type": "error"
    },
    {
      "inputs": [],
      "name": "NoPanicWalletSet",
      "type": "error"
    },
    {
      "inputs": [],
      "name": "NotPanicWallet",
      "type": "error"
    },
    {
      "inputs": [],
      "name": "NotPaused",
      "type": "error"
    },
    {
      "inputs": [
        {
          "internalType": "address",
          "name": "owner",
          "type": "address"
        }
      ],
      "name": "OwnableInvalidOwner",
      "type": "error"
    },
    {
      "inputs": [
        {
          "internalType": "address",
          "name": "account",
          "type": "address"
        }
      ],
      "name": "OwnableUnauthorizedAccount",
      "type": "error"
    },
    {
      "inputs": [],
      "name": "ProposalNotActive",
      "type": "error"
    },
    {
      "inputs": [],
      "name": "ProposalStillActive",
      "type": "error"
    },
    {
      "inputs": [],
      "name": "ReentrancyGuardReentrantCall",
      "type": "error"
    },
    {
      "inputs": [],
      "name": "StakeLocked",
      "type": "error"
    },
    {
      "anonymous": false,
      "inputs": [
        {
          "indexed": true,
          "internalType": "address",
          "name": "previousOwner",
          "type": "address"
        },
        {
          "indexed": true,
          "internalType": "address",
          "name": "newOwner",
          "type": "address"
        }
      ],
      "name": "OwnershipTransferred",
      "type": "event"
    },
    {
      "anonymous": false,
      "inputs": [
        {
          "indexed": true,
          "internalType": "address",
          "name": "by",
          "type": "address"
        }
      ],
      "name": "PanicActivated",
      "type": "event"
    },
    {
      "anonymous": false,
      "inputs": [
        {
          "indexed": true,
          "internalType": "address",
          "name": "panicWallet",
          "type": "address"
        }
      ],
      "name": "PanicWalletSet",
      "type": "event"
    },
    {
      "anonymous": false,
      "inputs": [
        {
          "indexed": false,
          "internalType": "string",
          "name": "paramName",
          "type": "string"
        },
        {
          "indexed": false,
          "internalType": "uint256",
          "name": "newValue",
          "type": "uint256"
        }
      ],
      "name": "ParametersUpdated",
      "type": "event"
    },
    {
      "anonymous": false,
      "inputs": [
        {
          "indexed": true,
          "internalType": "uint256",
          "name": "proposalId",
          "type": "uint256"
        },
        {
          "indexed": true,
          "internalType": "address",
          "name": "proposer",
          "type": "address"
        },
        {
          "indexed": false,
          "internalType": "string",
          "name": "title",
          "type": "string"
        }
      ],
      "name": "ProposalCreated",
      "type": "event"
    },
    {
      "anonymous": false,
      "inputs": [
        {
          "indexed": true,
          "internalType": "uint256",
          "name": "proposalId",
          "type": "uint256"
        },
        {
          "indexed": false,
          "internalType": "enum DAO.ProposalStatus",
          "name": "status",
          "type": "uint8"
        }
      ],
      "name": "ProposalExecuted",
      "type": "event"
    },
    {
      "anonymous": false,
      "inputs": [
        {
          "indexed": true,
          "internalType": "address",
          "name": "user",
          "type": "address"
        },
        {
          "indexed": false,
          "internalType": "uint256",
          "name": "amount",
          "type": "uint256"
        },
        {
          "indexed": false,
          "internalType": "bool",
          "name": "forVoting",
          "type": "bool"
        }
      ],
      "name": "Staked",
      "type": "event"
    },
    {
      "anonymous": false,
      "inputs": [
        {
          "indexed": true,
          "internalType": "address",
          "name": "buyer",
          "type": "address"
        },
        {
          "indexed": false,
          "internalType": "uint256",
          "name": "amount",
          "type": "uint256"
        },
        {
          "indexed": false,
          "internalType": "uint256",
          "name": "cost",
          "type": "uint256"
        }
      ],
      "name": "TokensPurchased",
      "type": "event"
    },
    {
      "anonymous": false,
      "inputs": [
        {
          "indexed": true,
          "internalType": "address",
          "name": "by",
          "type": "address"
        }
      ],
      "name": "TranquilityRestored",
      "type": "event"
    },
    {
      "anonymous": false,
      "inputs": [
        {
          "indexed": true,
          "internalType": "uint256",
          "name": "proposalId",
          "type": "uint256"
        },
        {
          "indexed": true,
          "internalType": "address",
          "name": "target",
          "type": "address"
        },
        {
          "indexed": false,
          "internalType": "uint256",
          "name": "amount",
          "type": "uint256"
        }
      ],
      "name": "TreasuryTransferExecuted",
      "type": "event"
    },
    {
      "anonymous": false,
      "inputs": [
        {
          "indexed": true,
          "internalType": "address",
          "name": "user",
          "type": "address"
        },
        {
          "indexed": false,
          "internalType": "uint256",
          "name": "amount",
          "type": "uint256"
        },
        {
          "indexed": false,
          "internalType": "bool",
          "name": "fromVoting",
          "type": "bool"
        }
      ],
      "name": "Unstaked",
      "type": "event"
    },
    {
      "anonymous": false,
      "inputs": [
        {
          "indexed": true,
          "internalType": "uint256",
          "name": "proposalId",
          "type": "uint256"
        },
        {
          "indexed": true,
          "internalType": "address",
          "name": "voter",
          "type": "address"
        },
        {
          "indexed": false,
          "internalType": "bool",
          "name": "inFavor",
          "type": "bool"
        },
        {
          "indexed": false,
          "internalType": "uint256",
          "name": "votingPower",
          "type": "uint256"
        }
      ],
      "name": "Voted",
      "type": "event"
    },
    {
      "inputs": [],
      "name": "buyTokens",
      "outputs": [],
      "stateMutability": "payable",
      "type": "function"
    },
    {
      "inputs": [
        {
          "internalType": "address",
          "name": "user",
          "type": "address"
        }
      ],
      "name": "calculateVotingPower",
      "outputs": [
        {
          "internalType": "uint256",
          "name": "",
          "type": "uint256"
        }
      ],
      "stateMutability": "view",
      "type": "function"
    },
    {
      "inputs": [
        {
          "internalType": "string",
          "name": "title",
          "type": "string"
        },
        {
          "internalType": "string",
          "name": "description",
          "type": "string"
        }
      ],
      "name": "createProposal",
      "outputs": [
        {
          "internalType": "uint256",
          "name": "",
          "type": "uint256"
        }
      ],
      "stateMutability": "nonpayable",
      "type": "function"
    },
    {
      "inputs": [
        {
          "internalType": "string",
          "name": "title",
          "type": "string"
        },
        {
          "internalType": "string",
          "name": "description",
          "type": "string"
        },
        {
          "internalType": "address",
          "name": "target",
          "type": "address"
        },
        {
          "internalType": "uint256",
          "name": "amount",
          "type": "uint256"
        }
      ],
      "name": "createTreasuryProposal",
      "outputs": [
        {
          "internalType": "uint256",
          "name": "",
          "type": "uint256"
        }
      ],
      "stateMutability": "nonpayable",
      "type": "function"
    },
    {
      "inputs": [
        {
          "internalType": "uint256",
          "name": "proposalId",
          "type": "uint256"
        }
      ],
      "name": "finalizeProposal",
      "outputs": [],
      "stateMutability": "nonpayable",
      "type": "function"
    },
    {
      "inputs": [],
      "name": "getActiveProposals",
      "outputs": [
        {
          "internalType": "uint256[]",
          "name": "",
          "type": "uint256[]"
        }
      ],
      "stateMutability": "view",
      "type": "function"
    },
    {
      "inputs": [
        {
          "internalType": "uint256",
          "name": "proposalId",
          "type": "uint256"
        }
      ],
      "name": "getProposal",
      "outputs": [
        {
          "internalType": "string",
          "name": "title",
          "type": "string"
        },
        {
          "internalType": "string",
          "name": "description",
          "type": "string"
        },
        {
          "internalType": "address",
          "name": "proposer",
          "type": "address"
        },
        {
          "internalType": "uint256",
          "name": "createdAt",
          "type": "uint256"
        },
        {
          "internalType": "uint256",
          "name": "deadline",
          "type": "uint256"
        },
        {
          "internalType": "uint256",
          "name": "votesFor",
          "type": "uint256"
        },
        {
          "internalType": "uint256",
          "name": "votesAgainst",
          "type": "uint256"
        },
        {
          "internalType": "enum DAO.ProposalStatus",
          "name": "status",
          "type": "uint8"
        },
        {
          "internalType": "enum DAO.ProposalType",
          "name": "proposalType",
          "type": "uint8"
        },
        {
          "internalType": "address",
          "name": "treasuryTarget",
          "type": "address"
        },
        {
          "internalType": "uint256",
          "name": "treasuryAmount",
          "type": "uint256"
        }
      ],
      "stateMutability": "view",
      "type": "function"
    },
    {
      "inputs": [
        {
          "internalType": "uint256",
          "name": "proposalId",
          "type": "uint256"
        }
      ],
      "name": "getProposalVoters",
      "outputs": [
        {
          "internalType": "address[]",
          "name": "",
          "type": "address[]"
        }
      ],
      "stateMutability": "view",
      "type": "function"
    },
    {
      "inputs": [
        {
          "internalType": "address",
          "name": "user",
          "type": "address"
        }
      ],
      "name": "getStakeInfo",
      "outputs": [
        {
          "components": [
            {
              "internalType": "uint256",
              "name": "amountForVoting",
              "type": "uint256"
            },
            {
              "internalType": "uint256",
              "name": "amountForProposing",
              "type": "uint256"
            },
            {
              "internalType": "uint256",
              "name": "lockedUntilVoting",
              "type": "uint256"
            },
            {
              "internalType": "uint256",
              "name": "lockedUntilProposing",
              "type": "uint256"
            }
          ],
          "internalType": "struct DAO.StakeInfo",
          "name": "",
          "type": "tuple"
        }
      ],
      "stateMutability": "view",
      "type": "function"
    },
    {
      "inputs": [],
      "name": "getTreasuryBalance",
      "outputs": [
        {
          "internalType": "uint256",
          "name": "",
          "type": "uint256"
        }
      ],
      "stateMutability": "view",
      "type": "function"
    },
    {
      "inputs": [
        {
          "internalType": "uint256",
          "name": "proposalId",
          "type": "uint256"
        },
        {
          "internalType": "address",
          "name": "voter",
          "type": "address"
        }
      ],
      "name": "getVoterChoice",
      "outputs": [
        {
          "internalType": "bool",
          "name": "",
          "type": "bool"
        }
      ],
      "stateMutability": "view",
      "type": "function"
    },
    {
      "inputs": [
        {
          "internalType": "uint256",
          "name": "",
          "type": "uint256"
        },
        {
          "internalType": "address",
          "name": "",
          "type": "address"
        }
      ],
      "name": "hasVoted",
      "outputs": [
        {
          "internalType": "bool",
          "name": "",
          "type": "bool"
        }
      ],
      "stateMutability": "view",
      "type": "function"
    },
    {
      "inputs": [],
      "name": "isPaused",
      "outputs": [
        {
          "internalType": "bool",
          "name": "",
          "type": "bool"
        }
      ],
      "stateMutability": "view",
      "type": "function"
    },
    {
      "inputs": [],
      "name": "minStakeToPropose",
      "outputs": [
        {
          "internalType": "uint256",
          "name": "",
          "type": "uint256"
        }
      ],
      "stateMutability": "view",
      "type": "function"
    },
    {
      "inputs": [],
      "name": "minStakeToVote",
      "outputs": [
        {
          "internalType": "uint256",
          "name": "",
          "type": "uint256"
        }
      ],
      "stateMutability": "view",
      "type": "function"
    },
    {
      "inputs": [
        {
          "internalType": "address",
          "name": "to",
          "type": "address"
        },
        {
          "internalType": "uint256",
          "name": "amount",
          "type": "uint256"
        }
      ],
      "name": "mintTokens",
      "outputs": [],
      "stateMutability": "nonpayable",
      "type": "function"
    },
    {
      "inputs": [],
      "name": "owner",
      "outputs": [
        {
          "internalType": "address",
          "name": "",
          "type": "address"
        }
      ],
      "stateMutability": "view",
      "type": "function"
    },
    {
      "inputs": [],
      "name": "panic",
      "outputs": [],
      "stateMutability": "nonpayable",
      "type": "function"
    },
    {
      "inputs": [],
      "name": "panicWallet",
      "outputs": [
        {
          "internalType": "address",
          "name": "",
          "type": "address"
        }
      ],
      "stateMutability": "view",
      "type": "function"
    },
    {
      "inputs": [],
      "name": "proposalCount",
      "outputs": [
        {
          "internalType": "uint256",
          "name": "",
          "type": "uint256"
        }
      ],
      "stateMutability": "view",
      "type": "function"
    },
    {
      "inputs": [],
      "name": "proposalDuration",
      "outputs": [
        {
          "internalType": "uint256",
          "name": "",
          "type": "uint256"
        }
      ],
      "stateMutability": "view",
      "type": "function"
    },
    {
      "inputs": [
        {
          "internalType": "uint256",
          "name": "",
          "type": "uint256"
        }
      ],
      "name": "proposals",
      "outputs": [
        {
          "internalType": "string",
          "name": "title",
          "type": "string"
        },
        {
          "internalType": "string",
          "name": "description",
          "type": "string"
        },
        {
          "internalType": "address",
          "name": "proposer",
          "type": "address"
        },
        {
          "internalType": "uint256",
          "name": "createdAt",
          "type": "uint256"
        },
        {
          "internalType": "uint256",
          "name": "deadline",
          "type": "uint256"
        },
        {
          "internalType": "uint256",
          "name": "votesFor",
          "type": "uint256"
        },
        {
          "internalType": "uint256",
          "name": "votesAgainst",
          "type": "uint256"
        },
        {
          "internalType": "enum DAO.ProposalStatus",
          "name": "status",
          "type": "uint8"
        },
        {
          "internalType": "enum DAO.ProposalType",
          "name": "proposalType",
          "type": "uint8"
        },
        {
          "internalType": "address",
          "name": "treasuryTarget",
          "type": "address"
        },
        {
          "internalType": "uint256",
          "name": "treasuryAmount",
          "type": "uint256"
        }
      ],
      "stateMutability": "view",
      "type": "function"
    },
    {
      "inputs": [],
      "name": "renounceOwnership",
      "outputs": [],
      "stateMutability": "nonpayable",
      "type": "function"
    },
    {
      "inputs": [
        {
          "internalType": "address",
          "name": "_panicWallet",
          "type": "address"
        }
      ],
      "name": "setPanicWallet",
      "outputs": [],
      "stateMutability": "nonpayable",
      "type": "function"
    },
    {
      "inputs": [
        {
          "internalType": "uint256",
          "name": "amount",
          "type": "uint256"
        }
      ],
      "name": "stakeForProposing",
      "outputs": [],
      "stateMutability": "nonpayable",
      "type": "function"
    },
    {
      "inputs": [
        {
          "internalType": "uint256",
          "name": "amount",
          "type": "uint256"
        }
      ],
      "name": "stakeForVoting",
      "outputs": [],
      "stateMutability": "nonpayable",
      "type": "function"
    },
    {
      "inputs": [
        {
          "internalType": "address",
          "name": "",
          "type": "address"
        }
      ],
      "name": "stakes",
      "outputs": [
        {
          "internalType": "uint256",
          "name": "amountForVoting",
          "type": "uint256"
        },
        {
          "internalType": "uint256",
          "name": "amountForProposing",
          "type": "uint256"
        },
        {
          "internalType": "uint256",
          "name": "lockedUntilVoting",
          "type": "uint256"
        },
        {
          "internalType": "uint256",
          "name": "lockedUntilProposing",
          "type": "uint256"
        }
      ],
      "stateMutability": "view",
      "type": "function"
    },
    {
      "inputs": [],
      "name": "stakingLockTime",
      "outputs": [
        {
          "internalType": "uint256",
          "name": "",
          "type": "uint256"
        }
      ],
      "stateMutability": "view",
      "type": "function"
    },
    {
      "inputs": [],
      "name": "token",
      "outputs": [
        {
          "internalType": "contract DAOToken",
          "name": "",
          "type": "address"
        }
      ],
      "stateMutability": "view",
      "type": "function"
    },
    {
      "inputs": [],
      "name": "tokenPrice",
      "outputs": [
        {
          "internalType": "uint256",
          "name": "",
          "type": "uint256"
        }
      ],
      "stateMutability": "view",
      "type": "function"
    },
    {
      "inputs": [],
      "name": "tokensPerVotingPower",
      "outputs": [
        {
          "internalType": "uint256",
          "name": "",
          "type": "uint256"
        }
      ],
      "stateMutability": "view",
      "type": "function"
    },
    {
      "inputs": [],
      "name": "tranquilidad",
      "outputs": [],
      "stateMutability": "nonpayable",
      "type": "function"
    },
    {
      "inputs": [
        {
          "internalType": "address",
          "name": "newOwner",
          "type": "address"
        }
      ],
      "name": "transferOwnership",
      "outputs": [],
      "stateMutability": "nonpayable",
      "type": "function"
    },
    {
      "inputs": [
        {
          "internalType": "uint256",
          "name": "amount",
          "type": "uint256"
        }
      ],
      "name": "unstakeFromProposing",
      "outputs": [],
      "stateMutability": "nonpayable",
      "type": "function"
    },
    {
      "inputs": [
        {
          "internalType": "uint256",
          "name": "amount",
          "type": "uint256"
        }
      ],
      "name": "unstakeFromVoting",
      "outputs": [],
      "stateMutability": "nonpayable",
      "type": "function"
    },
    {
      "inputs": [
        {
          "internalType": "uint256",
          "name": "newMin",
          "type": "uint256"
        }
      ],
      "name": "updateMinStakeToPropose",
      "outputs": [],
      "stateMutability": "nonpayable",
      "type": "function"
    },
    {
      "inputs": [
        {
          "internalType": "uint256",
          "name": "newMin",
          "type": "uint256"
        }
      ],
      "name": "updateMinStakeToVote",
      "outputs": [],
      "stateMutability": "nonpayable",
      "type": "function"
    },
    {
      "inputs": [
        {
          "internalType": "uint256",
          "name": "newPrice",
          "type": "uint256"
        }
      ],
      "name": "updateTokenPrice",
      "outputs": [],
      "stateMutability": "nonpayable",
      "type": "function"
    },
    {
      "inputs": [
        {
          "internalType": "uint256",
          "name": "proposalId",
          "type": "uint256"
        },
        {
          "internalType": "address",
          "name": "user",
          "type": "address"
        }
      ],
      "name": "userHasVoted",
      "outputs": [
        {
          "internalType": "bool",
          "name": "",
          "type": "bool"
        }
      ],
      "stateMutability": "view",
      "type": "function"
    },
    {
      "inputs": [
        {
          "internalType": "uint256",
          "name": "proposalId",
          "type": "uint256"
        },
        {
          "internalType": "bool",
          "name": "inFavor",
          "type": "bool"
        }
      ],
      "name": "vote",
      "outputs": [],
      "stateMutability": "nonpayable",
      "type": "function"
    },
    {
      "inputs": [
        {
          "internalType": "uint256",
          "name": "",
          "type": "uint256"
        },
        {
          "internalType": "address",
          "name": "",
          "type": "address"
        }
      ],
      "name": "voteChoice",
      "outputs": [
        {
          "internalType": "bool",
          "name": "",
          "type": "bool"
        }
      ],
      "stateMutability": "view",
      "type": "function"
    },
    {
      "stateMutability": "payable",
      "type": "receive"
    }
  ],
  "bytecode": "0x60806040523480156200001157600080fd5b5060405162004f6538038062004f658339818101604052810190620000379190620002c2565b33600073ffffffffffffffffffffffffffffffffffffffff168173ffffffffffffffffffffffffffffffffffffffff1603620000ad5760006040517f1e4fbdf7000000000000000000000000000000000000000000000000000000008152600401620000a4919062000386565b60405180910390fd5b620000be816200015960201b60201c565b506001808190555086600260006101000a81548173ffffffffffffffffffffffffffffffffffffffff021916908373ffffffffffffffffffffffffffffffffffffffff1602179055508560048190555084600581905550836006819055508260078190555081600881905550806009819055506001600360146101000a81548160ff02191690831515021790555050505050505050620003a3565b60008060009054906101000a900473ffffffffffffffffffffffffffffffffffffffff169050816000806101000a81548173ffffffffffffffffffffffffffffffffffffffff021916908373ffffffffffffffffffffffffffffffffffffffff1602179055508173ffffffffffffffffffffffffffffffffffffffff168173ffffffffffffffffffffffffffffffffffffffff167f8be0079c531659141344cd1fd0a4f28419497f9722a3daafe3b4186f6b6457e060405160405180910390a35050565b600080fd5b600073ffffffffffffffffffffffffffffffffffffffff82169050919050565b60006200024f8262000222565b9050919050565b620002618162000242565b81146200026d57600080fd5b50565b600081519050620002818162000256565b92915050565b6000819050919050565b6200029c8162000287565b8114620002a857600080fd5b50565b600081519050620002bc8162000291565b92915050565b600080600080600080600060e0888a031215620002e457620002e36200021d565b5b6000620002f48a828b0162000270565b9750506020620003078a828b01620002ab565b96505060406200031a8a828b01620002ab565b95505060606200032d8a828b01620002ab565b9450506080620003408a828b01620002ab565b93505060a0620003538a828b01620002ab565b92505060c0620003668a828b01620002ab565b91505092959891949750929550565b620003808162000242565b82525050565b60006020820190506200039d600083018462000375565b92915050565b614bb280620003b36000396000f3fe60806040526004361061024a5760003560e01c80638da5cb5b11610139578063c7f758a8116100b6578063da35c6641161007a578063da35c664146108a3578063dc53a709146108ce578063f0dda65c146108f9578063f2fde38b14610922578063fb4688551461094b578063fc0c546a1461098857610251565b8063c7f758a8146107d7578063c9d27afe1461081e578063cbd38f4214610847578063d0febe4c14610870578063d1b85b491461087a57610251565b8063a68f34f7116100fd578063a68f34f7146106ca578063a73079ac14610707578063ad3bcade14610744578063b187bd261461076f578063c34531531461079a57610251565b80638da5cb5b1461060b57806392bfcb3a14610636578063977613821461065f5780639b5655dc14610676578063a028699e146106a157610251565b80635584c4f9116101c7578063676c0d771161018b578063676c0d771461054a5780636ee7ee5514610573578063715018a61461059e57806373c0b5cb146105b55780637ff9b596146105e057610251565b80635584c4f91461043f5780635652077c1461046a57806359d177e6146104935780635fc48d7e146104d057806365e481e21461050d57610251565b8063301099621161020e578063301099621461036e5780634091e8f01461039957806343859632146103c25780634700d305146103ff578063542ffa7b1461041657610251565b8063013cf08b146102565780630627d4251461029d5780630eac27f4146102c657806316934fc4146103035780631d408d1e1461034357610251565b3661025157005b600080fd5b34801561026257600080fd5b5061027d600480360381019061027891906135f1565b6109b3565b6040516102949b9a999897969594939291906137bd565b60405180910390f35b3480156102a957600080fd5b506102c460048036038101906102bf91906135f1565b610b77565b005b3480156102d257600080fd5b506102ed60048036038101906102e891906138a2565b610da0565b6040516102fa91906138fd565b60405180910390f35b34801561030f57600080fd5b5061032a60048036038101906103259190613918565b610e08565b60405161033a9493929190613945565b60405180910390f35b34801561034f57600080fd5b50610358610e38565b604051610365919061398a565b60405180910390f35b34801561037a57600080fd5b50610383610e3e565b604051610390919061398a565b60405180910390f35b3480156103a557600080fd5b506103c060048036038101906103bb9190613918565b610e44565b005b3480156103ce57600080fd5b506103e960048036038101906103e491906138a2565b610f5d565b6040516103f691906138fd565b60405180910390f35b34801561040b57600080fd5b50610414610f8c565b005b34801561042257600080fd5b5061043d600480360381019061043891906135f1565b611073565b005b34801561044b57600080fd5b5061045461129c565b6040516104619190613a63565b60405180910390f35b34801561047657600080fd5b50610491600480360381019061048c91906135f1565b61144e565b005b34801561049f57600080fd5b506104ba60048036038101906104b59190613918565b6117dc565b6040516104c7919061398a565b60405180910390f35b3480156104dc57600080fd5b506104f760048036038101906104f291906138a2565b61183a565b60405161050491906138fd565b60405180910390f35b34801561051957600080fd5b50610534600480360381019061052f9190613bba565b6118a2565b604051610541919061398a565b60405180910390f35b34801561055657600080fd5b50610571600480360381019061056c91906135f1565b611b3b565b005b34801561057f57600080fd5b50610588611b84565b604051610595919061398a565b60405180910390f35b3480156105aa57600080fd5b506105b3611b8a565b005b3480156105c157600080fd5b506105ca611b9e565b6040516105d7919061398a565b60405180910390f35b3480156105ec57600080fd5b506105f5611ba4565b604051610602919061398a565b60405180910390f35b34801561061757600080fd5b50610620611baa565b60405161062d9190613c32565b60405180910390f35b34801561064257600080fd5b5061065d600480360381019061065891906135f1565b611bd3565b005b34801561066b57600080fd5b50610674611c1c565b005b34801561068257600080fd5b5061068b611d49565b604051610698919061398a565b60405180910390f35b3480156106ad57600080fd5b506106c860048036038101906106c391906135f1565b611d51565b005b3480156106d657600080fd5b506106f160048036038101906106ec91906135f1565b612004565b6040516106fe9190613d0b565b60405180910390f35b34801561071357600080fd5b5061072e60048036038101906107299190613d2d565b6120a5565b60405161073b919061398a565b60405180910390f35b34801561075057600080fd5b506107596123f0565b6040516107669190613c32565b60405180910390f35b34801561077b57600080fd5b50610784612416565b60405161079191906138fd565b60405180910390f35b3480156107a657600080fd5b506107c160048036038101906107bc9190613918565b612429565b6040516107ce9190613e21565b60405180910390f35b3480156107e357600080fd5b506107fe60048036038101906107f991906135f1565b6124aa565b6040516108159b9a999897969594939291906137bd565b60405180910390f35b34801561082a57600080fd5b5061084560048036038101906108409190613e68565b61269e565b005b34801561085357600080fd5b5061086e600480360381019061086991906135f1565b612b28565b005b610878612b71565b005b34801561088657600080fd5b506108a1600480360381019061089c91906135f1565b612ebf565b005b3480156108af57600080fd5b506108b8613172565b6040516108c5919061398a565b60405180910390f35b3480156108da57600080fd5b506108e3613178565b6040516108f0919061398a565b60405180910390f35b34801561090557600080fd5b50610920600480360381019061091b9190613ea8565b61317e565b005b34801561092e57600080fd5b5061094960048036038101906109449190613918565b613302565b005b34801561095757600080fd5b50610972600480360381019061096d91906138a2565b613388565b60405161097f91906138fd565b60405180910390f35b34801561099457600080fd5b5061099d6133b7565b6040516109aa9190613f47565b60405180910390f35b600b6020528060005260406000206000915090508060000180546109d690613f91565b80601f0160208091040260200160405190810160405280929190818152602001828054610a0290613f91565b8015610a4f5780601f10610a2457610100808354040283529160200191610a4f565b820191906000526020600020905b815481529060010190602001808311610a3257829003601f168201915b505050505090806001018054610a6490613f91565b80601f0160208091040260200160405190810160405280929190818152602001828054610a9090613f91565b8015610add5780601f10610ab257610100808354040283529160200191610add565b820191906000526020600020905b815481529060010190602001808311610ac057829003601f168201915b5050505050908060020160009054906101000a900473ffffffffffffffffffffffffffffffffffffffff16908060030154908060040154908060050154908060060154908060070160009054906101000a900460ff16908060070160019054906101000a900460ff16908060070160029054906101000a900473ffffffffffffffffffffffffffffffffffffffff1690806008015490508b565b610b7f6133dd565b6000600a60003373ffffffffffffffffffffffffffffffffffffffff1673ffffffffffffffffffffffffffffffffffffffff16815260200190815260200160002090506000821480610bd45750806001015482115b15610c0b576040517f2c5211c600000000000000000000000000000000000000000000000000000000815260040160405180910390fd5b8060030154421015610c49576040517f14d10a0200000000000000000000000000000000000000000000000000000000815260040160405180910390fd5b81816001016000828254610c5d9190613ff1565b92505081905550600260009054906101000a900473ffffffffffffffffffffffffffffffffffffffff1673ffffffffffffffffffffffffffffffffffffffff1663a9059cbb33846040518363ffffffff1660e01b8152600401610cc1929190614025565b6020604051808303816000875af1158015610ce0573d6000803e3d6000fd5b505050506040513d601f19601f82011682018060405250810190610d049190614063565b610d43576040517f08c379a0000000000000000000000000000000000000000000000000000000008152600401610d3a906140dc565b60405180910390fd5b3373ffffffffffffffffffffffffffffffffffffffff167f4416ca74b4c9dd8d6070d91c267a6cf53734c0f343ced0ad02471ccb5417037e836000604051610d8c9291906140fc565b60405180910390a250610d9d613423565b50565b6000600d600084815260200190815260200160002060008373ffffffffffffffffffffffffffffffffffffffff1673ffffffffffffffffffffffffffffffffffffffff16815260200190815260200160002060009054906101000a900460ff16905092915050565b600a6020528060005260406000206000915090508060000154908060010154908060020154908060030154905084565b60065481565b60095481565b610e4c61342c565b600073ffffffffffffffffffffffffffffffffffffffff168173ffffffffffffffffffffffffffffffffffffffff1603610ebb576040517f08c379a0000000000000000000000000000000000000000000000000000000008152600401610eb290614171565b60405180910390fd5b80600360006101000a81548173ffffffffffffffffffffffffffffffffffffffff021916908373ffffffffffffffffffffffffffffffffffffffff1602179055506000600360146101000a81548160ff0219169083151502179055508073ffffffffffffffffffffffffffffffffffffffff167fa02db7c9680f52f923cc3a7d1cf764d4dac0a32c7439c70b46ecdc5daa6e2ebe60405160405180910390a250565b600c6020528160005260406000206020528060005260406000206000915091509054906101000a900460ff1681565b600360009054906101000a900473ffffffffffffffffffffffffffffffffffffffff1673ffffffffffffffffffffffffffffffffffffffff163373ffffffffffffffffffffffffffffffffffffffff1614611013576040517fb9e5ac5f00000000000000000000000000000000000000000000000000000000815260040160405180910390fd5b6001600360146101000a81548160ff0219169083151502179055503373ffffffffffffffffffffffffffffffffffffffff167f0b907d122e4db865e49bc04c7f1e84a1ae29e024ee225bc08c69104520c5f3f960405160405180910390a2565b61107b6133dd565b6000600a60003373ffffffffffffffffffffffffffffffffffffffff1673ffffffffffffffffffffffffffffffffffffffff168152602001908152602001600020905060008214806110d05750806000015482115b15611107576040517f2c5211c600000000000000000000000000000000000000000000000000000000815260040160405180910390fd5b8060020154421015611145576040517f14d10a0200000000000000000000000000000000000000000000000000000000815260040160405180910390fd5b818160000160008282546111599190613ff1565b92505081905550600260009054906101000a900473ffffffffffffffffffffffffffffffffffffffff1673ffffffffffffffffffffffffffffffffffffffff1663a9059cbb33846040518363ffffffff1660e01b81526004016111bd929190614025565b6020604051808303816000875af11580156111dc573d6000803e3d6000fd5b505050506040513d601f19601f820116820180604052508101906112009190614063565b61123f576040517f08c379a0000000000000000000000000000000000000000000000000000000008152600401611236906140dc565b60405180910390fd5b3373ffffffffffffffffffffffffffffffffffffffff167f4416ca74b4c9dd8d6070d91c267a6cf53734c0f343ced0ad02471ccb5417037e8360016040516112889291906140fc565b60405180910390a250611299613423565b50565b60606000805b600f5481101561133a57600060028111156112c0576112bf6136fe565b5b600b600083815260200190815260200160002060070160009054906101000a900460ff1660028111156112f6576112f56136fe565b5b1480156113195750600b6000828152602001908152602001600020600401544211155b1561132d57818061132990614191565b9250505b80806001019150506112a2565b5060008167ffffffffffffffff81111561135757611356613a8f565b5b6040519080825280602002602001820160405280156113855781602001602082028036833780820191505090505b5090506000805b600f5481101561144457600060028111156113aa576113a96136fe565b5b600b600083815260200190815260200160002060070160009054906101000a900460ff1660028111156113e0576113df6136fe565b5b1480156114035750600b6000828152602001908152602001600020600401544211155b15611437578083838151811061141c5761141b6141d9565b5b602002602001018181525050818061143390614191565b9250505b808060010191505061138c565b5081935050505090565b6000600b6000838152602001908152602001600020905060008160030154036114a3576040517fee03280800000000000000000000000000000000000000000000000000000000815260040160405180910390fd5b600060028111156114b7576114b66136fe565b5b8160070160009054906101000a900460ff1660028111156114db576114da6136fe565b5b14611512576040517f7becc13f00000000000000000000000000000000000000000000000000000000815260040160405180910390fd5b8060040154421161154f576040517f7362802800000000000000000000000000000000000000000000000000000000815260040160405180910390fd5b8060060154816005015411156117615760018160070160006101000a81548160ff02191690836002811115611587576115866136fe565b5b021790555060018081111561159f5761159e6136fe565b5b8160070160019054906101000a900460ff1660018111156115c3576115c26136fe565b5b0361175c57806008015447101561160f576040517f08c379a000000000000000000000000000000000000000000000000000000000815260040161160690614254565b60405180910390fd5b60008160070160029054906101000a900473ffffffffffffffffffffffffffffffffffffffff1673ffffffffffffffffffffffffffffffffffffffff16826008015460405161165d906142a5565b60006040518083038185875af1925050503d806000811461169a576040519150601f19603f3d011682016040523d82523d6000602084013e61169f565b606091505b50509050806116e3576040517f08c379a00000000000000000000000000000000000000000000000000000000081526004016116da90614306565b60405180910390fd5b8160070160029054906101000a900473ffffffffffffffffffffffffffffffffffffffff1673ffffffffffffffffffffffffffffffffffffffff16837fccf51f70e4018e2f274165b7d79ee3487cf27f890b55fb8d57e3b4cb5c6ffc798460080154604051611752919061398a565b60405180910390a3505b61178f565b60028160070160006101000a81548160ff02191690836002811115611789576117886136fe565b5b02179055505b817f5b9614f21773d68c0b149bda804ff3d491c8bc8795f7ed236cc97804cd0053898260070160009054906101000a900460ff166040516117d09190614326565b60405180910390a25050565b600080600a60008473ffffffffffffffffffffffffffffffffffffffff1673ffffffffffffffffffffffffffffffffffffffff168152602001908152602001600020600001549050600554816118329190614370565b915050919050565b6000600c600084815260200190815260200160002060008373ffffffffffffffffffffffffffffffffffffffff1673ffffffffffffffffffffffffffffffffffffffff16815260200190815260200160002060009054906101000a900460ff16905092915050565b6000600360149054906101000a900460ff16156118eb576040517fb5784fa500000000000000000000000000000000000000000000000000000000815260040160405180910390fd5b600754600a60003373ffffffffffffffffffffffffffffffffffffffff1673ffffffffffffffffffffffffffffffffffffffff168152602001908152602001600020600101541015611969576040517ff1bc94d200000000000000000000000000000000000000000000000000000000815260040160405180910390fd5b6000600f549050600f600081548092919061198390614191565b91905055506000600b60008381526020019081526020016000209050848160000190816119b09190614543565b50838160010190816119c29190614543565b50338160020160006101000a81548173ffffffffffffffffffffffffffffffffffffffff021916908373ffffffffffffffffffffffffffffffffffffffff16021790555042816003018190555060095442611a1d9190614615565b8160040181905550600081600501819055506000816006018190555060008160070160006101000a81548160ff02191690836002811115611a6157611a606136fe565b5b021790555060008160070160016101000a81548160ff02191690836001811115611a8e57611a8d6136fe565b5b021790555060008160070160026101000a81548173ffffffffffffffffffffffffffffffffffffffff021916908373ffffffffffffffffffffffffffffffffffffffff160217905550600081600801819055503373ffffffffffffffffffffffffffffffffffffffff16827f7585f467599d0f008985f231af99293be388626ac16ca59505c2f8f88969cd6387604051611b289190614649565b60405180910390a3819250505092915050565b611b4361342c565b806004819055507f952177133a28eea5034c93c6c70c1a8d223da94faaa45da8412c3c791111137f81604051611b7991906146b7565b60405180910390a150565b60085481565b611b9261342c565b611b9c60006134b3565b565b60075481565b60045481565b60008060009054906101000a900473ffffffffffffffffffffffffffffffffffffffff16905090565b611bdb61342c565b806006819055507f952177133a28eea5034c93c6c70c1a8d223da94faaa45da8412c3c791111137f81604051611c119190614731565b60405180910390a150565b600360009054906101000a900473ffffffffffffffffffffffffffffffffffffffff1673ffffffffffffffffffffffffffffffffffffffff163373ffffffffffffffffffffffffffffffffffffffff1614611ca3576040517fb9e5ac5f00000000000000000000000000000000000000000000000000000000815260040160405180910390fd5b600360149054906101000a900460ff16611ce9576040517f6cd6020100000000000000000000000000000000000000000000000000000000815260040160405180910390fd5b6000600360146101000a81548160ff0219169083151502179055503373ffffffffffffffffffffffffffffffffffffffff167fa2e764bd6010df61a2c087e90137317fdd752e4f6e3804ca8df0d6ed16f3014960405160405180910390a2565b600047905090565b600360149054906101000a900460ff1615611d98576040517fb5784fa500000000000000000000000000000000000000000000000000000000815260040160405180910390fd5b600073ffffffffffffffffffffffffffffffffffffffff16600360009054906101000a900473ffffffffffffffffffffffffffffffffffffffff1673ffffffffffffffffffffffffffffffffffffffff1603611e20576040517fce256ac000000000000000000000000000000000000000000000000000000000815260040160405180910390fd5b60008103611e5a576040517f2c5211c600000000000000000000000000000000000000000000000000000000815260040160405180910390fd5b600260009054906101000a900473ffffffffffffffffffffffffffffffffffffffff1673ffffffffffffffffffffffffffffffffffffffff166323b872dd3330846040518463ffffffff1660e01b8152600401611eb99392919061475f565b6020604051808303816000875af1158015611ed8573d6000803e3d6000fd5b505050506040513d601f19601f82011682018060405250810190611efc9190614063565b611f3b576040517f08c379a0000000000000000000000000000000000000000000000000000000008152600401611f32906140dc565b60405180910390fd5b6000600a60003373ffffffffffffffffffffffffffffffffffffffff1673ffffffffffffffffffffffffffffffffffffffff168152602001908152602001600020905081816001016000828254611f929190614615565b9250508190555060085442611fa79190614615565b81600301819055503373ffffffffffffffffffffffffffffffffffffffff167f37d4053e34fde482e96f6bcd424dfa31342cbd5fe184d497fb3c8bb4b4b97580836000604051611ff89291906140fc565b60405180910390a25050565b6060600e600083815260200190815260200160002080548060200260200160405190810160405280929190818152602001828054801561209957602002820191906000526020600020905b8160009054906101000a900473ffffffffffffffffffffffffffffffffffffffff1673ffffffffffffffffffffffffffffffffffffffff168152602001906001019080831161204f575b50505050509050919050565b6000600360149054906101000a900460ff16156120ee576040517fb5784fa500000000000000000000000000000000000000000000000000000000815260040160405180910390fd5b600754600a60003373ffffffffffffffffffffffffffffffffffffffff1673ffffffffffffffffffffffffffffffffffffffff16815260200190815260200160002060010154101561216c576040517ff1bc94d200000000000000000000000000000000000000000000000000000000815260040160405180910390fd5b600073ffffffffffffffffffffffffffffffffffffffff168373ffffffffffffffffffffffffffffffffffffffff16036121db576040517f08c379a00000000000000000000000000000000000000000000000000000000081526004016121d2906147e2565b60405180910390fd5b6000821161221e576040517f08c379a00000000000000000000000000000000000000000000000000000000081526004016122159061484e565b60405180910390fd5b6000600f549050600f600081548092919061223890614191565b91905055506000600b60008381526020019081526020016000209050868160000190816122659190614543565b50858160010190816122779190614543565b50338160020160006101000a81548173ffffffffffffffffffffffffffffffffffffffff021916908373ffffffffffffffffffffffffffffffffffffffff160217905550428160030181905550600954426122d29190614615565b8160040181905550600081600501819055506000816006018190555060008160070160006101000a81548160ff02191690836002811115612316576123156136fe565b5b021790555060018160070160016101000a81548160ff02191690836001811115612343576123426136fe565b5b0217905550848160070160026101000a81548173ffffffffffffffffffffffffffffffffffffffff021916908373ffffffffffffffffffffffffffffffffffffffff1602179055508381600801819055503373ffffffffffffffffffffffffffffffffffffffff16827f7585f467599d0f008985f231af99293be388626ac16ca59505c2f8f88969cd63896040516123db9190614649565b60405180910390a38192505050949350505050565b600360009054906101000a900473ffffffffffffffffffffffffffffffffffffffff1681565b600360149054906101000a900460ff1681565b61243161357f565b600a60008373ffffffffffffffffffffffffffffffffffffffff1673ffffffffffffffffffffffffffffffffffffffff1681526020019081526020016000206040518060800160405290816000820154815260200160018201548152602001600282015481526020016003820154815250509050919050565b606080600080600080600080600080600080600b60008e8152602001908152602001600020905080600001816001018260020160009054906101000a900473ffffffffffffffffffffffffffffffffffffffff1683600301548460040154856005015486600601548760070160009054906101000a900460ff168860070160019054906101000a900460ff168960070160029054906101000a900473ffffffffffffffffffffffffffffffffffffffff168a600801548a805461256c90613f91565b80601f016020809104026020016040519081016040528092919081815260200182805461259890613f91565b80156125e55780601f106125ba576101008083540402835291602001916125e5565b820191906000526020600020905b8154815290600101906020018083116125c857829003601f168201915b50505050509a508980546125f890613f91565b80601f016020809104026020016040519081016040528092919081815260200182805461262490613f91565b80156126715780601f1061264657610100808354040283529160200191612671565b820191906000526020600020905b81548152906001019060200180831161265457829003601f168201915b505050505099509b509b509b509b509b509b509b509b509b509b509b505091939597999b90929496989a50565b600360149054906101000a900460ff16156126e5576040517fb5784fa500000000000000000000000000000000000000000000000000000000815260040160405180910390fd5b6000600b60008481526020019081526020016000209050600081600301540361273a576040517fee03280800000000000000000000000000000000000000000000000000000000815260040160405180910390fd5b6000600281111561274e5761274d6136fe565b5b8160070160009054906101000a900460ff166002811115612772576127716136fe565b5b146127a9576040517f7becc13f00000000000000000000000000000000000000000000000000000000815260040160405180910390fd5b80600401544211156127e7576040517f7becc13f00000000000000000000000000000000000000000000000000000000815260040160405180910390fd5b600654600a60003373ffffffffffffffffffffffffffffffffffffffff1673ffffffffffffffffffffffffffffffffffffffff168152602001908152602001600020600001541015612865576040517ff1bc94d200000000000000000000000000000000000000000000000000000000815260040160405180910390fd5b600c600084815260200190815260200160002060003373ffffffffffffffffffffffffffffffffffffffff1673ffffffffffffffffffffffffffffffffffffffff16815260200190815260200160002060009054906101000a900460ff16156128fa576040517f7c9a1cf900000000000000000000000000000000000000000000000000000000815260040160405180910390fd5b6000612905336117dc565b90506000811161294a576040517f08c379a0000000000000000000000000000000000000000000000000000000008152600401612941906148ba565b60405180910390fd5b6001600c600086815260200190815260200160002060003373ffffffffffffffffffffffffffffffffffffffff1673ffffffffffffffffffffffffffffffffffffffff16815260200190815260200160002060006101000a81548160ff02191690831515021790555082600d600086815260200190815260200160002060003373ffffffffffffffffffffffffffffffffffffffff1673ffffffffffffffffffffffffffffffffffffffff16815260200190815260200160002060006101000a81548160ff021916908315150217905550600e6000858152602001908152602001600020339080600181540180825580915050600190039060005260206000200160009091909190916101000a81548173ffffffffffffffffffffffffffffffffffffffff021916908373ffffffffffffffffffffffffffffffffffffffff1602179055508215612ab55780826005016000828254612aa99190614615565b92505081905550612ad1565b80826006016000828254612ac99190614615565b925050819055505b3373ffffffffffffffffffffffffffffffffffffffff16847f7c2de587c00d75474a0c6c6fa96fd3b45dc974cd4e8a75f712bb84c950dce1b58584604051612b1a9291906148da565b60405180910390a350505050565b612b3061342c565b806007819055507f952177133a28eea5034c93c6c70c1a8d223da94faaa45da8412c3c791111137f81604051612b66919061494f565b60405180910390a150565b600360149054906101000a900460ff1615612bb8576040517fb5784fa500000000000000000000000000000000000000000000000000000000815260040160405180910390fd5b600073ffffffffffffffffffffffffffffffffffffffff16600360009054906101000a900473ffffffffffffffffffffffffffffffffffffffff1673ffffffffffffffffffffffffffffffffffffffff1603612c40576040517fce256ac000000000000000000000000000000000000000000000000000000000815260040160405180910390fd5b612c486133dd565b60003403612c82576040517f2c5211c600000000000000000000000000000000000000000000000000000000815260040160405180910390fd5b6000600454670de0b6b3a764000034612c9b919061497d565b612ca59190614370565b905080600260009054906101000a900473ffffffffffffffffffffffffffffffffffffffff1673ffffffffffffffffffffffffffffffffffffffff166370a08231306040518263ffffffff1660e01b8152600401612d039190613c32565b602060405180830381865afa158015612d20573d6000803e3d6000fd5b505050506040513d601f19601f82011682018060405250810190612d4491906149d4565b1015612d85576040517f08c379a0000000000000000000000000000000000000000000000000000000008152600401612d7c90614a4d565b60405180910390fd5b600260009054906101000a900473ffffffffffffffffffffffffffffffffffffffff1673ffffffffffffffffffffffffffffffffffffffff1663a9059cbb33836040518363ffffffff1660e01b8152600401612de2929190614025565b6020604051808303816000875af1158015612e01573d6000803e3d6000fd5b505050506040513d601f19601f82011682018060405250810190612e259190614063565b612e64576040517f08c379a0000000000000000000000000000000000000000000000000000000008152600401612e5b906140dc565b60405180910390fd5b3373ffffffffffffffffffffffffffffffffffffffff167f8fafebcaf9d154343dad25669bfa277f4fbacd7ac6b0c4fed522580e040a0f338234604051612eac929190614a6d565b60405180910390a250612ebd613423565b565b600360149054906101000a900460ff1615612f06576040517fb5784fa500000000000000000000000000000000000000000000000000000000815260040160405180910390fd5b600073ffffffffffffffffffffffffffffffffffffffff16600360009054906101000a900473ffffffffffffffffffffffffffffffffffffffff1673ffffffffffffffffffffffffffffffffffffffff1603612f8e576040517fce256ac000000000000000000000000000000000000000000000000000000000815260040160405180910390fd5b60008103612fc8576040517f2c5211c600000000000000000000000000000000000000000000000000000000815260040160405180910390fd5b600260009054906101000a900473ffffffffffffffffffffffffffffffffffffffff1673ffffffffffffffffffffffffffffffffffffffff166323b872dd3330846040518463ffffffff1660e01b81526004016130279392919061475f565b6020604051808303816000875af1158015613046573d6000803e3d6000fd5b505050506040513d601f19601f8201168201806040525081019061306a9190614063565b6130a9576040517f08c379a00000000000000000000000000000000000000000000000000000000081526004016130a0906140dc565b60405180910390fd5b6000600a60003373ffffffffffffffffffffffffffffffffffffffff1673ffffffffffffffffffffffffffffffffffffffff1681526020019081526020016000209050818160000160008282546131009190614615565b92505081905550600854426131159190614615565b81600201819055503373ffffffffffffffffffffffffffffffffffffffff167f37d4053e34fde482e96f6bcd424dfa31342cbd5fe184d497fb3c8bb4b4b975808360016040516131669291906140fc565b60405180910390a25050565b600f5481565b60055481565b61318661342c565b600073ffffffffffffffffffffffffffffffffffffffff168273ffffffffffffffffffffffffffffffffffffffff16036131f5576040517f08c379a00000000000000000000000000000000000000000000000000000000081526004016131ec90614ae2565b60405180910390fd5b60008111613238576040517f08c379a000000000000000000000000000000000000000000000000000000000815260040161322f9061484e565b60405180910390fd5b600260009054906101000a900473ffffffffffffffffffffffffffffffffffffffff1673ffffffffffffffffffffffffffffffffffffffff166340c10f1983836040518363ffffffff1660e01b8152600401613295929190614025565b600060405180830381600087803b1580156132af57600080fd5b505af11580156132c3573d6000803e3d6000fd5b505050507f952177133a28eea5034c93c6c70c1a8d223da94faaa45da8412c3c791111137f816040516132f69190614b4e565b60405180910390a15050565b61330a61342c565b600073ffffffffffffffffffffffffffffffffffffffff168173ffffffffffffffffffffffffffffffffffffffff160361337c5760006040517f1e4fbdf70000000000000000000000000000000000000000000000000000000081526004016133739190613c32565b60405180910390fd5b613385816134b3565b50565b600d6020528160005260406000206020528060005260406000206000915091509054906101000a900460ff1681565b600260009054906101000a900473ffffffffffffffffffffffffffffffffffffffff1681565b600260015403613419576040517f3ee5aeb500000000000000000000000000000000000000000000000000000000815260040160405180910390fd5b6002600181905550565b60018081905550565b613434613577565b73ffffffffffffffffffffffffffffffffffffffff16613452611baa565b73ffffffffffffffffffffffffffffffffffffffff16146134b157613475613577565b6040517f118cdaa70000000000000000000000000000000000000000000000000000000081526004016134a89190613c32565b60405180910390fd5b565b60008060009054906101000a900473ffffffffffffffffffffffffffffffffffffffff169050816000806101000a81548173ffffffffffffffffffffffffffffffffffffffff021916908373ffffffffffffffffffffffffffffffffffffffff1602179055508173ffffffffffffffffffffffffffffffffffffffff168173ffffffffffffffffffffffffffffffffffffffff167f8be0079c531659141344cd1fd0a4f28419497f9722a3daafe3b4186f6b6457e060405160405180910390a35050565b600033905090565b6040518060800160405280600081526020016000815260200160008152602001600081525090565b6000604051905090565b600080fd5b600080fd5b6000819050919050565b6135ce816135bb565b81146135d957600080fd5b50565b6000813590506135eb816135c5565b92915050565b600060208284031215613607576136066135b1565b5b6000613615848285016135dc565b91505092915050565b600081519050919050565b600082825260208201905092915050565b60005b8381101561365857808201518184015260208101905061363d565b60008484015250505050565b6000601f19601f8301169050919050565b60006136808261361e565b61368a8185613629565b935061369a81856020860161363a565b6136a381613664565b840191505092915050565b600073ffffffffffffffffffffffffffffffffffffffff82169050919050565b60006136d9826136ae565b9050919050565b6136e9816136ce565b82525050565b6136f8816135bb565b82525050565b7f4e487b7100000000000000000000000000000000000000000000000000000000600052602160045260246000fd5b6003811061373e5761373d6136fe565b5b50565b600081905061374f8261372d565b919050565b600061375f82613741565b9050919050565b61376f81613754565b82525050565b60028110613786576137856136fe565b5b50565b600081905061379782613775565b919050565b60006137a782613789565b9050919050565b6137b78161379c565b82525050565b60006101608201905081810360008301526137d8818e613675565b905081810360208301526137ec818d613675565b90506137fb604083018c6136e0565b613808606083018b6136ef565b613815608083018a6136ef565b61382260a08301896136ef565b61382f60c08301886136ef565b61383c60e0830187613766565b61384a6101008301866137ae565b6138586101208301856136e0565b6138666101408301846136ef565b9c9b505050505050505050505050565b61387f816136ce565b811461388a57600080fd5b50565b60008135905061389c81613876565b92915050565b600080604083850312156138b9576138b86135b1565b5b60006138c7858286016135dc565b92505060206138d88582860161388d565b9150509250929050565b60008115159050919050565b6138f7816138e2565b82525050565b600060208201905061391260008301846138ee565b92915050565b60006020828403121561392e5761392d6135b1565b5b600061393c8482850161388d565b91505092915050565b600060808201905061395a60008301876136ef565b61396760208301866136ef565b61397460408301856136ef565b61398160608301846136ef565b95945050505050565b600060208201905061399f60008301846136ef565b92915050565b600081519050919050565b600082825260208201905092915050565b6000819050602082019050919050565b6139da816135bb565b82525050565b60006139ec83836139d1565b60208301905092915050565b6000602082019050919050565b6000613a10826139a5565b613a1a81856139b0565b9350613a25836139c1565b8060005b83811015613a56578151613a3d88826139e0565b9750613a48836139f8565b925050600181019050613a29565b5085935050505092915050565b60006020820190508181036000830152613a7d8184613a05565b905092915050565b600080fd5b600080fd5b7f4e487b7100000000000000000000000000000000000000000000000000000000600052604160045260246000fd5b613ac782613664565b810181811067ffffffffffffffff82111715613ae657613ae5613a8f565b5b80604052505050565b6000613af96135a7565b9050613b058282613abe565b919050565b600067ffffffffffffffff821115613b2557613b24613a8f565b5b613b2e82613664565b9050602081019050919050565b82818337600083830152505050565b6000613b5d613b5884613b0a565b613aef565b905082815260208101848484011115613b7957613b78613a8a565b5b613b84848285613b3b565b509392505050565b600082601f830112613ba157613ba0613a85565b5b8135613bb1848260208601613b4a565b91505092915050565b60008060408385031215613bd157613bd06135b1565b5b600083013567ffffffffffffffff811115613bef57613bee6135b6565b5b613bfb85828601613b8c565b925050602083013567ffffffffffffffff811115613c1c57613c1b6135b6565b5b613c2885828601613b8c565b9150509250929050565b6000602082019050613c4760008301846136e0565b92915050565b600081519050919050565b600082825260208201905092915050565b6000819050602082019050919050565b613c82816136ce565b82525050565b6000613c948383613c79565b60208301905092915050565b6000602082019050919050565b6000613cb882613c4d565b613cc28185613c58565b9350613ccd83613c69565b8060005b83811015613cfe578151613ce58882613c88565b9750613cf083613ca0565b925050600181019050613cd1565b5085935050505092915050565b60006020820190508181036000830152613d258184613cad565b905092915050565b60008060008060808587031215613d4757613d466135b1565b5b600085013567ffffffffffffffff811115613d6557613d646135b6565b5b613d7187828801613b8c565b945050602085013567ffffffffffffffff811115613d9257613d916135b6565b5b613d9e87828801613b8c565b9350506040613daf8782880161388d565b9250506060613dc0878288016135dc565b91505092959194509250565b608082016000820151613de260008501826139d1565b506020820151613df560208501826139d1565b506040820151613e0860408501826139d1565b506060820151613e1b60608501826139d1565b50505050565b6000608082019050613e366000830184613dcc565b92915050565b613e45816138e2565b8114613e5057600080fd5b50565b600081359050613e6281613e3c565b92915050565b60008060408385031215613e7f57613e7e6135b1565b5b6000613e8d858286016135dc565b9250506020613e9e85828601613e53565b9150509250929050565b60008060408385031215613ebf57613ebe6135b1565b5b6000613ecd8582860161388d565b9250506020613ede858286016135dc565b9150509250929050565b6000819050919050565b6000613f0d613f08613f03846136ae565b613ee8565b6136ae565b9050919050565b6000613f1f82613ef2565b9050919050565b6000613f3182613f14565b9050919050565b613f4181613f26565b82525050565b6000602082019050613f5c6000830184613f38565b92915050565b7f4e487b7100000000000000000000000000000000000000000000000000000000600052602260045260246000fd5b60006002820490506001821680613fa957607f821691505b602082108103613fbc57613fbb613f62565b5b50919050565b7f4e487b7100000000000000000000000000000000000000000000000000000000600052601160045260246000fd5b6000613ffc826135bb565b9150614007836135bb565b925082820390508181111561401f5761401e613fc2565b5b92915050565b600060408201905061403a60008301856136e0565b61404760208301846136ef565b9392505050565b60008151905061405d81613e3c565b92915050565b600060208284031215614079576140786135b1565b5b60006140878482850161404e565b91505092915050565b7f5472616e73666572206661696c65640000000000000000000000000000000000600082015250565b60006140c6600f83613629565b91506140d182614090565b602082019050919050565b600060208201905081810360008301526140f5816140b9565b9050919050565b600060408201905061411160008301856136ef565b61411e60208301846138ee565b9392505050565b7f496e76616c69642070616e69632077616c6c6574000000000000000000000000600082015250565b600061415b601483613629565b915061416682614125565b602082019050919050565b6000602082019050818103600083015261418a8161414e565b9050919050565b600061419c826135bb565b91507fffffffffffffffffffffffffffffffffffffffffffffffffffffffffffffffff82036141ce576141cd613fc2565b5b600182019050919050565b7f4e487b7100000000000000000000000000000000000000000000000000000000600052603260045260246000fd5b7f496e73756666696369656e742074726561737572792062616c616e6365000000600082015250565b600061423e601d83613629565b915061424982614208565b602082019050919050565b6000602082019050818103600083015261426d81614231565b9050919050565b600081905092915050565b50565b600061428f600083614274565b915061429a8261427f565b600082019050919050565b60006142b082614282565b9150819050919050565b7f5472656173757279207472616e73666572206661696c65640000000000000000600082015250565b60006142f0601883613629565b91506142fb826142ba565b602082019050919050565b6000602082019050818103600083015261431f816142e3565b9050919050565b600060208201905061433b6000830184613766565b92915050565b7f4e487b7100000000000000000000000000000000000000000000000000000000600052601260045260246000fd5b600061437b826135bb565b9150614386836135bb565b92508261439657614395614341565b5b828204905092915050565b60008190508160005260206000209050919050565b60006020601f8301049050919050565b600082821b905092915050565b6000600883026144037fffffffffffffffffffffffffffffffffffffffffffffffffffffffffffffffff826143c6565b61440d86836143c6565b95508019841693508086168417925050509392505050565b600061444061443b614436846135bb565b613ee8565b6135bb565b9050919050565b6000819050919050565b61445a83614425565b61446e61446682614447565b8484546143d3565b825550505050565b600090565b614483614476565b61448e818484614451565b505050565b5b818110156144b2576144a760008261447b565b600181019050614494565b5050565b601f8211156144f7576144c8816143a1565b6144d1846143b6565b810160208510156144e0578190505b6144f46144ec856143b6565b830182614493565b50505b505050565b600082821c905092915050565b600061451a600019846008026144fc565b1980831691505092915050565b60006145338383614509565b9150826002028217905092915050565b61454c8261361e565b67ffffffffffffffff81111561456557614564613a8f565b5b61456f8254613f91565b61457a8282856144b6565b600060209050601f8311600181146145ad576000841561459b578287015190505b6145a58582614527565b86555061460d565b601f1984166145bb866143a1565b60005b828110156145e3578489015182556001820191506020850194506020810190506145be565b8683101561460057848901516145fc601f891682614509565b8355505b6001600288020188555050505b505050505050565b6000614620826135bb565b915061462b836135bb565b925082820190508082111561464357614642613fc2565b5b92915050565b600060208201905081810360008301526146638184613675565b905092915050565b7f746f6b656e507269636500000000000000000000000000000000000000000000600082015250565b60006146a1600a83613629565b91506146ac8261466b565b602082019050919050565b600060408201905081810360008301526146d081614694565b90506146df60208301846136ef565b92915050565b7f6d696e5374616b65546f566f7465000000000000000000000000000000000000600082015250565b600061471b600e83613629565b9150614726826146e5565b602082019050919050565b6000604082019050818103600083015261474a8161470e565b905061475960208301846136ef565b92915050565b600060608201905061477460008301866136e0565b61478160208301856136e0565b61478e60408301846136ef565b949350505050565b7f496e76616c696420746172676574206164647265737300000000000000000000600082015250565b60006147cc601683613629565b91506147d782614796565b602082019050919050565b600060208201905081810360008301526147fb816147bf565b9050919050565b7f416d6f756e74206d7573742062652067726561746572207468616e2030000000600082015250565b6000614838601d83613629565b915061484382614802565b602082019050919050565b600060208201905081810360008301526148678161482b565b9050919050565b7f4e6f20766f74696e6720706f7765720000000000000000000000000000000000600082015250565b60006148a4600f83613629565b91506148af8261486e565b602082019050919050565b600060208201905081810360008301526148d381614897565b9050919050565b60006040820190506148ef60008301856138ee565b6148fc60208301846136ef565b9392505050565b7f6d696e5374616b65546f50726f706f7365000000000000000000000000000000600082015250565b6000614939601183613629565b915061494482614903565b602082019050919050565b600060408201905081810360008301526149688161492c565b905061497760208301846136ef565b92915050565b6000614988826135bb565b9150614993836135bb565b92508282026149a1816135bb565b915082820484148315176149b8576149b7613fc2565b5b5092915050565b6000815190506149ce816135c5565b92915050565b6000602082840312156149ea576149e96135b1565b5b60006149f8848285016149bf565b91505092915050565b7f496e73756666696369656e7420746f6b656e7320696e2044414f000000000000600082015250565b6000614a37601a83613629565b9150614a4282614a01565b602082019050919050565b60006020820190508181036000830152614a6681614a2a565b9050919050565b6000604082019050614a8260008301856136ef565b614a8f60208301846136ef565b9392505050565b7f496e76616c696420616464726573730000000000000000000000000000000000600082015250565b6000614acc600f83613629565b9150614ad782614a96565b602082019050919050565b60006020820190508181036000830152614afb81614abf565b9050919050565b7f746f6b656e734d696e7465640000000000000000000000000000000000000000600082015250565b6000614b38600c83613629565b9150614b4382614b02565b602082019050919050565b60006040820190508181036000830152614b6781614b2b565b9050614b7660208301846136ef565b9291505056fea2646970667358221220b66c0fae8994876baf525bed82c6b842119ed98619d7568bea68223850a5ac8a64736f6c63430008180033",
  "linkReferences": {},
  "deployedLinkReferences": {}
}