{
  "_format": "hh-sol-artifact-1",
  "contractName": "SimpleMultiSig",
  "sourceName": "contracts/MultiSig.sol",
  "abi": [
    {
      "inputs": [
        {
          "internalType": "address[]",
          "name": "owners_",
          "type": "address[]"
        },
        {
          "internalType": "uint256",
          "name": "required_",
          "type": "uint256"
        }
      ],
      "stateMutability": "nonpayable",
      "type": "constructor"
    },
    {
      "inputs": [
        {
          "internalType": "uint256",
          "name": "txnId",
          "type": "uint256"
        }
      ],
      "name": "AlreadyExecuted",
      "type": "error"
    },
    {
      "inputs": [
        {
          "internalType": "uint256",
          "name": "txnId",
          "type": "uint256"
        },
        {
          "internalType": "bytes",
          "name": "data",
          "type": "bytes"
        }
      ],
      "name": "ExecutionFailed",
      "type": "error"
    },
    {
      "inputs": [],
      "name": "InvalidRequiredConfirmations",
      "type": "error"
    },
    {
      "inputs": [
        {
          "internalType": "uint256",
          "name": "txnId",
          "type": "uint256"
        }
      ],
      "name": "InvalidTransaction",
      "type": "error"
    },
    {
      "inputs": [],
      "name": "NotAnOwner",
      "type": "error"
    },
    {
      "inputs": [],
      "name": "NotEnoughConfirmations",
      "type": "error"
    },
    {
      "inputs": [],
      "name": "OwnersRequired",
      "type": "error"
    },
    {
      "anonymous": false,
      "inputs": [
        {
          "indexed": true,
          "internalType": "uint256",
          "name": "txId",
          "type": "uint256"
        },
        {
          "indexed": true,
          "internalType": "address",
          "name": "owner",
          "type": "address"
        }
      ],
      "name": "TransactionConfirmed",
      "type": "event"
    },
    {
      "anonymous": false,
      "inputs": [
        {
          "indexed": true,
          "internalType": "uint256",
          "name": "txId",
          "type": "uint256"
        }
      ],
      "name": "TransactionExecuted",
      "type": "event"
    },
    {
      "anonymous": false,
      "inputs": [
        {
          "indexed": true,
          "internalType": "uint256",
          "name": "txId",
          "type": "uint256"
        },
        {
          "indexed": true,
          "internalType": "address",
          "name": "to",
          "type": "address"
        },
        {
          "indexed": false,
          "internalType": "uint256",
          "name": "value",
          "type": "uint256"
        },
        {
          "indexed": false,
          "internalType": "bytes",
          "name": "data",
          "type": "bytes"
        }
      ],
      "name": "TransactionSubmitted",
      "type": "event"
    },
    {
      "inputs": [],
      "name": "_requiredConfirmations",
      "outputs": [
        {
          "internalType": "uint256",
          "name": "",
          "type": "uint256"
        }
      ],
      "stateMutability": "view",
      "type": "function"
    },
    {
      "inputs": [
        {
          "internalType": "uint256",
          "name": "txnId_",
          "type": "uint256"
        }
      ],
      "name": "confirmTransaction",
      "outputs": [],
      "stateMutability": "nonpayable",
      "type": "function"
    },
    {
      "inputs": [
        {
          "internalType": "uint256",
          "name": "txnId_",
          "type": "uint256"
        }
      ],
      "name": "confirmations",
      "outputs": [
        {
          "internalType": "uint256",
          "name": "",
          "type": "uint256"
        }
      ],
      "stateMutability": "view",
      "type": "function"
    },
    {
      "inputs": [
        {
          "internalType": "uint256",
          "name": "txnId_",
          "type": "uint256"
        }
      ],
      "name": "executeTransaction",
      "outputs": [],
      "stateMutability": "nonpayable",
      "type": "function"
    },
    {
      "inputs": [
        {
          "internalType": "uint256",
          "name": "txnId_",
          "type": "uint256"
        }
      ],
      "name": "getTransaction",
      "outputs": [
        {
          "internalType": "address",
          "name": "to",
          "type": "address"
        },
        {
          "internalType": "uint256",
          "name": "value",
          "type": "uint256"
        },
        {
          "internalType": "bytes",
          "name": "data",
          "type": "bytes"
        },
        {
          "internalType": "bool",
          "name": "executed",
          "type": "bool"
        }
      ],
      "stateMutability": "view",
      "type": "function"
    },
    {
      "inputs": [],
      "name": "owners",
      "outputs": [
        {
          "internalType": "address[]",
          "name": "",
          "type": "address[]"
        }
      ],
      "stateMutability": "view",
      "type": "function"
    },
    {
      "inputs": [
        {
          "internalType": "address",
          "name": "to_",
          "type": "address"
        },
        {
          "internalType": "uint256",
          "name": "value_",
          "type": "uint256"
        },
        {
          "internalType": "bytes",
          "name": "data_",
          "type": "bytes"
        }
      ],
      "name": "submitTransaction",
      "outputs": [
        {
          "internalType": "uint256",
          "name": "",
          "type": "uint256"
        }
      ],
      "stateMutability": "nonpayable",
      "type": "function"
    },
    {
      "inputs": [],
      "name": "transactionCount",
      "outputs": [
        {
          "internalType": "uint256",
          "name": "",
          "type": "uint256"
        }
      ],
      "stateMutability": "view",
      "type": "function"
    },
    {
      "stateMutability": "payable",
      "type": "receive"
    }
  ],
  "bytecode": "0x60806040523480156200001157600080fd5b50604051620019e4380380620019e4833981810160405281019062000037919062000472565b600082510362000073576040517f401b9c4b00000000000000000000000000000000000000000000000000000000815260040160405180910390fd5b6000811480620000835750815181115b15620000bb576040517f6312410b00000000000000000000000000000000000000000000000000000000815260040160405180910390fd5b8160019080519060200190620000d39291906200019b565b508060028190555060005b6001805490508110156200019257600160008060018481548110620001085762000107620004d8565b5b9060005260206000200160009054906101000a900473ffffffffffffffffffffffffffffffffffffffff1673ffffffffffffffffffffffffffffffffffffffff1673ffffffffffffffffffffffffffffffffffffffff16815260200190815260200160002060006101000a81548160ff0219169083151502179055508080600101915050620000de565b50505062000507565b82805482825590600052602060002090810192821562000217579160200282015b82811115620002165782518260006101000a81548173ffffffffffffffffffffffffffffffffffffffff021916908373ffffffffffffffffffffffffffffffffffffffff16021790555091602001919060010190620001bc565b5b5090506200022691906200022a565b5090565b5b80821115620002455760008160009055506001016200022b565b5090565b6000604051905090565b600080fd5b600080fd5b600080fd5b6000601f19601f8301169050919050565b7f4e487b7100000000000000000000000000000000000000000000000000000000600052604160045260246000fd5b620002ad8262000262565b810181811067ffffffffffffffff82111715620002cf57620002ce62000273565b5b80604052505050565b6000620002e462000249565b9050620002f28282620002a2565b919050565b600067ffffffffffffffff82111562000315576200031462000273565b5b602082029050602081019050919050565b600080fd5b600073ffffffffffffffffffffffffffffffffffffffff82169050919050565b600062000358826200032b565b9050919050565b6200036a816200034b565b81146200037657600080fd5b50565b6000815190506200038a816200035f565b92915050565b6000620003a7620003a184620002f7565b620002d8565b90508083825260208201905060208402830185811115620003cd57620003cc62000326565b5b835b81811015620003fa5780620003e5888262000379565b845260208401935050602081019050620003cf565b5050509392505050565b600082601f8301126200041c576200041b6200025d565b5b81516200042e84826020860162000390565b91505092915050565b6000819050919050565b6200044c8162000437565b81146200045857600080fd5b50565b6000815190506200046c8162000441565b92915050565b600080604083850312156200048c576200048b62000253565b5b600083015167ffffffffffffffff811115620004ad57620004ac62000258565b5b620004bb8582860162000404565b9250506020620004ce858286016200045b565b9150509250929050565b7f4e487b7100000000000000000000000000000000000000000000000000000000600052603260045260246000fd5b6114cd80620005176000396000f3fe60806040526004361061007f5760003560e01c8063b9774f7b1161004e578063b9774f7b1461014c578063c01a8c8414610189578063c6427474146101b2578063ee22610b146101ef57610086565b80630b26bef81461008b57806333ea3dc8146100b6578063affe39c1146100f6578063b77bf6001461012157610086565b3661008657005b600080fd5b34801561009757600080fd5b506100a0610218565b6040516100ad9190610bce565b60405180910390f35b3480156100c257600080fd5b506100dd60048036038101906100d89190610c29565b61021e565b6040516100ed9493929190610d42565b60405180910390f35b34801561010257600080fd5b5061010b610372565b6040516101189190610e4c565b60405180910390f35b34801561012d57600080fd5b50610136610400565b6040516101439190610bce565b60405180910390f35b34801561015857600080fd5b50610173600480360381019061016e9190610c29565b61040d565b6040516101809190610bce565b60405180910390f35b34801561019557600080fd5b506101b060048036038101906101ab9190610c29565b6104f1565b005b3480156101be57600080fd5b506101d960048036038101906101d49190610fcf565b610700565b6040516101e69190610bce565b60405180910390f35b3480156101fb57600080fd5b5061021660048036038101906102119190610c29565b6108d8565b005b60025481565b6000806060600084600480549050811061026f57806040517f717a34100000000000000000000000000000000000000000000000000000000081526004016102669190610bce565b60405180910390fd5b6000600487815481106102855761028461103e565b5b906000526020600020906004020190508060000160009054906101000a900473ffffffffffffffffffffffffffffffffffffffff168160010154826003018360020160009054906101000a900460ff168180546102e19061109c565b80601f016020809104026020016040519081016040528092919081815260200182805461030d9061109c565b801561035a5780601f1061032f5761010080835404028352916020019161035a565b820191906000526020600020905b81548152906001019060200180831161033d57829003601f168201915b50505050509150955095509550955050509193509193565b606060018054806020026020016040519081016040528092919081815260200182805480156103f657602002820191906000526020600020905b8160009054906101000a900473ffffffffffffffffffffffffffffffffffffffff1673ffffffffffffffffffffffffffffffffffffffff16815260200190600101908083116103ac575b5050505050905090565b6000600480549050905090565b6000806000905060005b6001805490508110156104e75760006001828154811061043a5761043961103e565b5b9060005260206000200160009054906101000a900473ffffffffffffffffffffffffffffffffffffffff1690506003600086815260200190815260200160002060008273ffffffffffffffffffffffffffffffffffffffff1673ffffffffffffffffffffffffffffffffffffffff16815260200190815260200160002060009054906101000a900460ff16156104d95782806104d5906110fc565b9350505b508080600101915050610417565b5080915050919050565b6000803373ffffffffffffffffffffffffffffffffffffffff1673ffffffffffffffffffffffffffffffffffffffff16815260200190815260200160002060009054906101000a900460ff16610573576040517feea91ff800000000000000000000000000000000000000000000000000000000815260040160405180910390fd5b8060048054905081106105bd57806040517f717a34100000000000000000000000000000000000000000000000000000000081526004016105b49190610bce565b60405180910390fd5b81600481815481106105d2576105d161103e565b5b906000526020600020906004020160020160009054906101000a900460ff161561063357806040517f6a64e96100000000000000000000000000000000000000000000000000000000815260040161062a9190610bce565b60405180910390fd5b60016003600085815260200190815260200160002060003373ffffffffffffffffffffffffffffffffffffffff1673ffffffffffffffffffffffffffffffffffffffff16815260200190815260200160002060006101000a81548160ff0219169083151502179055503373ffffffffffffffffffffffffffffffffffffffff16837f15c2f311c9e0f53b50388279894aeff029a3457884a6601e924fca879e12adcc60405160405180910390a36002546106ec8461040d565b106106fb576106fa836108d8565b5b505050565b60008060003373ffffffffffffffffffffffffffffffffffffffff1673ffffffffffffffffffffffffffffffffffffffff16815260200190815260200160002060009054906101000a900460ff16610784576040517feea91ff800000000000000000000000000000000000000000000000000000000815260040160405180910390fd5b60006004805490509050600460405180608001604052808773ffffffffffffffffffffffffffffffffffffffff16815260200186815260200160001515815260200185815250908060018154018082558091505060019003906000526020600020906004020160009091909190915060008201518160000160006101000a81548173ffffffffffffffffffffffffffffffffffffffff021916908373ffffffffffffffffffffffffffffffffffffffff1602179055506020820151816001015560408201518160020160006101000a81548160ff021916908315150217905550606082015181600301908161087991906112f0565b5050508473ffffffffffffffffffffffffffffffffffffffff16817f3f6db45da5513bd4fe9f8a31e60ea668bdd4bca57e30a85a9a26f90c9fbcb56c86866040516108c59291906113c2565b60405180910390a3809150509392505050565b6000803373ffffffffffffffffffffffffffffffffffffffff1673ffffffffffffffffffffffffffffffffffffffff16815260200190815260200160002060009054906101000a900460ff1661095a576040517feea91ff800000000000000000000000000000000000000000000000000000000815260040160405180910390fd5b8060048054905081106109a457806040517f717a341000000000000000000000000000000000000000000000000000000000815260040161099b9190610bce565b60405180910390fd5b81600481815481106109b9576109b861103e565b5b906000526020600020906004020160020160009054906101000a900460ff1615610a1a57806040517f6a64e961000000000000000000000000000000000000000000000000000000008152600401610a119190610bce565b60405180910390fd5b600254610a268461040d565b1015610a5e576040517fb9310b5600000000000000000000000000000000000000000000000000000000815260040160405180910390fd5b600060048481548110610a7457610a7361103e565b5b9060005260206000209060040201905060018160020160006101000a81548160ff0219169083151502179055506000808260000160009054906101000a900473ffffffffffffffffffffffffffffffffffffffff1673ffffffffffffffffffffffffffffffffffffffff16836001015484600301604051610af59190611480565b60006040518083038185875af1925050503d8060008114610b32576040519150601f19603f3d011682016040523d82523d6000602084013e610b37565b606091505b509150915081610b805785816040517f2c4029e9000000000000000000000000000000000000000000000000000000008152600401610b779291906113c2565b60405180910390fd5b857f15ed165a284872ea7017f03df402a0cadfbfab588320ffaf83f160c2f82781c760405160405180910390a2505050505050565b6000819050919050565b610bc881610bb5565b82525050565b6000602082019050610be36000830184610bbf565b92915050565b6000604051905090565b600080fd5b600080fd5b610c0681610bb5565b8114610c1157600080fd5b50565b600081359050610c2381610bfd565b92915050565b600060208284031215610c3f57610c3e610bf3565b5b6000610c4d84828501610c14565b91505092915050565b600073ffffffffffffffffffffffffffffffffffffffff82169050919050565b6000610c8182610c56565b9050919050565b610c9181610c76565b82525050565b600081519050919050565b600082825260208201905092915050565b60005b83811015610cd1578082015181840152602081019050610cb6565b60008484015250505050565b6000601f19601f8301169050919050565b6000610cf982610c97565b610d038185610ca2565b9350610d13818560208601610cb3565b610d1c81610cdd565b840191505092915050565b60008115159050919050565b610d3c81610d27565b82525050565b6000608082019050610d576000830187610c88565b610d646020830186610bbf565b8181036040830152610d768185610cee565b9050610d856060830184610d33565b95945050505050565b600081519050919050565b600082825260208201905092915050565b6000819050602082019050919050565b610dc381610c76565b82525050565b6000610dd58383610dba565b60208301905092915050565b6000602082019050919050565b6000610df982610d8e565b610e038185610d99565b9350610e0e83610daa565b8060005b83811015610e3f578151610e268882610dc9565b9750610e3183610de1565b925050600181019050610e12565b5085935050505092915050565b60006020820190508181036000830152610e668184610dee565b905092915050565b610e7781610c76565b8114610e8257600080fd5b50565b600081359050610e9481610e6e565b92915050565b600080fd5b600080fd5b7f4e487b7100000000000000000000000000000000000000000000000000000000600052604160045260246000fd5b610edc82610cdd565b810181811067ffffffffffffffff82111715610efb57610efa610ea4565b5b80604052505050565b6000610f0e610be9565b9050610f1a8282610ed3565b919050565b600067ffffffffffffffff821115610f3a57610f39610ea4565b5b610f4382610cdd565b9050602081019050919050565b82818337600083830152505050565b6000610f72610f6d84610f1f565b610f04565b905082815260208101848484011115610f8e57610f8d610e9f565b5b610f99848285610f50565b509392505050565b600082601f830112610fb657610fb5610e9a565b5b8135610fc6848260208601610f5f565b91505092915050565b600080600060608486031215610fe857610fe7610bf3565b5b6000610ff686828701610e85565b935050602061100786828701610c14565b925050604084013567ffffffffffffffff81111561102857611027610bf8565b5b61103486828701610fa1565b9150509250925092565b7f4e487b7100000000000000000000000000000000000000000000000000000000600052603260045260246000fd5b7f4e487b7100000000000000000000000000000000000000000000000000000000600052602260045260246000fd5b600060028204905060018216806110b457607f821691505b6020821081036110c7576110c661106d565b5b50919050565b7f4e487b7100000000000000000000000000000000000000000000000000000000600052601160045260246000fd5b600061110782610bb5565b91507fffffffffffffffffffffffffffffffffffffffffffffffffffffffffffffffff8203611139576111386110cd565b5b600182019050919050565b60008190508160005260206000209050919050565b60006020601f8301049050919050565b600082821b905092915050565b6000600883026111a67fffffffffffffffffffffffffffffffffffffffffffffffffffffffffffffffff82611169565b6111b08683611169565b95508019841693508086168417925050509392505050565b6000819050919050565b60006111ed6111e86111e384610bb5565b6111c8565b610bb5565b9050919050565b6000819050919050565b611207836111d2565b61121b611213826111f4565b848454611176565b825550505050565b600090565b611230611223565b61123b8184846111fe565b505050565b5b8181101561125f57611254600082611228565b600181019050611241565b5050565b601f8211156112a45761127581611144565b61127e84611159565b8101602085101561128d578190505b6112a161129985611159565b830182611240565b50505b505050565b600082821c905092915050565b60006112c7600019846008026112a9565b1980831691505092915050565b60006112e083836112b6565b9150826002028217905092915050565b6112f982610c97565b67ffffffffffffffff81111561131257611311610ea4565b5b61131c825461109c565b611327828285611263565b600060209050601f83116001811461135a5760008415611348578287015190505b61135285826112d4565b8655506113ba565b601f19841661136886611144565b60005b828110156113905784890151825560018201915060208501945060208101905061136b565b868310156113ad57848901516113a9601f8916826112b6565b8355505b6001600288020188555050505b505050505050565b60006040820190506113d76000830185610bbf565b81810360208301526113e98184610cee565b90509392505050565b600081905092915050565b6000815461140a8161109c565b61141481866113f2565b9450600182166000811461142f576001811461144457611477565b60ff1983168652811515820286019350611477565b61144d85611144565b60005b8381101561146f57815481890152600182019150602081019050611450565b838801955050505b50505092915050565b600061148c82846113fd565b91508190509291505056fea2646970667358221220d9e9737a059bd7091d38e75bb3f72d15d2a39d53b3bd75d46ae82ae82f7cf18d64736f6c63430008180033",
  "linkReferences": {},
  "deployedLinkReferences": {}
}