{
  "_format": "hh-sol-artifact-1",
  "contractName": "SimpleMultiSig",
  "sourceName": "contracts/MultiSig.sol",
  "abi": [
    {
      "inputs": [
        {
          "internalType": "address[]",
          "name": "owners_",
          "type": "address[]"
        },
        {
          "internalType": "uint256",
          "name": "required_",
          "type": "uint256"
        }
      ],
      "stateMutability": "nonpayable",
      "type": "constructor"
    },
    {
      "inputs": [
        {
          "internalType": "uint256",
          "name": "txnId",
          "type": "uint256"
        }
      ],
      "name": "AlreadyExecuted",
      "type": "error"
    },
    {
      "inputs": [
        {
          "internalType": "uint256",
          "name": "txnId",
          "type": "uint256"
        },
        {
          "internalType": "bytes",
          "name": "data",
          "type": "bytes"
        }
      ],
      "name": "ExecutionFailed",
      "type": "error"
    },
    {
      "inputs": [],
      "name": "InvalidRequiredConfirmations",
      "type": "error"
    },
    {
      "inputs": [
        {
          "internalType": "uint256",
          "name": "txnId",
          "type": "uint256"
        }
      ],
      "name": "InvalidTransaction",
      "type": "error"
    },
    {
      "inputs": [],
      "name": "NotAnOwner",
      "type": "error"
    },
    {
      "inputs": [],
      "name": "NotEnoughConfirmations",
      "type": "error"
    },
    {
      "inputs": [],
      "name": "OwnersRequired",
      "type": "error"
    },
    {
      "anonymous": false,
      "inputs": [
        {
          "indexed": true,
          "internalType": "uint256",
          "name": "txId",
          "type": "uint256"
        },
        {
          "indexed": true,
          "internalType": "address",
          "name": "owner",
          "type": "address"
        }
      ],
      "name": "TransactionConfirmed",
      "type": "event"
    },
    {
      "anonymous": false,
      "inputs": [
        {
          "indexed": true,
          "internalType": "uint256",
          "name": "txId",
          "type": "uint256"
        }
      ],
      "name": "TransactionExecuted",
      "type": "event"
    },
    {
      "anonymous": false,
      "inputs": [
        {
          "indexed": true,
          "internalType": "uint256",
          "name": "txId",
          "type": "uint256"
        },
        {
          "indexed": true,
          "internalType": "address",
          "name": "to",
          "type": "address"
        },
        {
          "indexed": false,
          "internalType": "uint256",
          "name": "value",
          "type": "uint256"
        },
        {
          "indexed": false,
          "internalType": "bytes",
          "name": "data",
          "type": "bytes"
        }
      ],
      "name": "TransactionSubmitted",
      "type": "event"
    },
    {
      "inputs": [],
      "name": "_requiredConfirmations",
      "outputs": [
        {
          "internalType": "uint256",
          "name": "",
          "type": "uint256"
        }
      ],
      "stateMutability": "view",
      "type": "function"
    },
    {
      "inputs": [
        {
          "internalType": "uint256",
          "name": "txnId_",
          "type": "uint256"
        }
      ],
      "name": "confirmTransaction",
      "outputs": [],
      "stateMutability": "nonpayable",
      "type": "function"
    },
    {
      "inputs": [
        {
          "internalType": "uint256",
          "name": "txnId_",
          "type": "uint256"
        }
      ],
      "name": "confirmations",
      "outputs": [
        {
          "internalType": "uint256",
          "name": "",
          "type": "uint256"
        }
      ],
      "stateMutability": "view",
      "type": "function"
    },
    {
      "inputs": [
        {
          "internalType": "uint256",
          "name": "txnId_",
          "type": "uint256"
        }
      ],
      "name": "executeTransaction",
      "outputs": [],
      "stateMutability": "nonpayable",
      "type": "function"
    },
    {
      "inputs": [
        {
          "internalType": "uint256",
          "name": "txnId_",
          "type": "uint256"
        }
      ],
      "name": "getTransaction",
      "outputs": [
        {
          "internalType": "address",
          "name": "to",
          "type": "address"
        },
        {
          "internalType": "uint256",
          "name": "value",
          "type": "uint256"
        },
        {
          "internalType": "bytes",
          "name": "data",
          "type": "bytes"
        },
        {
          "internalType": "bool",
          "name": "executed",
          "type": "bool"
        }
      ],
      "stateMutability": "view",
      "type": "function"
    },
    {
      "inputs": [],
      "name": "owners",
      "outputs": [
        {
          "internalType": "address[]",
          "name": "",
          "type": "address[]"
        }
      ],
      "stateMutability": "view",
      "type": "function"
    },
    {
      "inputs": [
        {
          "internalType": "address",
          "name": "to_",
          "type": "address"
        },
        {
          "internalType": "uint256",
          "name": "value_",
          "type": "uint256"
        },
        {
          "internalType": "bytes",
          "name": "data_",
          "type": "bytes"
        }
      ],
      "name": "submitTransaction",
      "outputs": [
        {
          "internalType": "uint256",
          "name": "",
          "type": "uint256"
        }
      ],
      "stateMutability": "nonpayable",
      "type": "function"
    },
    {
      "inputs": [],
      "name": "transactionCount",
      "outputs": [
        {
          "internalType": "uint256",
          "name": "",
          "type": "uint256"
        }
      ],
      "stateMutability": "view",
      "type": "function"
    },
    {
      "stateMutability": "payable",
      "type": "receive"
    }
  ],
  "bytecode": "0x60806040523480156200001157600080fd5b506040516200257e3803806200257e833981810160405281019062000037919062000652565b620000536791629d41a6277bd460c01b6200036d60201b60201c565b6200006f67f5bab6ccb0bf2f9b60c01b6200036d60201b60201c565b6200008b67d7d1f619692dd5cf60c01b6200036d60201b60201c565b6000825103620000e357620000b1670a95cb2facbbc4f160c01b6200036d60201b60201c565b6040517f401b9c4b00000000000000000000000000000000000000000000000000000000815260040160405180910390fd5b620000ff679b3702210f7a6a4a60c01b6200036d60201b60201c565b6200011b670b037ade92c7b93c60c01b6200036d60201b60201c565b620001376742cb75a3d123862560c01b6200036d60201b60201c565b6000811480156200016057506200015f67e9a3842fb378bdda60c01b6200037060201b60201c565b5b806200019157508151811180156200019057506200018f67906654f3f3731c7a60c01b6200037060201b60201c565b5b5b15620001e557620001b3677a3bc160801ad43960c01b6200036d60201b60201c565b6040517f6312410b00000000000000000000000000000000000000000000000000000000815260040160405180910390fd5b6200020167882b98337de43cc360c01b6200036d60201b60201c565b6200021d670631ce536f27f96d60c01b6200036d60201b60201c565b8160019080519060200190620002359291906200037b565b506200025267538f1afead6821a160c01b6200036d60201b60201c565b806002819055506200027567369f38c3077d46ad60c01b6200036d60201b60201c565b62000291673cf53e5e40cb85cc60c01b6200036d60201b60201c565b60005b6001805490508110156200036457620002be67b2b4c01e1c3730d860c01b6200036d60201b60201c565b600160008060018481548110620002da57620002d9620006b8565b5b9060005260206000200160009054906101000a900473ffffffffffffffffffffffffffffffffffffffff1673ffffffffffffffffffffffffffffffffffffffff1673ffffffffffffffffffffffffffffffffffffffff16815260200190815260200160002060006101000a81548160ff021916908315150217905550808060010191505062000294565b505050620006e7565b50565b600060019050919050565b828054828255906000526020600020908101928215620003f7579160200282015b82811115620003f65782518260006101000a81548173ffffffffffffffffffffffffffffffffffffffff021916908373ffffffffffffffffffffffffffffffffffffffff160217905550916020019190600101906200039c565b5b5090506200040691906200040a565b5090565b5b80821115620004255760008160009055506001016200040b565b5090565b6000604051905090565b600080fd5b600080fd5b600080fd5b6000601f19601f8301169050919050565b7f4e487b7100000000000000000000000000000000000000000000000000000000600052604160045260246000fd5b6200048d8262000442565b810181811067ffffffffffffffff82111715620004af57620004ae62000453565b5b80604052505050565b6000620004c462000429565b9050620004d2828262000482565b919050565b600067ffffffffffffffff821115620004f557620004f462000453565b5b602082029050602081019050919050565b600080fd5b600073ffffffffffffffffffffffffffffffffffffffff82169050919050565b600062000538826200050b565b9050919050565b6200054a816200052b565b81146200055657600080fd5b50565b6000815190506200056a816200053f565b92915050565b6000620005876200058184620004d7565b620004b8565b90508083825260208201905060208402830185811115620005ad57620005ac62000506565b5b835b81811015620005da5780620005c5888262000559565b845260208401935050602081019050620005af565b5050509392505050565b600082601f830112620005fc57620005fb6200043d565b5b81516200060e84826020860162000570565b91505092915050565b6000819050919050565b6200062c8162000617565b81146200063857600080fd5b50565b6000815190506200064c8162000621565b92915050565b600080604083850312156200066c576200066b62000433565b5b600083015167ffffffffffffffff8111156200068d576200068c62000438565b5b6200069b85828601620005e4565b9250506020620006ae858286016200063b565b9150509250929050565b7f4e487b7100000000000000000000000000000000000000000000000000000000600052603260045260246000fd5b611e8780620006f76000396000f3fe60806040526004361061007f5760003560e01c8063b9774f7b1161004e578063b9774f7b1461014c578063c01a8c8414610189578063c6427474146101b2578063ee22610b146101ef57610086565b80630b26bef81461008b57806333ea3dc8146100b6578063affe39c1146100f6578063b77bf6001461012157610086565b3661008657005b600080fd5b34801561009757600080fd5b506100a0610218565b6040516100ad9190611588565b60405180910390f35b3480156100c257600080fd5b506100dd60048036038101906100d891906115e3565b61021e565b6040516100ed94939291906116fc565b60405180910390f35b34801561010257600080fd5b5061010b610476565b6040516101189190611806565b60405180910390f35b34801561012d57600080fd5b50610136610540565b6040516101439190611588565b60405180910390f35b34801561015857600080fd5b50610173600480360381019061016e91906115e3565b610589565b6040516101809190611588565b60405180910390f35b34801561019557600080fd5b506101b060048036038101906101ab91906115e3565b610787565b005b3480156101be57600080fd5b506101d960048036038101906101d49190611989565b610c43565b6040516101e69190611588565b60405180910390f35b3480156101fb57600080fd5b50610216600480360381019061021191906115e3565b610f6f565b005b60025481565b6000806060600061023967187ef0c8d3900b9660c01b61156c565b8461024e67e35c76ec6cf3b01d60c01b61156c565b610262675a52597d376e3c4a60c01b61156c565b61027667cbd419e5f5daf08c60c01b61156c565b60048054905081106102d357610296679ea71ecb86084e6560c01b61156c565b806040517f717a34100000000000000000000000000000000000000000000000000000000081526004016102ca9190611588565b60405180910390fd5b6102e76786f311d713c46e1560c01b61156c565b6102fb67d93158096cbdc5d860c01b61156c565b61030f671b68cb6018044fa760c01b61156c565b610323670be13b334dc551f960c01b61156c565b610337679517b0108f4ef55760c01b61156c565b61034b670ec321682390586960c01b61156c565b600060048781548110610361576103606119f8565b5b9060005260206000209060040201905061038567d20a6455d12a62ba60c01b61156c565b6103996761ffea7d7ab672d760c01b61156c565b8060000160009054906101000a900473ffffffffffffffffffffffffffffffffffffffff168160010154826003018360020160009054906101000a900460ff168180546103e590611a56565b80601f016020809104026020016040519081016040528092919081815260200182805461041190611a56565b801561045e5780601f106104335761010080835404028352916020019161045e565b820191906000526020600020905b81548152906001019060200180831161044157829003601f168201915b50505050509150955095509550955050509193509193565b606061048c679cdbe00ed6f802f560c01b61156c565b6104a067238cd497000058c960c01b61156c565b6104b46763a1abaf3cadab1560c01b61156c565b600180548060200260200160405190810160405280929190818152602001828054801561053657602002820191906000526020600020905b8160009054906101000a900473ffffffffffffffffffffffffffffffffffffffff1673ffffffffffffffffffffffffffffffffffffffff16815260200190600101908083116104ec575b5050505050905090565b6000610556679b072814dd07088c60c01b61156c565b61056a67ef03c6bc2502147e60c01b61156c565b61057e67fb422eb43486fb3260c01b61156c565b600480549050905090565b600061059f67396c7cb569d4c23f60c01b61156c565b6105b367cc62ac7ebbbfd3e960c01b61156c565b6105c76712f87599dd0599e560c01b61156c565b60006105dd676ad0bb01493eb31f60c01b61156c565b6105f167629d8bb13ab5aaa860c01b61156c565b60005b6001805490508110156107555761061567cbd94ef5ebd7133660c01b61156c565b61062967b1e46a32cc39c35d60c01b61156c565b60006001828154811061063f5761063e6119f8565b5b9060005260206000200160009054906101000a900473ffffffffffffffffffffffffffffffffffffffff169050610680676f170e31cf3375dd60c01b61156c565b610694671a12458c296fa4d760c01b61156c565b6003600086815260200190815260200160002060008273ffffffffffffffffffffffffffffffffffffffff1673ffffffffffffffffffffffffffffffffffffffff16815260200190815260200160002060009054906101000a900460ff16156107325761070b677f0b0fd59ae07c2b60c01b61156c565b61071f67f5769aa9d00bc63c60c01b61156c565b828061072a90611ab6565b935050610747565b61074667edcd7330170066f760c01b61156c565b5b5080806001019150506105f4565b5061076a67c69576059f0ed52560c01b61156c565b61077e674c6b691f0bfff78160c01b61156c565b80915050919050565b61079b6758bb00d3e16391ff60c01b61156c565b6107af67d332a8094ecab45060c01b61156c565b6107c367d4d68af4b7a2b6de60c01b61156c565b6107d76774e74528936d85ab60c01b61156c565b6000803373ffffffffffffffffffffffffffffffffffffffff1673ffffffffffffffffffffffffffffffffffffffff16815260200190815260200160002060009054906101000a900460ff1661086d5761083b67810d50b23c11f01160c01b61156c565b6040517feea91ff800000000000000000000000000000000000000000000000000000000815260040160405180910390fd5b61088167f1b837375a550dee60c01b61156c565b61089567a0f9377c3188b52460c01b61156c565b6108a967245e0a8516d9993760c01b61156c565b6108bd67927321649554344260c01b61156c565b806108d267e35c76ec6cf3b01d60c01b61156c565b6108e6675a52597d376e3c4a60c01b61156c565b6108fa67cbd419e5f5daf08c60c01b61156c565b60048054905081106109575761091a679ea71ecb86084e6560c01b61156c565b806040517f717a341000000000000000000000000000000000000000000000000000000000815260040161094e9190611588565b60405180910390fd5b61096b6786f311d713c46e1560c01b61156c565b61097f67d93158096cbdc5d860c01b61156c565b61099367309eda48e277fd5560c01b61156c565b6109a7679501f5dbd8ea127260c01b61156c565b816109bc67176168914b58ebdb60c01b61156c565b6109d06759ae55a8d79f42d860c01b61156c565b6109e467dd88569d1854cf7560c01b61156c565b600481815481106109f8576109f76119f8565b5b906000526020600020906004020160020160009054906101000a900460ff1615610a6d57610a306765c2f1fa04344b5060c01b61156c565b806040517f6a64e961000000000000000000000000000000000000000000000000000000008152600401610a649190611588565b60405180910390fd5b610a81675e88b51c5b88936060c01b61156c565b610a9567beccfdd4f27c13ff60c01b61156c565b610aa967b329be4edefd143560c01b61156c565b610abd672725c4c03c72127c60c01b61156c565b610ad167a657e39a5cd51bde60c01b61156c565b60016003600085815260200190815260200160002060003373ffffffffffffffffffffffffffffffffffffffff1673ffffffffffffffffffffffffffffffffffffffff16815260200190815260200160002060006101000a81548160ff021916908315150217905550610b4e67c5d9f071b4ead8b060c01b61156c565b610b6267dcbe7b0997c435b660c01b61156c565b3373ffffffffffffffffffffffffffffffffffffffff16837f15c2f311c9e0f53b50388279894aeff029a3457884a6601e924fca879e12adcc60405160405180910390a3610bba67b1da1f702b76658e60c01b61156c565b610bce67590fed57b6c6ad6360c01b61156c565b600254610bda84610589565b10610c2957610bf367ac9b4f2d1b42fcb160c01b61156c565b610c076716ad795afdc89b4760c01b61156c565b610c1b67edb3c0474c46d84360c01b61156c565b610c2483610f6f565b610c3e565b610c3d674e09120d24dc320360c01b61156c565b5b505050565b6000610c59679fd650d7ac185d0960c01b61156c565b610c6d67d332a8094ecab45060c01b61156c565b610c8167d4d68af4b7a2b6de60c01b61156c565b610c956774e74528936d85ab60c01b61156c565b6000803373ffffffffffffffffffffffffffffffffffffffff1673ffffffffffffffffffffffffffffffffffffffff16815260200190815260200160002060009054906101000a900460ff16610d2b57610cf967810d50b23c11f01160c01b61156c565b6040517feea91ff800000000000000000000000000000000000000000000000000000000815260040160405180910390fd5b610d3f67f1b837375a550dee60c01b61156c565b610d5367a0f9377c3188b52460c01b61156c565b610d6767c5a2193e2a2a7cfc60c01b61156c565b610d7b6763e1f25604c165b660c01b61156c565b610d8f6755dd7b8ae30d2b1d60c01b61156c565b610da36754391f0915b3e2ff60c01b61156c565b60006004805490509050610dc167e47bfe63e9c3518c60c01b61156c565b610dd56711fd7ae49c01a65c60c01b61156c565b600460405180608001604052808773ffffffffffffffffffffffffffffffffffffffff16815260200186815260200160001515815260200185815250908060018154018082558091505060019003906000526020600020906004020160009091909190915060008201518160000160006101000a81548173ffffffffffffffffffffffffffffffffffffffff021916908373ffffffffffffffffffffffffffffffffffffffff1602179055506020820151816001015560408201518160020160006101000a81548160ff0219169083151502179055506060820151816003019081610ec09190611caa565b505050610ed7675b54b8827410daf960c01b61156c565b610eeb674fed779c1c5a7a5f60c01b61156c565b8473ffffffffffffffffffffffffffffffffffffffff16817f3f6db45da5513bd4fe9f8a31e60ea668bdd4bca57e30a85a9a26f90c9fbcb56c8686604051610f34929190611d7c565b60405180910390a3610f506755bb6e9423db365960c01b61156c565b610f6467af72424ba477f4bb60c01b61156c565b809150509392505050565b610f8367af329444f6cf456360c01b61156c565b610f9767d332a8094ecab45060c01b61156c565b610fab67d4d68af4b7a2b6de60c01b61156c565b610fbf6774e74528936d85ab60c01b61156c565b6000803373ffffffffffffffffffffffffffffffffffffffff1673ffffffffffffffffffffffffffffffffffffffff16815260200190815260200160002060009054906101000a900460ff166110555761102367810d50b23c11f01160c01b61156c565b6040517feea91ff800000000000000000000000000000000000000000000000000000000815260040160405180910390fd5b61106967f1b837375a550dee60c01b61156c565b61107d67a0f9377c3188b52460c01b61156c565b611091671eb6ea07ff7f3fb160c01b61156c565b6110a56781a1c0f1cd19401560c01b61156c565b806110ba67e35c76ec6cf3b01d60c01b61156c565b6110ce675a52597d376e3c4a60c01b61156c565b6110e267cbd419e5f5daf08c60c01b61156c565b600480549050811061113f57611102679ea71ecb86084e6560c01b61156c565b806040517f717a34100000000000000000000000000000000000000000000000000000000081526004016111369190611588565b60405180910390fd5b6111536786f311d713c46e1560c01b61156c565b61116767d93158096cbdc5d860c01b61156c565b61117b67ae3d7c54ba43ff6060c01b61156c565b61118f67a60654d54e2a800860c01b61156c565b816111a467176168914b58ebdb60c01b61156c565b6111b86759ae55a8d79f42d860c01b61156c565b6111cc67dd88569d1854cf7560c01b61156c565b600481815481106111e0576111df6119f8565b5b906000526020600020906004020160020160009054906101000a900460ff1615611255576112186765c2f1fa04344b5060c01b61156c565b806040517f6a64e96100000000000000000000000000000000000000000000000000000000815260040161124c9190611588565b60405180910390fd5b611269675e88b51c5b88936060c01b61156c565b61127d67beccfdd4f27c13ff60c01b61156c565b6112916789b9dcbd4c040bd160c01b61156c565b6112a5676efb874a7850dad360c01b61156c565b6112b967deeb475de1fe057260c01b61156c565b6112cd67849ce13b7622d56f60c01b61156c565b6002546112d984610589565b1015611325576112f36759c2752be2d4ccfa60c01b61156c565b6040517fb9310b5600000000000000000000000000000000000000000000000000000000815260040160405180910390fd5b6113396775e1b1810136743560c01b61156c565b61134d67989fcba5ae56f15760c01b61156c565b6113616728b7a1097add145960c01b61156c565b600060048481548110611377576113766119f8565b5b9060005260206000209060040201905061139b679f57dd250b54589560c01b61156c565b60018160020160006101000a81548160ff0219169083151502179055506113cc6710be5161b531307a60c01b61156c565b6113e0673de5b3b050e6ffee60c01b61156c565b6000808260000160009054906101000a900473ffffffffffffffffffffffffffffffffffffffff1673ffffffffffffffffffffffffffffffffffffffff168360010154846003016040516114349190611e3a565b60006040518083038185875af1925050503d8060008114611471576040519150601f19603f3d011682016040523d82523d6000602084013e611476565b606091505b509150915061148f6762663982ca25d98660c01b61156c565b6114a3670b7af16ab4a582bd60c01b61156c565b816114fb576114bc678e9a71fe8366e3f460c01b61156c565b85816040517f2c4029e90000000000000000000000000000000000000000000000000000000081526004016114f2929190611d7c565b60405180910390fd5b61150f672cad5381b908f39360c01b61156c565b611523678b2cb3c2ebf3851360c01b61156c565b611537674a9e2f876a85a3ce60c01b61156c565b857f15ed165a284872ea7017f03df402a0cadfbfab588320ffaf83f160c2f82781c760405160405180910390a2505050505050565b50565b6000819050919050565b6115828161156f565b82525050565b600060208201905061159d6000830184611579565b92915050565b6000604051905090565b600080fd5b600080fd5b6115c08161156f565b81146115cb57600080fd5b50565b6000813590506115dd816115b7565b92915050565b6000602082840312156115f9576115f86115ad565b5b6000611607848285016115ce565b91505092915050565b600073ffffffffffffffffffffffffffffffffffffffff82169050919050565b600061163b82611610565b9050919050565b61164b81611630565b82525050565b600081519050919050565b600082825260208201905092915050565b60005b8381101561168b578082015181840152602081019050611670565b60008484015250505050565b6000601f19601f8301169050919050565b60006116b382611651565b6116bd818561165c565b93506116cd81856020860161166d565b6116d681611697565b840191505092915050565b60008115159050919050565b6116f6816116e1565b82525050565b60006080820190506117116000830187611642565b61171e6020830186611579565b818103604083015261173081856116a8565b905061173f60608301846116ed565b95945050505050565b600081519050919050565b600082825260208201905092915050565b6000819050602082019050919050565b61177d81611630565b82525050565b600061178f8383611774565b60208301905092915050565b6000602082019050919050565b60006117b382611748565b6117bd8185611753565b93506117c883611764565b8060005b838110156117f95781516117e08882611783565b97506117eb8361179b565b9250506001810190506117cc565b5085935050505092915050565b6000602082019050818103600083015261182081846117a8565b905092915050565b61183181611630565b811461183c57600080fd5b50565b60008135905061184e81611828565b92915050565b600080fd5b600080fd5b7f4e487b7100000000000000000000000000000000000000000000000000000000600052604160045260246000fd5b61189682611697565b810181811067ffffffffffffffff821117156118b5576118b461185e565b5b80604052505050565b60006118c86115a3565b90506118d4828261188d565b919050565b600067ffffffffffffffff8211156118f4576118f361185e565b5b6118fd82611697565b9050602081019050919050565b82818337600083830152505050565b600061192c611927846118d9565b6118be565b90508281526020810184848401111561194857611947611859565b5b61195384828561190a565b509392505050565b600082601f8301126119705761196f611854565b5b8135611980848260208601611919565b91505092915050565b6000806000606084860312156119a2576119a16115ad565b5b60006119b08682870161183f565b93505060206119c1868287016115ce565b925050604084013567ffffffffffffffff8111156119e2576119e16115b2565b5b6119ee8682870161195b565b9150509250925092565b7f4e487b7100000000000000000000000000000000000000000000000000000000600052603260045260246000fd5b7f4e487b7100000000000000000000000000000000000000000000000000000000600052602260045260246000fd5b60006002820490506001821680611a6e57607f821691505b602082108103611a8157611a80611a27565b5b50919050565b7f4e487b7100000000000000000000000000000000000000000000000000000000600052601160045260246000fd5b6000611ac18261156f565b91507fffffffffffffffffffffffffffffffffffffffffffffffffffffffffffffffff8203611af357611af2611a87565b5b600182019050919050565b60008190508160005260206000209050919050565b60006020601f8301049050919050565b600082821b905092915050565b600060088302611b607fffffffffffffffffffffffffffffffffffffffffffffffffffffffffffffffff82611b23565b611b6a8683611b23565b95508019841693508086168417925050509392505050565b6000819050919050565b6000611ba7611ba2611b9d8461156f565b611b82565b61156f565b9050919050565b6000819050919050565b611bc183611b8c565b611bd5611bcd82611bae565b848454611b30565b825550505050565b600090565b611bea611bdd565b611bf5818484611bb8565b505050565b5b81811015611c1957611c0e600082611be2565b600181019050611bfb565b5050565b601f821115611c5e57611c2f81611afe565b611c3884611b13565b81016020851015611c47578190505b611c5b611c5385611b13565b830182611bfa565b50505b505050565b600082821c905092915050565b6000611c8160001984600802611c63565b1980831691505092915050565b6000611c9a8383611c70565b9150826002028217905092915050565b611cb382611651565b67ffffffffffffffff811115611ccc57611ccb61185e565b5b611cd68254611a56565b611ce1828285611c1d565b600060209050601f831160018114611d145760008415611d02578287015190505b611d0c8582611c8e565b865550611d74565b601f198416611d2286611afe565b60005b82811015611d4a57848901518255600182019150602085019450602081019050611d25565b86831015611d675784890151611d63601f891682611c70565b8355505b6001600288020188555050505b505050505050565b6000604082019050611d916000830185611579565b8181036020830152611da381846116a8565b90509392505050565b600081905092915050565b60008154611dc481611a56565b611dce8186611dac565b94506001821660008114611de95760018114611dfe57611e31565b60ff1983168652811515820286019350611e31565b611e0785611afe565b60005b83811015611e2957815481890152600182019150602081019050611e0a565b838801955050505b50505092915050565b6000611e468284611db7565b91508190509291505056fea2646970667358221220f9cb470852abb0fd57d80db4abfc4ca33ac4097a4722dacff1ac1b215ac35c4364736f6c63430008180033",
  "linkReferences": {},
  "deployedLinkReferences": {}
}